:020000040800F2
:1000000028580020610200084F220008031E000843
:100010004D220008B9040008712C000800000000FF
:10002000000000000000000000000000A101000826
:100030004505000800000000FD01000861270008D8
:100040007B0200087B0200087B0200087B0200089C
:100050007B0200087B0200087B0200087B0200088C
:100060007B0200087B0200087B0200087B0200087C
:100070007B0200087B0200087B0200087B0200086C
:100080007B0200087B0200087B0200087B0200085C
:100090007B0200087B0200087B0200087B0200084C
:1000A0007B0200087B0200087B0200087B0200083C
:1000B0007B0200087B0200087B0200087B0200082C
:1000C0007B0200087B0200087B0200087B0200081C
:1000D0007B0200087B0200087B0200087B0200080C
:1000E0007B0200087B0200087B0200087B020008FC
:1000F0007B0200087B0200087B0200087B020008EC
:100100007B0200087B0200087B0200087B020008DB
:100110007B0200087B020008212800087B020008FF
:10012000BD0400087B0200087B0200087B02000877
:100130007B02000800000000000000007B020008B5
:100140007B0200087B0200087B0200087B0200089B
:100150007B0200087B0200087B0200087B0200088B
:100160007B0200087B0200087B0200087B0200087B
:100170007B0200087B020008000000000000000075
:100180007B0200087B020008DFF810D000F0EEF8D8
:10019000004800472D2D0008AFF3008028580020AC
:1001A0002C4B19680868B0E8F04F80F30988BFF35A
:1001B0006F8F4FF0000080F311887047000000003F
:1001C00008480068006880F308884FF0000080F35A
:1001D000148862B661B6BFF34F8FBFF36F8F00DF35
:1001E00000BF00BF08ED00E0DFF80C00016841F43B
:1001F00070010160704700BF88ED00E0EFF30980F7
:10020000BFF36F8F134B1A681EF0100F08BF20ED5D
:10021000108A20E9F04F106009B44FF0500080F3CD
:100220001188BFF34F8FBFF36F8F03F06BFC4FF05C
:10023000000080F3118809BC19680868B0E8F04F25
:100240001EF0100F08BFB0EC108A80F30988BFF3CE
:100250006F8F704714000020EFF305807047000097
:100260000648804706480047FEE7FEE7FEE7FEE750
:10027000FEE7FEE7FEE7FEE7FEE7FEE711280008DF
:10028000890100082DE9F05F0546002092469B4653
:1002900088460646814640241BE02846414647469C
:1002A000224600F053F853465A46C01A914110D3E3
:1002B00011461846224600F03AF82D1A67EB01085D
:1002C0004F4622460120002100F031F817EB0009CB
:1002D0004E41201EA4F10104DFDC484631462A4687
:1002E0004346BDE8F09F40EA01039B0703D009E0C5
:1002F00008C9121F08C0042AFAD203E011F8013B12
:1003000000F8013B521EF9D27047D2B201E000F86A
:10031000012B491EFBD270470022F6E710B51346A9
:100320000A4604461946FFF7F0FF204610BD202A72
:1003300004DB203A00FA02F1002070479140C2F13C
:10034000200320FA03F3194390407047202A04DB6E
:10035000203A21FA02F00021704721FA02F3D0403E
:10036000C2F120029140084319467047064C074DE0
:1003700006E0E06840F0010394E807009847103475
:10038000AC42F6D3FFF704FFE06300080064000806
:10039000464910B54A6822F440324A604A684368C8
:1003A0001A434A6001684A6822F480724A60016810
:1003B0004A68036942EA03224A6001684A6822F0F7
:1003C00040724A6001684A6883681A434A6001685B
:1003D0008A6822F400628A6001688A68C3681A43E6
:1003E0008A60816A6FF07062D14201688A6822F087
:1003F00070628A6001688A680CD0836A1A438A60D6
:1004000001688A6822F040528A6001688A68C36A7B
:100410001A4301E022F040528A6001688A6822F0A3
:1004200002028A6001688A68037E42EA43028A60A7
:1004300090F82010002901684A680FD042F4006249
:100440004A6001684A6822F460424A6001684A686A
:10045000174C436A04EB43331A4301E022F4006271
:100460004A600168CA6A22F47002CA620168CA6AF4
:10047000838B104C04EB03531A43CA6201688A68E9
:1004800022F400728A6001688A6890F8303042EA8B
:1004900043228A6001688A6822F480628A60016867
:1004A0008A68406942EA8020886010BD00230140CC
:1004B00000E0FFFF0000F0FFFEE70000014800F051
:1004C00061B90000E800002001681823CAB2103AA0
:1004D000B2FBF3F2054B6FF30901032A9B5CC36582
:1004E00000D9091D81650846704700008445000851
:1004F00010B5014600208B698A6A4FF0C07453B171
:10050000B3F5005F15D072B1012A0CD0022A0AD0CF
:10051000032A09D104E01AB1012A06D0022A03D124
:10052000C96AC90100D5012010BDC96AA142FAD02B
:1005300010BD002AF7D0012AF2D0022AF3D0032AF4
:10054000F3D010BD704772B6FEE7000078B5002406
:10055000009490F83C20012A19D0012280F83C2018
:100560000A6807230568092A13D9EE680A3A02EBDC
:10057000420293409E43EE600B788A680A3B03EB8D
:1005800043039A400368DD682A43DA6010E00220E2
:1005900078BD2E6902EB420293409E432E610B7898
:1005A0008A6803EB43039A4003681D692A431A6172
:1005B0004A681F23072A13D205686E6B521E02EB8E
:1005C000820293409E436E630B790A885B1E92B24F
:1005D00003EB83039A4003685D6B2A435A6327E069
:1005E00005680D2A12D22E6BD21F02EB82029340B5
:1005F0009E432E630B790A88DB1F92B203EB8303C1
:100600009A4003681D6B2A431A6311E0EE6A0D3AA3
:1006100002EB820293409E43EE620B790A880D3B07
:1006200092B203EB83039A400368DD6A2A43DA62DD
:10063000164B0568144A9D4206D10D68122D03D150
:10064000556845F48005556005689D4218D10B68D2
:10065000102B01D0112B13D1536843F400035360C6
:10066000096810290CD10A490A4A0968B1FBF2F15C
:1006700001EB8101490000E0491E00910029FBD1F6
:1006800080F83C40002078BD00230140002001405C
:100690001000002040420F0070B504004FF000052C
:1006A00003D0206C002610B107E0012070BD204669
:1006B00000F01CF8666484F83C60206CC00610D41E
:1006C000206C20F4885040F0020020642046FFF7A0
:1006D0005FFE6664206C20F0020040F001002064A0
:1006E00000E0012584F83C60284670BD70B586B0F6
:1006F000064614216846FFF70FFE1D493068884200
:1007000034D11C480025016841F480710160006803
:1007100000F48070059017481438016841F0010119
:1007200001600068694600F0010005901320009008
:100730000320CDE90105104800F070F9104C0F4876
:10074000C4E900050015A560C4E9035040006061DC
:100750008000A0614011C4E907052046656200F0F1
:10076000E1F808B1FFF7EFFEB463A66306B070BD11
:100770000020014044380240000002401064024062
:10078000E80000202DE9F84304464FF00009CDF8B9
:10079000009063484FF41651A56D0068B0FBF1F767
:1007A0002E6894F85C10082000FA01F131420FD055
:1007B00021680A6852070BD50A6822F004020A6011
:1007C00094F85C108840A860606D40F0010060659E
:1007D00094F85C104FF0010808FA01F0304208D09C
:1007E00021684969090604D5A860606D40F00200DF
:1007F000606594F85C1004208840304208D021687D
:100800000968890704D5A860606D40F00400606540
:1008100094F85C1010208840304218D02168096894
:10082000090714D5A86020680168490304D5006849
:10083000000308D5A16C07E00168C90503D401686D
:1008400021F008010160216C09B12046884794F825
:100850005C1020208840304231D021680968C906E8
:100860002DD5A86094F8350005282068016806D0C9
:10087000490347D5006800031DD4616C1CE021F0DA
:10088000160101602068416921F080014161206CFE
:1008900008B9A06C20B12068016821F0080101604E
:1008A00094F85C103F208840A86084F8358084F874
:1008B0003490216D1FE0E16B09B120468847606DDF
:1008C00000282BD0606DC00714D0052084F83500B7
:1008D0002068016821F0010101600098401C00902F
:1008E000B84203D820680068C007F6D184F8358084
:1008F00084F83490E16C002910D001B02046BDE8A6
:10090000F04308470168C905D5D4016821F01001FA
:10091000016084F8358084F83490CCE7BDE8F88332
:10092000100000202DE9F041044600F07DF9064654
:100930005CB1022084F83500002584F8345020682A
:10094000016821F0010101600DE00120BDE8F081A6
:1009500000F06AF9801B052805D920206065032076
:1009600084F83500F2E720680068C007F0D12268FB
:10097000116820480140D4E901031843D4E9033643
:100980003343184363691843A3691843E369184361
:10099000236A18430843616A042903D1D4E90B137D
:1009A00019430843106020684069666A20F0070117
:1009B00030460E43012704280CD1A06A0643E06AA2
:1009C00040B12046FFF794FD20B14020606584F8D7
:1009D0003570BAE7206846612046FFF775FD94F848
:1009E0005C203F2191408160656584F8357000206E
:1009F000ACE700003F8010F070B5044600F014F939
:100A00000546601C02D004480078044400F00CF94C
:100A1000401BA042FAD370BD040000202DE9F84F1E
:100A2000DFF8BCA1002201250AF1040B03264FF0D8
:100A30000F090BF1040E00BF0B6805FA02F4234006
:100A4000A34270D10F7907F00307012F01D0022FC5
:100A500016D187684FEA420806FA08FC27EA0C0715
:100A6000D1F80CC00CFA08FC4CEA070CC0F808C01E
:100A70004768A7430C79C4F3001494403C43446096
:100A80000C79E443A4070AD0C4684FEA420C06FA82
:100A90000CF7BC438F6807FA0CF72743C7600C7943
:100AA00004F00304022C12D1D40800EB840CDCF80F
:100AB00020405707FF0E09FA07F824EA0804D1F886
:100AC000108008FA07F848EA0408CCF82080046887
:100AD0004FEA420C06FA0CF7BC430F7907F0030704
:100AE00007FA0CF7274307604C6814F4403F70D0B6
:100AF0003C4C276847F480472760246822F00307AE
:100B000004F480440094384C07EB040CDCF80848EB
:100B100097074FEA177809FA08F7BC43334FB842F2
:100B200002D1002724E054E0314FB84201D101271F
:100B30001EE0304FB84201D1022719E02E4FB842D3
:100B400001D1032714E02D4FB84201D104270FE053
:100B50002B4FB84201D105270AE02A4FB84201D1F4
:100B6000062705E0284FB84201D1072700E00827F3
:100B700007FA08F72743CCF80878DAF80040574618
:100B8000D1F804C09C435FEACC3C00D51C433C60D8
:100B9000DBF800405F46D1F804C09C435FEA8C3C20
:100BA00000D51C433C60DEF800407746D1F804C015
:100BB0009C435FEACC2C00D51C433C60084F0C37AB
:100BC0003C68D1F804C09C435FEA8C2C00D51C43E0
:100BD0003C60521C102AFFF42FAFBDE8F88F0000D4
:100BE000003C014044380240003001400000024017
:100BF0000004024000080240000C024000100240C5
:100C00000014024000180240001C0240426921EA20
:100C100002030A4043EA0241816170470AB18161DF
:100C200070470904FBE70000014880687047000036
:100C30000400002070B5040025D094F83D00002584
:100C400020B984F83C50204600F0B8F8242084F8FD
:100C50003D002068016821F0010101602068016801
:100C600041F4004101602068016821F40041016005
:100C700000F06CFA4D4A6168914201D84C4900E09D
:100C80004C49884201D2012070BD4B492368B0FB1A
:100C9000F1F15E6826F03F060E435E6063689342A2
:100CA00006D94FF4967359434FF47A73B1FBF3F1BD
:100CB0002368491C1E6A26F03F06314319626168A9
:100CC000914210D84900401EB0FBF1F2521CC2F311
:100CD0000B02042A01D2042022E0B0FBF1F0401CF8
:100CE000C0F30B001CE0A268F2B301EBC10303EBFD
:100CF0000116431EB3FBF6F35B1C43F480431B0554
:100D000049D092B301EBC10202EB0111401EB0FBCE
:100D1000F1F0401CC0F30B0040F4804040F4004070
:100D20002168CA694CF6FF739A431043C861D4E93D
:100D3000071001432068026822F0C00211430160DD
:100D4000D4E9030101432068826848F2FF339A43E3
:100D500011438160D4E9050108432168CA6822F083
:100D6000FF021043C86001E00EE016E02068016851
:100D700041F0010101602564202084F83D002563D5
:100D800084F83E50002070BD01EB4106431EB3FBCA
:100D9000F6F35B1CB3E70120C2E701EB4101401E03
:100DA000B0FBF1F0401CC0F30B00B7E7A0860100D8
:100DB00080841E0000093D0040420F00F0B587B05E
:100DC000044614216846FFF7A7FA2768234CDFF88A
:100DD00088C000222149122303250426204810340C
:100DE000674518D10F6847F002070F60096802AF26
:100DF00001F002010591C021CDE9001387E86400EC
:100E00006946FFF70BFE206840F400102060206860
:100E100000F400101CE0DFF84CC0674519D10F68E2
:100E200047F002070F60096802AF01F00201059167
:100E30004FF44061CDE9001387E864006946FFF78D
:100E4000EDFD206840F480002060206800F4800000
:100E5000059007B0F0BD000000540040303802405B
:100E600000040240005800400248816802781144A2
:100E700081607047040000200B4810B5016841F400
:100E800000710160016841F480610160016841F412
:100E900080710160032000F08DF80F2000F006F84B
:100EA00000F03EF8002010BD003C024010B50146A5
:100EB00088B00022362000F05DF8362000F04CF8B3
:100EC00013480024016841F010010160006805A981
:100ED00000F010000690684600F018F900F036F9AE
:100EE0000C494000B0FBF1F10C480B4A491E02606E
:100EF00040F2E732C0E90324C0E9011400F0A0FB8E
:100F000010B1012008B010BD044800F0C7FBF9E79C
:100F10004038024040420F0000100040080300200B
:100F20000C4882B0016841F480410160006800F41F
:100F3000804000900748001F016841F08051016027
:100F40000068002200F0805000900F21901E02B037
:100F500000F010B844380240002809DB00F01F02FE
:100F6000012191404009800000F1E020C0F800110B
:100F700070470000F0B40E4B1B680C46C3F302230D
:100F8000C3F10705042D00D90425191D072901D235
:100F9000002300E0DB1E012606FA05F1491E214070
:100FA00099409E40761E16403143F0BC01F082BE4F
:100FB0000CED00E0064900F0070208684FF6FF0359
:100FC000184040EA0220034A1043086070470000BE
:100FD0000CED00E00000FA052DE9F0470E46050093
:100FE00065D0DFF81481D8F80000F7B200F00700F0
:100FF000B04207D288F80070D8F8000000F007006F
:10100000B04254D128683D4C810712D5400703D522
:10101000206840F4E05020602878000703D520685D
:1010200040F4604020602068A96820F0F000084388
:1010300020602878C0072DD0304968680839012819
:1010400012D0022813D0032811D00968890700297B
:101050002DDA216821F0030101432160FFF7E4FD4F
:10106000814641F2883A0EE009688903EFE7096892
:101070008901ECE7FFF7D8FDA0EB0901514502D942
:101080000320BDE8F0872068696800F00C00B0EB31
:10109000810FEFD1D8F80010404601F00701B142AE
:1010A00007D90770006800F00700B04201D00120A6
:1010B000E7E72878400705D52068E96820F4E05084
:1010C000084320602878000706D52068296920F4A5
:1010D000604040EAC100206000F058F82168084AEA
:1010E000C1F30311515CC840064908600648006816
:1010F000FFF7DCFE0020C4E7003C02400838024055
:101100008C45000810000020080000200F2202601B
:101110000C4A136803F003034360136803F0F00301
:101120008360136803F4E053C36012684FF4E05324
:1011300003EAD20202610448006800F00700086078
:101140007047000008380240003C0240044805494E
:1011500000680968044AC1F38221515CC8407047A5
:1011600010000020083802409C450008044805494A
:1011700000680968044AC1F34231515CC8407047B5
:1011800010000020083802409C450008154810B5A2
:10119000006810F00C02144813D04110042A0FD03C
:1011A000082A0ED10F4C241F2268236802F03F0248
:1011B0005B0207D52068C0F38810A0FB010106E0A0
:1011C000084610BD2168C1F38811A1FB000100236E
:1011D000FFF758F82168C1F30141491C4900B0FBF1
:1011E000F1F010BD083802400024F4002DE9F84F5A
:1011F00004006ED02078DFF84C93C007A9F10405F5
:101200004AD009F104000168C1F38101012908D025
:101210000068C0F3810002280AD1D9F8000040021A
:1012200006D52868800337D560680028E1D033E010
:101230006068B0F5803F10D0B0F5A02F286810D0BE
:1012400020F480302860286820F4802028606068BE
:10125000A8B1FFF7E9FC06460DE0286840F48030AD
:10126000F4E740F480202860F7E700BFFFF7DCFCDC
:10127000801B642873D828688003F7D50CE0FFF73B
:10128000D3FC064605E000BFFFF7CEFC801B6428B8
:10129000F0D828688003F7D42078DFF8AC82800784
:1012A0004FF0000A3ED5A748001D016811F00C0F51
:1012B00008D00068C0F3810002280BD1D9F80000E3
:1012C000400207D42868800716D5E068012800D1BD
:1012D00012E033E1E068B8B10120C8F80000FFF780
:1012E000A3FC064605E000BFFFF79EFC801B02281A
:1012F000C0D828688007F7D52868216920F0F80051
:1013000040EAC10028600DE0C8F800A0FFF78CFC9F
:10131000064604E0FFF788FC801B02281FD82868D7
:101320008007F7D42078000722D5864F8748616967
:10133000703771B101210160FFF776FC064604E0C9
:10134000FFF772FC801B022809D838688007F7D5A0
:101350000EE0C0F800A0FFF767FC064605E082E05B
:10136000FFF762FC801B02287DD838688007F7D41D
:101370002078400768D5DFF8CCB100270BF13C0B93
:10138000DBF80000C0000BD4DBF8001041F0805106
:10139000CBF80010DBF80000012700F0805000902F
:1013A0006B4E3068C00510D4306840F480703060F7
:1013B000FFF73AFC009005E0FFF736FC0099401A71
:1013C000022850D83068C005F6D55E4EA0686C364D
:1013D00001280FD00528306810D020F001003060BF
:1013E000306820F004003060A068B8B1FFF71CFC42
:1013F00000900FE0306840F00100F4E740F0040096
:101400003060F7E7FFF710FC0099411A41F288308D
:10141000814266D830688007F4D50EE0FFF704FCFF
:10142000009007E0FFF700FC0099411A41F2883074
:10143000814256D830688007F4D42FB1DBF8001011
:1014400021F08051CBF80010A069C8B33D49091DB7
:101450000968C1F3810102294AD00228504607D009
:10146000C8F8600000E03CE0FFF7DEFB04463BE02C
:101470004746C8F86000FFF7D7FB064605E000BF07
:10148000FFF7D2FB801B02282BD828688001F7D4F5
:10149000D4E907010843A16A2E4A490802EB014139
:1014A000626A41EA8211084394F82C1040EA016113
:1014B000C9F8001001203866FFF7B6FB044606E0C5
:1014C0003EE000BFFFF7B0FB001B022809D82868E8
:1014D0008001F7D534E000BFFFF7A6FB001B022810
:1014E00002D90320BDE8F88F28688001F4D427E0F2
:1014F0000128F7D0D9F80000E26900F48001914298
:101500001CD1226A00F03F01914217D147F6C07109
:10151000626A0140B1EB821F10D1A26A4FF0FF3323
:1015200000F4403103EB5202B1EB024F06D194F8C4
:101530002C1000F07060B0EB016F01D00120D1E7FA
:101540000020CFE70438024000004742800E4742A7
:10155000007000400000FFFF7047704710B590F822
:101560003C20012A22D0012280F83C20CA688C68E5
:1015700022F4407222434C6822F4806222430C68B9
:1015800022F4006222430C6922F4805222434C6907
:1015900022F400522243C969002322F480420A4304
:1015A00001684A6480F83C30002010BD022010BD64
:1015B00070B590F83C20012A32D0012480F83C40DC
:1015C000022280F83D2003685A689D6822F0700668
:1015D0000A6832435A60134B02689A4214D0B2F13F
:1015E000804F11D0104B9A420ED0104B9A420BD024
:1015F0000F4B9A4208D00F4B9A4205D00E4B9A429D
:1016000002D00E4B9A4204D1496825F08003194359
:10161000916080F83D40002180F83C10084670BD84
:10162000022070BD0000014000040040000800409E
:10163000000C004000040140004001400018004040
:1016400010B5040003D094F83D0010B107E001206C
:1016500010BD002084F83C00204600F01EF8022057
:1016600084F83D00211D206801F0E0F8012084F895
:10167000460084F83E0084F83F0084F8400084F877
:10168000410084F8420084F8430084F8440084F860
:10169000450084F83D00002010BD704790F83D10D3
:1016A000012901D001207047022180F83D10016816
:1016B000CA6842F00102CA6000681149884214D029
:1016C000B0F1804F11D00F4988420ED00E498842A8
:1016D0000BD00E49884208D00D49884205D00D49EB
:1016E000884202D00C49884204D1816801F0070188
:1016F000062903D0016841F0010101600020704714
:10170000000001400004004000080040000C0040C0
:101710000004014000400140001800402DE9F04164
:101720000D46040003D094F83D0018B108E00120F4
:10173000BDE8F081002084F83C00204600F040F82D
:10174000022084F83D002068816844F2070291433A
:101750008160211D206801F069F822689068916914
:10176000166A2B68AF69034340F20330814341EAB4
:101770000721A868EF6908434FF6FC418843E968F0
:1017800040EA0720014328692F6A000140EA073038
:10179000084369686D6926F0AA0646EA05152943DB
:1017A00093602268906154F8460B0162012004F8AE
:1017B0001F09E0752076E0762077A0750020B7E756
:1017C00070B586B0044614216846FEF7A5FD206872
:1017D000B0F1804F31D11A480024016841F0010175
:1017E0000160006800F0010005901548103801689C
:1017F00041F001010160016801F0010105910168FA
:1018000041F0020101600068022500F0020005902D
:1018100020200090CDE901540126CDE90346694618
:101820000848FFF7FBF808200090CDE90154CDE906
:10183000034669460448FFF7F1F806B070BD0000A2
:1018400040380240000002400004024070B590F8A9
:101850003E60044690F83F5090F8423090F84320A4
:10186000022021B104290ED0012E1BD114E0012E3B
:1018700018D1012B16D184F83E0084F842000122D1
:101880000021206820E0012D0CD1012A0AD184F822
:101890003F0084F8430014E0012D03D1012B01D156
:1018A000012A01D0012070BD84F83E0084F83F0079
:1018B00084F8420084F8430001220021206801F0EE
:1018C00019F801220421206801F014F82068016849
:1018D00041F001010160002070BD704770B5044601
:1018E000006801694FF00005C943890715D4C16834
:1018F000C943890711D4E91E0161012020772068BE
:1019000080698007204602D0FFF7E7FF04E000F07F
:10191000ECF8204600F02CF9257720680169C943CE
:10192000490717D4C168C943490713D46FF00401AC
:101930000161022020772068806910F4407F2046F2
:1019400002D0FFF7CAFF04E000F0CFF8204600F015
:101950000FF9257720680169C943090716D4C168C2
:10196000C943090712D46FF00801016104202077F0
:101970002068C0698007204602D0FFF7AEFF04E070
:1019800000F0B3F8204600F0F3F8257720680169ED
:10199000C943C90617D4C168C943C90613D46FF037
:1019A00010010161082020772068C06910F4407F91
:1019B000204602D0FFF791FF04E000F096F82046A1
:1019C00000F0D6F8257720680169C943C90708D116
:1019D000C168C943C90704D1891E0161204600F0CE
:1019E0002DF920680169C943090609D4C168C943B2
:1019F000090605D46FF0800101612046FFF7ACFDB8
:101A000020680169C943490609D4C168C943490628
:101A100005D46FF040010161204600F019F92068FB
:101A20000169C94389060BD4C168C943890607D433
:101A30006FF0200101612046BDE87040FFF78DBDC9
:101A400070BD000010B586B0044614216846FEF74C
:101A500063FC0E492068884216D10D4800210268B7
:101A600042F001020260006800F0010005904FF4AE
:101A7000C07000900220CDE901010120CDE90310E2
:101A800069460448FEF7CAFF06B010BD00000140D9
:101A9000303802400000024070B5044690F83C0027
:101AA000002501280FD0012084F83C006AB1042AE7
:101AB0000FD0082A11D00C2A13D00125002084F859
:101AC0003C00284670BD022070BD206800F020FF59
:101AD000F4E7206800F04CFFF0E7206800F07EFF9C
:101AE000ECE7206800F0AEFFE8E7704710B50400AF
:101AF00003D094F83D0010B107E0012010BD002094
:101B000084F83C00204600F01FF8022084F83D00D5
:101B1000211D206800F08AFE012084F8460084F828
:101B20003E0084F83F0084F8400084F8410084F8C7
:101B3000420084F8430084F8440084F8450084F8A7
:101B40003D00002010BD000008B50068064988422D
:101B500008D10648016841F001010160006800F009
:101B60000100009008BD0000000001404438024020
:101B70007047000010B50446022249B104290ED076
:101B8000082913D094F84100012816D0012010BD77
:101B900094F83E000128F9D184F83E200FE094F833
:101BA0003F000128F2D184F83F2008E094F840007B
:101BB0000128EBD184F8402001E084F84120012283
:101BC000206800F097FE16492068164A884201D026
:101BD000904203D1436C43F400434364206888423D
:101BE00013D0B0F1804F10D00F4988420DD00F496B
:101BF00088420AD00E49884207D0904205D00D494C
:101C0000884202D00C49884204D1816801F0070162
:101C1000062903D0016841F001010160002010BDD8
:101C200000000140000401400004004000080040A2
:101C3000000C0040004001400018004000680349CB
:101C4000884201D1FFF710B9704700000010004032
:101C5000704770B5040004D094F83D00002510B121
:101C600006E0012070BD84F83C50204600F022F8C8
:101C7000242084F83D002068C16821F40051C1602F
:101C8000204600F007FF2068016921F490410161BE
:101C90002068416921F02A0141612068C16841F44E
:101CA0000051C1602564202084F83D0084F83E0086
:101CB000002070BDF0B587B0044614216846FEF7D9
:101CC0002BFB1F4F236800221E49022403250726F1
:101CD0001D48BB4213D11B4B14331F6847F010073C
:101CE0001F601B6803F0100305930B6843F00103AA
:101CF0000B60096801F001010591690215E0134FBD
:101D0000BB421AD10F4B10331F6847F400371F60D6
:101D10001B6803F4003305930B6843F001030B6069
:101D2000096801F0010105910C21CDE9001402AB15
:101D3000694683E86400FEF771FE07B0F0BD00005D
:101D400000100140303802400000024000440040D2
:101D50002DE9F843044690F83D001F4616460D460F
:101D600020284CD1C5B1BEB194F83C00012846D022
:101D7000012084F83C004FF00008C4F84080212086
:101D800084F83D00FEF750FFA6848146E684A068F3
:101D9000B0F5805F03D004E00120BDE8F88320693E
:101DA00028B12E465FF0000584F83C800EE0002646
:101DB000FAE78021204600F0F3FEA0B9AEB116F894
:101DC000010B21684860E08C401EE084E08C4B46AB
:101DD0004FF0000200970028EBD14FF04001204661
:101DE00000F0DEFE30B10320D7E735F8020BC0F378
:101DF0000800E6E7202084F83D000020CDE702201F
:101E0000CBE7FEE710B50E4C012280212046FEF7FD
:101E100005FF012240212046FEF700FF00F046F8B2
:101E2000002280212046FEF7F9FE00F03FF8002254
:101E300040212046FEF7F2FEBDE8104000F036B823
:101E40000004024010B50A4C002280212046FEF713
:101E5000E5FE012240212046FEF7E0FE00F026F8D4
:101E600020460122BDE810408021FEF7D7BE0000C9
:101E70000004024010B50C4C012280212046FEF7E0
:101E8000CDFE00F013F8012240212046FEF7C6FEE9
:101E900000F00CF8002240212046FEF7BFFEBDE80E
:101EA000104000F003B80000000402400A20401E69
:101EB000C0B2FCD2704700002DE9F041104D0F4632
:101EC00006460024012210212846FEF7A7FE012223
:101ED00040212846FEF7A2FE0DE016B1012E02D0E9
:101EE00008E0102100E040212846FEF78FFE642024
:101EF000FEF782FD641CB4EB470FEEDBBDE8F0811A
:101F0000000802407FB50024204800940194029408
:101F10001D490394016001254FF480310561C0E93A
:101F20000114047680F820401949C0E90A140326F8
:101F3000C661C46080F830404561FEF7ADFB08B172
:101F4000FEF701FBCDE90045694610480294FEF713
:101F5000FDFA08B1FEF7F7FA0224CDE9005469460C
:101F60000A480295FEF7F2FA08B1FEF7ECFA0420EF
:101F7000CDE90006694602940448FEF7E7FA002816
:101F800001D0FEF7E0FA7FBD00200140A000002054
:101F90000100000F094808B5016841F480010160A3
:101FA0000068002200F48000009005213820FEF730
:101FB000E1FFBDE808403820FEF7CEBF30380240D0
:101FC00010B5044A0021044800F020FF03490860CE
:101FD00010BD0000604500085527000800000020E3
:101FE00030B587B014216846FEF796F919480024E9
:101FF000016841F080010160016801F080010591F4
:10200000016841F004010160016801F004010591DB
:10201000016841F001010160016801F001010591D1
:10202000016841F00201016000680B4D00F0020000
:10203000059000225F212846FEF7F0FD5F2000900A
:102040000120CDE90104694628460394FEF7E6FC29
:1020500007B030BD30380240000802400D4810B5CE
:102060000B4901600C49416000214FF480428160BE
:10207000C0E9031241618161C1610162FEF7DAFDCD
:10208000002803D0BDE81040FEF75DBA10BD000087
:102090000054004048010020A08601000D4810B502
:1020A0000B4901600C49416000214FF4804281607E
:1020B000C0E9031241618161C1610162FEF7BAFDAD
:1020C000002803D0BDE81040FEF73DBA10BD000067
:1020D000005800409C010020A086010010B592B07D
:1020E00000240F941C2108A81094FEF715F9202154
:1020F0006846FEF711F91F481D49C0E900144FF664
:10210000FF71C0E90241046144618461FFF7EEFCA4
:1021100008B1FEF718FA0F940FA916481094FFF7AC
:1021200047FA08B1FEF70FFA089409940A940B9441
:102130000C940D94002208A90E480E94FFF7ACFCF5
:1021400008B1FEF700FA00944FF40050CDE90440C6
:10215000029401940394694606480794FFF7FEF938
:1021600008B1FEF7F0F90348FFF76CFC12B010BDA0
:1021700000000140F001002010B58CB02421684619
:10218000FEF7CAF80024144809944FF080410A94DD
:10219000C0E90014611EC0E90241046184610120AC
:1021A000CDE90004CDE902040494CDE9054007948B
:1021B000694609480894FFF7B1FA08B1FEF7C3F978
:1021C000099409A904480A94FFF7F2F9002801D0FC
:1021D000FEF7B9F90CB010BD380200200C4810B55C
:1021E0000A4901604FF4E1314160002181600C2215
:1021F000C160C0E904128161C161FFF72AFD0028B6
:1022000003D0BDE81040FEF79EB910BD001001409C
:10221000800200200C4810B50A4901604FF4E131FA
:102220004160002181600C22C160C0E9041281611B
:10223000C161FFF70EFD002803D0BDE81040FEF796
:1022400082B910BD00440040C4020020FEE7FEE752
:1022500030B40021084B0A465FF0000003EB001485
:10226000401CC0B262545028F8D3491CC9B210298E
:10227000F2D330BC00F010B9244C00202DE9FE4F01
:102280004FF000084646802801D37F200AE0802ACC
:1022900001D37F2206E0402901D33F2102E0402BF9
:1022A00000D33F23994205D90446104622460C46E6
:1022B00019462346CDE90010141A5D1A4FF0FF307D
:1022C000002C02DD4FF0010102E003D14FF00001CC
:1022D0008B4602E08346C4F10004002D02DD4FF07E
:1022E000010002E003D14FF00000824602E0824686
:1022F000C4F10005AC4201DD274600E02F46781C02
:102300004FF00009029019E000980C9AC1B20198B0
:10231000C0B200F019F8A0442E44B84504DD01987D
:10232000A8EB070858440190BE4203DD0098F61B55
:102330005044009009F101001FFA80F90299894583
:10234000E2DBBDE8FE8F000030B5CC0801F00703EA
:1023500001259D40EBB2064D05EB0015C808285C31
:102360000AB1184302E063EA0000C043285530BDBB
:10237000244C0020F0B5464887B0016841F00201C6
:1023800001600068032500F0020005908020112400
:10239000012603958DE851003E4F69463846FEF709
:1023A0003DFB402003958DE8510069463846FEF715
:1023B00035FB3220FEF720FB0021AE2000F030F983
:1023C0000021084600F02CF90021102000F028F927
:1023D0000021202000F024F90021812000F020F9C4
:1023E00000216F2000F01CF90021A12000F018F955
:1023F0000021C02000F014F90021A42000F010F901
:102400000021A62000F00CF90021D52000F008F9E9
:102410000021912000F004F90021D92000F000F9FA
:102420000021222000F0FCF80021DB2000F0F8F869
:1024300000213F2000F0F4F80021A82000F0F0F87F
:1024400000214F2000F0ECF80021D32000F0E8F844
:102450000021682000F0E4F80021DC2000F0E0F822
:102460000021084600F0DCF80021AD2000F0D8F88B
:1024700000218A2000F0D4F8FFF7EAFE0021AF2007
:1024800000F0CEF81420FEF7B7FA07B0F0BD000058
:10249000303802400004024070B5184E002400BFDE
:1024A00004F1B000C0B2002100F0BAF800210846E3
:1024B00000F0B6F80021102000F0B2F8FFF7A2FCFF
:1024C000782000F023F9FFF7D5FC402000F01EF93A
:1024D000FFF7D0FC5FF0000506EB0510005D00F093
:1024E00015F9FFF7C7FC6D1CEDB2502DF4D3FFF7C3
:1024F000A9FC641CE4B2102CD2D370BD244C002083
:102500002DE9FC4F1C460D4682468B460190082B58
:102510000ED0600700D0012000EBD400610810FB52
:1025200001F0C0B28146203AD0B2009000204AE0CB
:102530000620F7E7082C12D00C2C17D0102C1AD03C
:10254000182C43D10098234900EBC00001EB800117
:10255000002711F80860F00712D00B9A13E00098DA
:102560001D4900EB400001EB4001F1E700981B49D9
:1025700000EB4000EAE71A49009801EB0011E7E799
:102580000B9828B3002251462846FFF7DDFE6D1C4C
:102590007F1C7608FFB2EDB2102FDCD30AF10100E8
:1025A00000F0FF0A082C0AD00199AAEB0100B0EB59
:1025B000540F04D10BF108008A4600F0FF0B08F11C
:1025C00001005D46C0B280464845B3D3BDE8FC8FEC
:1025D0000122D8E730520008A4450008CC47000883
:1025E000404C00082DE9F8411E4615468846044631
:1025F000079F0BE03346414620460097FFF780FFD8
:10260000082E0AD004EB5600C4B26D1C2A78A2F141
:1026100020005E28EED9BDE8F881A41DE4B2F4E7FD
:1026200070B50C460546FFF7EDFB782000F06EF81C
:10263000FFF720FC0CB1402000E0002000F066F81D
:10264000FFF718FC284600F061F8FFF713FCBDE81F
:102650007040FFF7F7BB000038B5012400211823B4
:1026600023A208460094FFF7BDFF40231A22194613
:1026700000200094FFF702FE40231B221946012090
:102680000094FFF7FBFD0023502219461A20009406
:10269000FFF7F4FD0123502219461A200094FFF79A
:1026A000EDFD102314A21C2104200094FFF79AFFD3
:1026B000102312A21C2140200094FFF793FF102347
:1026C0000FA22E2104200094FFF78CFF10230DA2EF
:1026D0003E2104200094FFF785FF10230AA20A215F
:1026E00076200094FFF77EFFBDE83840FFF7D4BEA8
:1026F0004379626572000000503A000041503A0090
:10270000563A0000433A00005600000070B5104EE3
:1027100005460024280601D5012200E00022802180
:102720003046FEF77BFAFFF7C1FB0122402130461D
:10273000FEF774FAFFF7BAFB002240213046FEF79D
:102740006DFA6806641C050EE4B2082CE2D370BD75
:1027500000040240FFF780FF642000F01BFBFBE752
:1027600010B54FF0E020006901F044FD012803D0CE
:10277000BDE8104001F072BA10BD000030B593B052
:1027800030216846FDF7C8FD14210CA8FDF7C4FDF3
:102790001D480025016841F080510160006800F08B
:1027A000805011901948016841F48041016000682F
:1027B000022400F480401190012000900004019058
:1027C0008001CDE9064008AA0420A82182E8130070
:1027D0000B906846FEF70AFD08B172B6FEE70CA939
:1027E0000F2081E831004FF4A0500F904FF480503B
:1027F000109005210CA8FEF7EFFB002801D072B65F
:10280000FEE713B030BD00004038024000700040C9
:102810000248016841F470010160704788ED00E0F2
:102820000148FFF75BB8000008030020F0B502681C
:10283000254C264D264E274F274B4FF0804CA0426B
:1028400009D0604507D0A84205D0B04203D0B842B5
:1028500001D0984204D122F0700E4A6842EA0E027A
:10286000A0421BD0604519D0A84217D0B04215D065
:10287000B84213D0984211D0184DA8420ED0184D2E
:10288000A8420BD0174DA84208D0174DA84205D03A
:10289000164DA84202D0164DA84203D122F440752D
:1028A000CA682A434D6922F080022A4302608A687E
:1028B000C2620A688262A04201D0984201D10969CD
:1028C000016301214161F0BD0000014000040040AE
:1028D00000080040000C004000040140004001409E
:1028E000004401400048014000180040001C004026
:1028F0000020004010B501F01F030121046A994037
:102900008C430462016A9A401143016210BD0000C9
:10291000F0B5026A22F001020262036A4268846929
:10292000124E24F073050C682C4323F002058B68CB
:102930002B430D4DA84201D0B04205D123F008072A
:10294000CB683B4323F00403A84201D0B04205D139
:102950004D6922F4407215438A692A4342608461BA
:10296000496841630362F0BD00000140000401407A
:10297000F0B5026A22F010020262026A43688469BA
:102980000D6824F4E64444EA05248D6822F0200210
:1029900042EA05120F4D104EA84201D0B04206D1B6
:1029A000CF6822F0800242EA071222F04002A842D9
:1029B00001D0B04207D14D6923F4406343EA850357
:1029C0008D6943EA850343608461496881630262DB
:1029D000F0BD00000000014000040140F0B5026AB3
:1029E00022F480720262026A4368C46922F40072AF
:1029F00024F073050C68124E2C438D6842EA0522C0
:102A00000E4DA84201D0B04206D1CF6822F4006238
:102A100042EA072222F48062A84201D0B04207D1E4
:102A20004D6923F4405343EA05138D6943EA0513C6
:102A30004360C4614968C1630262F0BD00000140A7
:102A40000004014030B5026A22F480520262046A36
:102A50004268C3690D6823F4E64343EA05238D68A1
:102A600024F4005444EA0534084DA84202D0084D2D
:102A7000A84204D14D6922F4804242EA85124260A4
:102A8000C36149680164046230BD00000000014078
:102A90000004014070B5044600680169E26821F451
:102AA0004051114301612169A068E26908436169ED
:102AB000114308432168CA6849F20C639A430243F0
:102AC000CA6020684169A26921F4407111434161E3
:102AD00031492068884202D03049884202D1FEF74D
:102AE00045FB01E0FEF732FBE26900231921642572
:102AF0003226B2F5004F626828D0A0FB0101930F87
:102B00009200FDF7BFFB0146B0FBF5F06FF0180235
:102B1000504301EB800006EB0010B0FBF5F000F035
:102B2000F002B1FBF5F002EB0012B1FBF5F06FF033
:102B30001803584301EB800006EB0010B0FBF5F0E2
:102B400000F00F0021681044886070BDA0FB0101F7
:102B500092185B41FDF796FB0146B0FBF5F00201D0
:102B6000B1FBF5F06FF01803584301EB800006EB62
:102B7000C000B0FBF5F000F0F80002EB4002B1FB42
:102B8000F5F0584301EB800006EBC000B0FBF5F018
:102B900000F00700D6E700000010014000140140DB
:102BA0002DE9F041984617460E460446069D27E05B
:102BB000681C25D02DB1FEF737F8A0EB0800A8421D
:102BC0001ED920680C3050E8001F21F4D07140E875
:102BD0000012002AF5D12068143050E8001F21F0BF
:102BE000010140E80012002AF5D1202084F83D00C0
:102BF00084F83E00002084F83C000320BDE8F0810A
:102C00002068006836EA000004D00020B842CFD027
:102C10000020F3E70120F9E710B505A000F042F825
:102C20000AA000F03FF8BDE810400DA000F03AB84F
:102C300053797374656D20496E697469616C697A42
:102C40006174696F6E2E2E2E0A000000555341529A
:102C50005420446973706C61792E2E2E0A00000096
:102C600048656C6C6F20576F726C64210A0000001D
:102C7000FEE7000010B53C210748FEF7E7FD0649D6
:102C800042F2107009684862044800219FED040A6E
:102C9000016080ED010A10BD380200209400002080
:102CA00000000000014A024900F023B8152D000879
:102CB0009C0000200907090E002804DB00F1E02039
:102CC00080F80014704700F00F0000F1E02080F859
:102CD000141D704702E008C8121F08C1002AFAD16B
:102CE00070477047002001E001C1121F002AFBD18C
:102CF00070472DE9F04116460F460446002503E0D3
:102D00003946B047641C6D1C20780028F8D128464D
:102D1000BDE8F08113B54FF6FF7301226946024802
:102D2000FFF716F800981CBDC4020020FEF7A4F8B7
:102D3000FFF724FDFFF754F9FFF72CF9FFF7E2F84E
:102D4000FFF78CF9FFF7AAF9FFF7C8F9FFF714FAB4
:102D5000FFF744FAFFF75EFAFFF78CFF00210C48FB
:102D6000FEF708FFFFF706FBFFF776FC05210020C2
:102D7000FFF7A2F805210120FFF79EF8FFF74CFFAF
:102D800000F016F8FFF71CF900F024F8FEE7000049
:102D9000F001002010B5EFF3058111B16FF00504CB
:102DA00003E0002408B100F0F9FD204610BD00004A
:102DB000EFF3058010B16FF005007047044801681B
:102DC00011B14FF0FF3070470121016000207047C2
:102DD0006400002010B5EFF3058010B16FF005001E
:102DE00010BD08480168012902D04FF0FF3010BD26
:102DF000054A002182F8141D0221016000F036FE10
:102E0000002010BD640000200BE000E02DE9FF4130
:102E10004FEA01034FF00005EFF30581039549BB2D
:102E200040B38027182100244AB3166806B13446FF
:102E300096691EB13146761E382E02D21679F607F3
:102E400003D0002004B0BDE8F081566906B1B70890
:102E5000D2F808C0BCF1000F0DD0D5685C2D18D396
:102E600012693AB136B18DE806103A46214601F0B2
:102E700096F903900DE0D6685EB912694AB903AAC3
:102E8000CDE90012BAB2214601F05CF9012800D068
:102E900003950398D6E700002DE9F041134C0F4647
:102EA0000546E6682068001D00F044FC681C07D158
:102EB00037B12168BDE8F0410D48091D00F08ABC1A
:102EC00020683544B5424560216805D2A06BBDE855
:102ED000F041091D00F066BC606B091D00F062FC4A
:102EE000A06A854200D2A562BDE8F08114000020EE
:102EF000400800202DE9F041054600F077FC2D4CFC
:102F0000A068401CA06020682B4F10B1606930B3EE
:102F10002BE02560A068012827D1002606EB86005B
:102F200007EB800000F030FC761C382EF6D32348E7
:102F300000F02AFC2148143000F026FC1F482830FD
:102F400000F022FC1D483C3000F01EFC1B485030B5
:102F500000F01AFC194860631430A06305E0206893
:102F6000E96AC06A884200D82560606A401C6062D5
:102F70006864E86A2169884200D9206100EB80001A
:102F800007EB8000291D00F025FC00F04FFC606974
:102F900000280CD02068E96AC06A884207D2084934
:102FA0004FF080500860BFF34F8FBFF36F8FBDE8C5
:102FB000F08100001400002090030020F0070020A2
:102FC00004ED00E038B500F011FC104C2068C8B9E1
:102FD0000F4800F0D9FB0E48143000F0D5FB0C4828
:102FE000E060143020610A4B0020F03B009003F1B8
:102FF000500210210A2000F047FE206010B105A108
:1030000000F096FCBDE8384000F010BC50000020F5
:1030100044090020546D72510000000030B4026C6D
:103020000B46002A0BD0C1681144C1608468A142DC
:1030300001D30168C16030BC1846FDF754B930BCFB
:1030400070472DE9F041856B174604460026026C57
:1030500082B1C7B1E068FDF746F9E168206C091A52
:10306000E1602268914202D2A168081AE060022F52
:1030700016D017E02068A8B9A06801F033F9064619
:103080000020A0600EE06068FDF72DF9216C6068FB
:1030900008446060A168884204D32068606001E051
:1030A00005B16D1E6D1CA5633046BDE8F08110B5FD
:1030B000044690F8590058B101280CD002280FD0CE
:1030C000502080F31188BFF34F8FBFF36F8FFEE75F
:1030D000206B00F0BFFB2046BDE8104000F0BABBFB
:1030E00010BD000010484FF47051420706D0C01DBB
:1030F0000D4920F00700411AC1F570510B4A002319
:103100000144C2E900030839183A21F007011160AF
:103110004B600B600B1AC0E9001393604FF0004046
:103120005360506170470000241000208000002090
:10313000144E154CA6F29C474FF08058DFF84C9087
:1031400012E000BF00F052FBF068C568281D00F0D7
:10315000F1FAA068401EA0606068401E606000F048
:1031600065FB2846FFF7A3FF60680028EAD13868AE
:103170000128F9D9C9F80080BFF34F8FBFF36F8FD3
:10318000F2E700002C0800201400002004ED00E00D
:1031900070B51D46049C51B1C4F80020C4E90F016C
:1031A0000121204600F0A4FD84F84C5070BD24603D
:1031B000F4E700002DE9F05F8846DDE90B94154641
:1031C000834691009A460A9EA522206BFDF79DF842
:1031D0006FF00301206B01EB8501084420F0070725
:1031E000780707D0502080F31188BFF34F8FBFF3CB
:1031F0006F8FFEE70025B8F1000F0FD05FF00000E1
:10320000221818F8001082F8341018F8001011B1C4
:10321000401C1028F4D384F8435001E084F8345063
:10322000382E00D33726E662C4E91365201D00F06E
:10323000B6FA04F1180000F0B2FA2461C6F13800C1
:103240006462A061656584F8585052465946384614
:1032500000F05AFA2060B9F1000F01D0C9F800401F
:10326000BDE8F09F30B5114900E011460A6882427E
:10327000FBD34B685C18844203D140681844486013
:10328000084643681C18944209D1084C183C24682D
:10329000A24209D052681A4442600A681268026069
:1032A000814200D0086030BD0460F9E78000002052
:1032B00070B5002441600B4D0061914206D8D11ACF
:1032C0008269914206D2011D286907E09A4203D221
:1032D000994201D3012403E0011DE86800F062FA7D
:1032E000204670BD5000002010B5044600F07EFA64
:1032F000A06B28B15FF0000400F098FA204610BDE2
:103300000124F9E730B589B03C4D6EE004980028FF
:1033100006DADDE90601059A90470498002864DB87
:10332000069C606910B1201D00F004FA03A800F0AB
:10333000D7F8024604980A2857D2DFE800F00505BE
:10334000052D334A05052D3394F8280040F001007F
:1033500084F828000599A069059B01442046FFF7E1
:10336000A7FF68B3216A2046884794F828004007E1
:103370003BD5002000900598A1690023421819460A
:10338000204601F0B9F8D8B9502080F31188BFF376
:103390004F8FBFF36F8FFEE714F8280F20F0010066
:1033A000207022E094F8280040F0010084F8280002
:1033B0000598A06128B1811813462046FFF778FFD1
:1033C00013E0502080F31188BFF34F8FBFF36F8F4E
:1033D000FEE794F82800810703D4204600F03AFA6B
:1033E00003E020F0010084F82800002204A92868E6
:1033F00000F0D2FD002889D109B030BD5000002076
:103400002DE9FC410F46054600F074FB01A800F0D1
:1034100067F80446019818B100F0DCFFBDE8FC81B4
:10342000254EAFB130690068D0B30027291B3A465A
:10343000306800F091FA00F0CDFF0028EED11F496E
:103440004FF080500860BFF34F8FBFF36F8FE5E7F9
:10345000A542EBD800F0BEFFF0682746C068C468FC
:10346000201D00F067F994F82800410719D5A069DC
:103470002B4641193A462046FFF71AFFA8B1002013
:103480000346014600902A46204601F035F860B90F
:10349000502080F31188BFF34F8FBFF36F8FFEE78B
:1034A00007E020F0010084F82800216A20468847C0
:1034B000B4E70127BAE700005000002004ED00E067
:1034C0000648416B096829B1416BC968C9684968F8
:1034D000816270474FF0FF31FAE7000014000020CE
:1034E00070B5054600F094FE064E0446B06884426E
:1034F00003D200F009F8012000E0002028602046F7
:10350000B46070BD50000020F8B5194D20E0C068CF
:10351000C4680668201D00F00DF9216A204688471E
:1035200094F82800400713D5A0693044B04206D96A
:1035300024616060211DE86800F034F908E0002093
:103540000346014600903246204600F0D5FF38B1D0
:10355000E86801680029DAD12969C5E90310F8BDD6
:10356000502080F31188BFF34F8FBFF36F8FFEE7BA
:103570005000002008484068401C4FF0500080F385
:10358000118804D0BFF34F8FBFF36F8FFEE7BFF3F7
:103590004F8FBFF36F8FFEE788000020074CE06875
:1035A000016841B1C0680021D0F80000FFF728FF92
:1035B000FFF7A8FEF3E701210020F7E75000002005
:1035C0002DE9F041044600F011F994F9455004F159
:1035D000240609E0606A48B1304600F0C3FE08B135
:1035E00000F00AFA6D1E6DB2002DF3DC4FF0FF36CD
:1035F00084F8456000F01AF900F0F8F894F94450A6
:1036000004F1100709E0206948B1384600F0AAFE2D
:1036100008B100F0F1F96D1E6DB2002DF3DC84F8F5
:103620004460BDE8F04100F001B900002DE9F0412F
:103630000546002700F05EFA324E306808B9FFF701
:1036400051FD706905424ED1C5B3083568070ED0EB
:1036500005F00700C0F108000544680707D05020B6
:1036600080F31188BFF34F8FBFF36F8FFEE72DB349
:103670007068854237D82348183001460C6801E04D
:1036800020460C466168A94202D221680029F7D180
:1036900031688C4227D0076821680160606808376C
:1036A000411B10290FD96019420708D0502080F320
:1036B0001188BFF34F8FBFF36F8FFEE713E04160B8
:1036C0006560FFF7CFFD61687068401A7060B2688E
:1036D000904200D2B060706901430020C4E900014B
:1036E000F068401CF06000F075FE780707D05020AD
:1036F00080F31188BFF34F8FBFF36F8FFEE738461B
:10370000BDE8F0816800002010B5031F4FF0807401
:103710001C601B1F21F001011960191F044B0B6075
:1037200014390A60091F6FF0020244380A6010BDA4
:1037300075350008D0E9013201699A60D0E90123AA
:103740005A604A68824201D182684A60002202615E
:103750000868401E0860086870470000034B03605B
:1037600003F15C0008608020106070476C09002045
:10377000044B036003F15C0008604FF4807010603C
:1037800070470000C80B002000F108014FF0FF3225
:10379000C0E90112C1600161002101607047002190
:1037A0000161704730B50B685A1C02D000F1080265
:1037B00002E0026904E02246546825689D42FAD975
:1037C00053684B6099608A60516008610168491CC8
:1037D000016030BD42684A6093688B6093685960AD
:1037E000916008610168491C01607047502080F3B6
:1037F0001188BFF34F8FBFF36F8F0A494868401C91
:10380000486001280CD10848006810F0FF0F07D06D
:10381000502080F31188BFF34F8FBFF36F8FFEE707
:10382000704700008800002004ED00E00849486867
:1038300028B1401E486001D180F3118870475020A4
:1038400080F31188BFF34F8FBFF36F8FFEE7000047
:103850008800002070B500282AD0164DA0F1080479
:1038600060686969084207D1502080F31188BFF36E
:103870004F8FBFF36F8FFEE722683AB1502080F37D
:103880001188BFF34F8FBFF36F8FFEE788436060EF
:1038900000F030F960686968084468602046FFF706
:1038A000E1FC2869401C2861BDE8704000F092BD31
:1038B00070BD0000680000204FF0E0200021016191
:1038C000816105494FF47A720968B1FBF2F1491E32
:1038D00041610721016170471000002010B5FCF71D
:1038E000BBFC114910280ED300F1E02090F8F00342
:1038F0000A78904207D2502080F31188BFF34F8F8F
:10390000BFF36F8FFEE709480068896800F4E06044
:10391000884207D9502080F31188BFF34F8FBFF33F
:103920006F8FFEE710BD0000880000200CED00E066
:1039300010B5084B002200BF53F832401CB1521C96
:10394000082AF9D310BD43F8321003EBC2014860D6
:1039500010BD00005003002070B515460E46044609
:10396000FFF744FF94F944100020491C01D184F86A
:10397000440094F94510491C01D184F84500FFF733
:1039800055FFA06B28B92A46314604F1240000F007
:1039900051F82046BDE87040FFF712BE10B5020096
:1039A00014D00F48006B38B1502080F31188BFF35A
:1039B0004F8FBFF36F8FFEE700F09CF80021104699
:1039C000FFF76AFA00F006FD002807D105494FF01D
:1039D00080500860BFF34F8FBFF36F8F10BD0000A2
:1039E0001400002004ED00E002490A6A0260C96880
:1039F000416070471400002001490120C8617047F0
:103A00001400002010B50C4650B10949096818315E
:103A1000FFF7C8FE2046BDE810400121FFF73CBA81
:103A2000502080F31188BFF34F8FBFF36F8FFEE7F5
:103A30001400002070B514460D4668B10A490968A3
:103A40001831FFF7C7FE0CB14FF0FF35214628466D
:103A5000BDE87040FFF720BA502080F31188BFF313
:103A60004F8FBFF36F8FFEE71400002030B587B093
:103A70000024039405AA04A903A80494FFF76EFE8A
:103A8000DDE903010094CDE90110002315A11748D9
:103A9000059A00F084FB164D0028E8621FD000F064
:103AA000FBFC012809D0401C19D1502080F311885B
:103AB000BFF34F8FBFF36F8FFEE7502080F3118865
:103AC000BFF34F8FBFF36F8F4FF0FF30A86201201D
:103AD0006861EC6007B0BDE8304000F045B807B061
:103AE00030BD000049444C45000000003131000861
:103AF000140000200248016B491C0163704700005C
:103B000014000020164810B5016B11B10121C161EC
:103B100010BD0021C1610169124A01E0B9B1491E1D
:103B200001EB810352F82330002BF7D001EB810326
:103B300002EB830202F1080453685B685360A342FE
:103B400001D15B685360DA680260016110BD5020EA
:103B500080F31188BFF34F8FBFF36F8FFEE7000034
:103B600014000020900300201CB537480168374A34
:103B7000914207D1502080F31188BFF34F8FBFF3DC
:103B80006F8FFEE700683149491E884207D15020F7
:103B900080F31188BFF34F8FBFF36F8FFEE72C497F
:103BA00008780190FF20087008788DF800009DF8D3
:103BB00000009DF8002000F0F000904207D0502057
:103BC00080F31188BFF34F8FBFF36F8FFEE79DF82F
:103BD0000000204C00F0500020700720A06005E09D
:103BE0009DF8002052008DF80020401E9DF8002016
:103BF0001206F5D4A060032807D0502080F3118866
:103C0000BFF34F8FBFF36F8FFEE74FF44070A0609C
:103C1000019808700C482030016841F4700101607F
:103C2000016841F070410160FFF746FE00206060CE
:103C3000FCF7DAFA0848016841F040410160FCF7FE
:103C4000BFFA00201CBD000000ED00E071C20F4172
:103C500000E400E08800002034EF00E010B55020C0
:103C600080F31188BFF34F8FBFF36F8F00F0D6FA48
:103C700018B104494FF080500860002080F311888B
:103C800010BD000004ED00E038B5049D18B153B13B
:103C9000CAB181B120E0502080F31188BFF34F8F6B
:103CA000BFF36F8FFEE7502080F31188BFF34F8F73
:103CB000BFF36F8FFEE7502080F31188BFF34F8F63
:103CC000BFF36F8FFEE739B1502080F31188BFF347
:103CD0004F8FBFF36F8FFEE750241C46012384F8FB
:103CE00046302B460094FFF753FA204638BD0000BB
:103CF00070B50D46040025D0FFF778FDD4E90F20FC
:103D0000216802FB0011A1600021A16321686160AC
:103D10000A46D4E90F01401E00FB0121E160214663
:103D20004FF0FF3001F8440F487004F110008DB1DE
:103D3000FFF72AFD04F12400FFF726FDFFF776FDCB
:103D4000012070BD502080F31188BFF34F8FBFF367
:103D50006F8FFEE721690029F0D000F003FB0028F7
:103D6000ECD004494FF080500860BFF34F8FBFF391
:103D70006F8FE3E704ED00E02DE9FF4782B01D46B9
:103D80008A464FF00008040003D0BAF1000F08D0B3
:103D900011E0502080F31188BFF34F8FBFF36F8F76
:103DA000FEE7206C38B1502080F31188BFF34F8FAD
:103DB000BFF36F8FFEE7022D0AD1E06B012807D019
:103DC000502080F31188BFF34F8FBFF36F8FFEE752
:103DD00000F010FA3F4F4FF000094FF0805648B9FD
:103DE000049838B1502080F31188BFF34F8FBFF390
:103DF0006F8FFEE7FFF7FAFCA06BE16B884207D3F9
:103E0000022D05D00498D0B1B8F1000F1AD01EE0F1
:103E10002A4651462046FFF714F9616A19B104F1A8
:103E2000240000F09FFA20B13E60BFF34F8FBFF334
:103E30006F8FFFF7FBFC012006B0BDE8F087FFF7AE
:103E4000F5FC22E06846FFF7CFFD4FF00108FFF7D1
:103E5000EDFCFFF74FFEFFF7C9FC94F94400401C4E
:103E600001D184F8449094F94500401C01D184F8B4
:103E70004590FFF7DBFC04A9684600F029F930B152
:103E80002046FFF79DFB00F0A5FA0020D4E7FFF7DE
:103E9000ADFCA06BE16B884213D1FFF7C7FC04F1C6
:103EA00010000499FFF7AEFD2046FFF789FB00F0F4
:103EB00091FA00289ED13E60BFF34F8FBFF36F8F02
:103EC00098E7FFF7B3FC2046FFF77AFB00F082FA91
:103ED00090E7000004ED00E02DE9F0471F46904612
:103EE0008946040003D0B9F1000F08D011E050203A
:103EF00080F31188BFF34F8FBFF36F8FFEE7206C05
:103F000038B1502080F31188BFF34F8FBFF36F8F0C
:103F1000FEE7022F0AD1E06B012807D0502080F382
:103F20001188BFF34F8FBFF36F8FFEE7FFF7D6FC0B
:103F30005020EFF3118680F31188BFF34F8FBFF34A
:103F40006F8FA06BE16B884206D3022F04D0002054
:103F500086F31188BDE8F08794F94550A06B3A4686
:103F600049462046FFF76DF8681C04D06D1C84F8A4
:103F700045500120ECE7606A0028FAD004F12400E3
:103F800000F0F0F90028F4D0B8F1000FF1D00121D1
:103F9000C8F80010EDE700002DE9F747002683B0D0
:103FA0008A46040003D0BAF1000F08D011E0502077
:103FB00080F31188BFF34F8FBFF36F8FFEE7206C44
:103FC00038B1502080F31188BFF34F8FBFF36F8F4C
:103FD000FEE700F00FF9DFF8F4804FF000094FF032
:103FE000805748B9059838B1502080F31188BFF345
:103FF0004F8FBFF36F8FFEE7FFF7F8FBA56BC5B1DF
:1040000051462046FFF70AF86D1EA563206950B19E
:1040100004F1100000F0A6F928B1C8F80070BFF351
:104020004F8FBFF36F8FFFF701FC012006B0BDE893
:10403000F087059808B11EB106E0FFF7F7FB27E00F
:104040006846FFF7D1FC0126FFF7F0FBFFF752FDB2
:10405000FFF7CCFB94F94400401C01D184F8449054
:1040600094F94500401C01D184F84590FFF7DEFB30
:1040700005A9684600F02CF8002820460AD0FFF772
:104080009FFA00F0A7F92046FFF72EF90028B3D0D9
:104090000020CBE7FFF728F990B104F1240005993F
:1040A000FFF7B0FC2046FFF78BFA00F093F90028E9
:1040B000A2D1C8F80070BFF34F8FBFF36F8F9BE79B
:1040C0002046FFF77DFA00F085F995E704ED00E062
:1040D0002DE9F0410C46050011D0C4B1FFF786FB75
:1040E000174BDA686E682068911B471C17D02F6841
:1040F0001B6A9F4219D0964217D8012410E0502025
:1041000080F31188BFF34F8FBFF36F8FFEE750200E
:1041100080F31188BFF34F8FBFF36F8FFEE700244A
:10412000FFF784FB2046BDE8F081884205D9401A9C
:1041300020602846FFF758FCF1E700202060DCE70C
:10414000140000202DE9FF5F8346DDE90E879946C4
:1041500016468A469000FFF769FA05001CD05C20DD
:10416000FFF764FA040014D00020256384F8590096
:10417000CDE90240CDE900874B46324651465846CC
:10418000FFF718F82046FEF7B5FE012004B0BDE8A1
:10419000F09F2846FFF75EFB4FF0FF30F6E7F0B5E3
:1041A00085B0DDE90B640A9DA6B1DCB15C27009700
:1041B0002663022684F85960002604AFCDE9024642
:1041C000CDE90057FEF7F6FF2046FEF793FE049870
:1041D00005B0F0BD502080F31188BFF34F8FBFF3BF
:1041E0006F8FFEE7502080F31188BFF34F8FBFF32E
:1041F0006F8FFEE70548416919B1006B18B10020C7
:104200007047012070470220704700001400002012
:104210000148C06870470000140000202DE9F041FB
:104220002E4C0027206B28B1A069401CA0613846A5
:10423000BDE8F081E668761CE66013D1606B00682B
:1042400038B1502080F31188BFF34F8FBFF36F8FC9
:10425000FEE7606BA16B6163A063206A401C206273
:10426000FFF72EF9A06ADFF87880864209D3606BE9
:104270000068A0B1606BC068C5686868864211D2EA
:10428000A0622068C06A00EB800158F82100012874
:1042900000D90127E0690028C9D00127C7E74FF0FE
:1042A000FF30EDE7281DFFF745FAA86A18B105F1C0
:1042B0001800FFF73FFAE86A2169884200D92061B7
:1042C00000EB800108EB8100291DFFF783FAE86A03
:1042D0002168C96A8842CAD30127C8E714000020B0
:1042E0009003002070B504004FF0000133D01B4D47
:1042F0002868844207D0502080F31188BFF34F8F85
:10430000BFF36F8FFEE7206D38B1401E2065E36C70
:10431000E26A9A421FD040B11DE0502080F311881C
:10432000BFF34F8FBFF36F8FFEE7201DFFF702FA39
:10433000E06CE062C0F13800A061E06A296988425F
:1043400000D92861064900EB800001EB8000211DA7
:10435000FFF740FA0121084670BD0000140000205C
:104360009003002070B5C068C46854B104F118000F
:104370000646FFF7DFF9144D286B50B1314613485C
:1043800015E0502080F31188BFF34F8FBFF36F8F7C
:10439000FEE7201DFFF7CEF9E06A2969884200D9BF
:1043A00028610B4900EB800001EB8000211DFFF725
:1043B00011FAE06A2968C96A884202D90120E861D5
:1043C00070BD002070BD00001400002018080020FF
:1043D000900300202DE9F0472C4D00242746286B40
:1043E00038B1FFF703FA286B401E2863286B40B1F1
:1043F00046E0502080F31188BFF34F8FBFF36F8FDB
:10440000FEE7A968224E0120D1B3A6F59169804646
:104410003068E0B1F068C46804F11800FFF78AF969
:10442000201DFFF787F9E06A2969884200D92861D1
:1044300000EB800109EB8100211DFFF7CBF9E06A59
:104440002968C96A8842E3D3C5F81C80E0E70CB14B
:10445000FFF736F8AC694CB14FEA0806FFF7DEFE0D
:1044600000B1EE61641EF9D10020A861E86938B19D
:104470000849012738070860BFF34F8FBFF36F8FDC
:10448000FFF7D4F93846BDE8F0870000140000209B
:104490001808002004ED00E010B586B0FEF792FD8C
:1044A000114C2068B8B100200390049005AA04A91B
:1044B00003A8FFF75DF9DDE9032102208DE807007D
:1044C00000230AA10B48059AFFF769FE606010B14E
:1044D00006B0012010BD502080F31188BFF34F8F2C
:1044E000BFF36F8FFEE7000050000020546D722074
:1044F000537663009D3500082DE9FF411E461346A3
:1045000002000A9D4FF0000016D0144C2768002FBF
:104510000FD0CDE900130292062917DAFFF76AFEE1
:1045200002284FF000030FD0002269462068FFF7F1
:1045300023FC04B0BDE8F081502080F31188BFF364
:104540004F8FBFF36F8FFEE72A46EEE70023324618
:1045500069463846FFF7C0FCEBE70000500000203A
:10456000D46300080000000000000000000000000C
:104570000000000000020000180000000000000021
:1045800000000000000610160006101600000000D3
:1045900000000000010203040607080900000000F3
:1045A000010203040000000000000000002F0000D2
:1045B00000000700070000147F147F1400242A7FE6
:1045C0002A12006264081323003649552250000065
:1045D0000503000000001C224100000041221C00D5
:1045E0000014083E08140008083E0808000000A057
:1045F0006000000808080808000060600000002053
:1046000010080402003E5149453E0000427F400030
:10461000004261514946002141454B3100181412B6
:104620007F10002745454539003C4A494930000183
:104630007109050300364949493600064949291ED2
:104640000000363600000000563600000008142234
:104650004100001414141414000041221408000234
:104660000151090600324959513E007C1211127C59
:10467000007F49494936003E41414122007F414186
:10468000221C007F49494941007F09090901003E78
:104690004149497A007F0808087F0000417F4100B6
:1046A000002040413F01007F08142241007F40402C
:1046B0004040007F020C027F007F0408107F003E14
:1046C0004141413E007F09090906003E4151215EFA
:1046D000007F091929460046494949310001017FF7
:1046E0000101003F4040403F001F2040201F003F8D
:1046F0004038403F0063140814630007087008073F
:1047000000615149454300007F41410000552A5551
:104710002A55000041417F000004020102040040CC
:1047200040404040000001020400002054545478EE
:10473000007F48444438003844444420003844440E
:10474000487F00385454541800087E0901020018AC
:10475000A4A4A47C007F080404780000447D4000E9
:10476000004080847D00007F102844000000417FCD
:104770004000007C04180478007C080404780038A9
:104780004444443800FC242424180018242418FC31
:10479000007C0804040800485454542000043F449A
:1047A0004020003C4040207C001C2040201C003C5D
:1047B0004030403C004428102844001CA0A0A07CAD
:1047C000004464544C4414141414141400000000E5
:1047D00000000000000000000000FC0000000000DD
:1047E00002000000000C020C0200000000000000AB
:1047F00090D0BCD0BC900003000300001824FE44FD
:104800008C000302070201001824D8B04C8000037A
:1048100000010201C038E438E00001020201020296
:10482000080600000000000000000000000000F882
:104830000402000000010204000204F80000000469
:10484000020100009060F86090000000010000008C
:104850002020FC20200000000100000000000000DB
:10486000000008060000000020202020200000009A
:104870000000000000000000000000020000000036
:104880000080601C0200040300000000F80404041F
:10489000F8000102020201000008FC000000000212
:1048A00003020000188444241800030202020200DC
:1048B00008042424D80001020202010040B088FC50
:1048C00080000000000302003C242424C4000102F4
:1048D00002020100F824242CC0000102020201009F
:1048E0000C04E41C0400000003000000D82424246D
:1048F000D80001020202010038444444F8000003D9
:104900000202010000001000000000000200000090
:104910000000200000000000060000000020508879
:1049200004020000000001029090909090000000AE
:104930000000000000020488502000020100000076
:104940001804C4241800000002000000F804E494D5
:10495000F80001020202020000E09CF08000020365
:104960000000030204FC2424D80002030202010018
:10497000F80404040C0001020202010004FC040417
:10498000F80002030202010004FC24740C0002037C
:104990000202030004FC24740C0002030200000065
:1049A000F0080444CC4000010202010004FC202075
:1049B000FC040203000003020404FC0404000202DD
:1049C00003020200000404FC0404060404030000C3
:1049D00004FC24D00C0402030200030204FC0400C3
:1049E0000000020302020203FC3CC03CFC00030086
:1049F0000300030004FC30C4FC04020302000300B3
:104A0000F8040404F80001020202010004FC24245A
:104A10001800020302000000F8848404F800010278
:104A20000207050004FC246498000203020003024C
:104A3000182424448C000302020201000C04FC042C
:104A40000C0000020302000004FC0000FC04000152
:104A500002020100047C80E01C040000030000004E
:104A60001CE03CE01C00000300030000049C609C70
:104A70000400020300030200041CE01C0400000206
:104A8000030200000C84641C040002030202030001
:104A90000000FE020200000007040400000E30C007
:104AA0000000000000010200000202FE00000004FD
:104AB00004070000000402040000000000000000E1
:104AC00000000000000008080808080800000200B4
:104AD00000000000000000000040A0A0C000000195
:104AE0000202030204FC2020C000000302020100B5
:104AF00000C02020600000010202020000C020244B
:104B0000FC0000010202030200C0A0A0C0000001DE
:104B1000020202000020F824240400020302020022
:104B20000040A0A0602000070A0A0A0404FC20201C
:104B3000C0000203020003020020E40000000002A3
:104B400003020000000020E400000808080700003D
:104B500004FC80E020200203020003020404FC00A5
:104B60000000020203020200E020E020C000030077
:104B70000300030020E02020C00002030200030223
:104B800000C02020C00000010202010020E020201F
:104B9000C000080F0A02010000C02020E000000150
:104BA000020A0F0820E0402020000203020000005B
:104BB0000060A0A020000002020203000020F820F4
:104BC000000000000102020020E00020E0000001DF
:104BD0000202030220E020806020000003010000A8
:104BE0006080E080600000030003000020608060BF
:104BF000200002030003020020E02080602008085B
:104C0000070100000020A060200000020302020053
:104C1000000020DE0200000000070400000000FF8A
:104C200000000000000F00000002DE200000000471
:104C3000070000000201020404020000000000005E
:104C40000000000000000000000000000000000064
:104C5000000000F8000000000000003330000000F9
:104C600000100C06100C0600000000000000000000
:104C700040C07840C0784000043F04043F04040072
:104C8000007088FC08300000001820FF211E000082
:104C9000F008F000E018000000211C031E211E0097
:104CA00000F00888700000001E212324192721101D
:104CB00010160E00000000000000000000000000C0
:104CC000000000E018040200000000071820400067
:104CD00000020418E0000000004020180700000057
:104CE000404080F0804040000202010F01020200BB
:104CF000000000F0000000000101011F010101009F
:104D0000000000000000000080B070000000000003
:104D1000000000000000000000010101010101018C
:104D20000000000000000000003030000000000023
:104D300000000000806018040060180601000000F8
:104D400000E010080810E000000F102020100F00F5
:104D5000001010F8000000000020203F202000007C
:104D600000700808088870000030282422213000D4
:104D700000300888884830000018202020110E00DC
:104D80000000C02010F8000000070424243F240085
:104D900000F80888880808000019212020110E005A
:104DA00000E0108888180000000F112020110E006C
:104DB00000380808C83808000000003F0000000064
:104DC0000070880808887000001C222121221C0025
:104DD00000E010080810E0000000312222110F004E
:104DE000000000C0C00000000000003030000000E3
:104DF0000000008000000000000080600000000053
:104E0000000080402010080000010204081020006B
:104E100040404040404040000404040404040400B6
:104E2000000810204080000000201008040201004B
:104E3000007048080808F00000000030360100004B
:104E4000C030C828E810E0000718272423140B00FE
:104E50000000C038E0000000203C23020227382078
:104E600008F8888888700000203F202020110E005C
:104E7000C030080808083800071820202010080053
:104E800008F808080810E000203F202020100F003C
:104E900008F88888E8081000203F20202320180008
:104EA00008F88888E8081000203F20000300000070
:104EB000C03008080838000007182020221E020011
:104EC00008F808000008F808203F210101213F20D0
:104ED000000808F8080800000020203F20200000FB
:104EE00000000808F8080800C08080807F000000EB
:104EF00008F888C028180800203F20012638200024
:104F000008F8080000000000203F2020202030008A
:104F100008F8F800F8F80800203F003F003F2000A4
:104F200008F830C00008F808203F200007183F00AC
:104F3000E01008080810E0000F10202020100F00DB
:104F400008F808080808F000203F210101010000CE
:104F5000E01008080810E0000F18242438504F0013
:104F600008F8888888887000203F2000030C3020D3
:104F700000708808080838000038202121221C0011
:104F8000180808F8080818000000203F200000005A
:104F900008F808000008F808001F202020201F0043
:104FA0000878880000C83808000007380E010000A3
:104FB000F80800F80008F800033C0700073C03006D
:104FC000081868808068180820302C03032C3020D3
:104FD0000838C800C83808000000203F2000000042
:104FE00010080808C838080020382621202018009A
:104FF000000000FE020202000000007F404040006E
:10500000000C30C000000000000000010638C000A5
:1050100000020202FE000000004040407F0000004D
:105020000000040202020400000000000000000072
:105030000000000000000000808080808080808070
:105040000002020400000000000000000000000058
:1050500000008080808000000019242222223F204E
:1050600008F8008080000000003F112020110E0091
:105070000000008080800000000E11202020110020
:10508000000000808088F800000E112020103F20D2
:105090000000808080800000001F22222222130056
:1050A000008080F0888888180020203F20200000A1
:1050B0000000808080808000006B94949493600056
:1050C00008F8008080800000203F210000203F2061
:1050D00000809898000000000020203F2020000061
:1050E000000000809898000000C08080807F000051
:1050F00008F8000080808000203F24022D3020002E
:10510000000808F8000000000020203F20200000D8
:105110008080808080808000203F20003F20003FF2
:105120008080008080800000203F210000203F2000
:105130000000808080800000001F202020201F00B1
:10514000808000808000000080FFA12020110E00E0
:105150000000008080808000000E112020A0FF80D1
:10516000808080008080800020203F21200001007E
:1051700000008080808080000033242424241900D3
:10518000008080E0808000000000001F20200000E0
:105190008080000000808000001F202020103F2021
:1051A000808080000080808000010E3008060100B1
:1051B00080800080008080800F300C030C300F0056
:1051C00000808000808080000020312E0E31200081
:1051D000808080000080808080818E7018060100B1
:1051E00000808080808080000021302C22213000CF
:1051F00000000000807C020200000000003F4040F0
:1052000000000000FF00000000000000FF000000A0
:105210000002027C800000000040403F00000000CF
:10522000000601010202040400000000000000006A
:10523000000000000000000000000000000000006E
:10524000000000000000000000000000000000005E
:10525000000000000000000000F0F0F0000000007E
:105260000000000000017F010000000000000000BD
:10527000001C1C1C0000000000008060301C8C60C2
:10528000301C0C00000000000000000000000000C6
:10529000000000000000000000000000000000E02E
:1052A0000000000000E000000086E69F86868686FB
:1052B000E69F860000011F01010101011F0101009D
:1052C000000080C06020F820E0C00000000003075C
:1052D0000C18FF70E18100000000070F10107F1014
:1052E0000F0700008060206080000000E0200000C8
:1052F0000F3020309F70DC371030C0000000100EDF
:1053000003000718101807000000C02020E0C000AC
:105310000000000080E01F38E88703C43C04000060
:10532000070F1810100B070D1010080000808C4C90
:105330003800000000000000000000000000000035
:10534000000000000000000000000000000000005D
:1053500000000000000080E03008040000000000B1
:1053600000FEFF0100000000000000000000030F2D
:105370001820400000040830E08000000000000019
:105380000000000001FFFE000000000000402018A7
:105390000F03000000000000000000000000C0003B
:1053A00000000000004266663C18FF183C6666423A
:1053B00000000000000003000000000000000000EA
:1053C0000000800000000000001010101010FF10FE
:1053D000101010100000000000000300000000008A
:1053E00000000000000000000000000000000000BD
:1053F000000000000000000000808C4C380000001D
:10540000000000000000000000000000000000009C
:1054100000101010101010101010100000000000EC
:10542000000000000000000000000000000000007C
:10543000000000000000000000000000000000006C
:1054400000001C1C1C000000000000000000000008
:1054500000000000E0380C000000000080701C0319
:10546000000000000060380E010000000000000095
:10547000000080C060202060C080000000FEFF01AE
:105480000000000001FFFE000001070E18101018B8
:105490000E0701000000808080C0E00000000000D6
:1054A0000000000000FFFF000000000000001010DE
:1054B000101F1F10101000000080402020202060CE
:1054C000C080000000030300804020381F07000058
:1054D000001C1A1918181818181F00000080C02086
:1054E000202060C080000000000303001010182F6F
:1054F000E780000000070F10101010180F070000C1
:10550000000000000000C0E0F000000000C0B08813
:10551000868180FFFF808000000000000010101FC7
:105520001F1010000000E0606060606060600000BC
:1055300000003F1008080818F0E0000000070B10FA
:105540001010101C0F030000000080C0402020201D
:10555000E0C0000000FCFF211008080818F0E0007F
:105560000001070C18101010080F03000000C0E025
:105570006060606060E06000000003000000E01810
:105580000700000000000000001F1F0000000000D6
:105590000080C0602020202060C080000087EF2CA9
:1055A0001818303068CF830000070F081010101053
:1055B000180F07000000C0C020202020C08000007D
:1055C000001F3F604040402010FFFE0000000C1C08
:1055D000101010080F030000000000000000000081
:1055E0000000000000000000000E0E0E0000000091
:1055F00000000000001C1C1C000000000000000057
:10560000000000000000000000000000000C0C0082
:1056100000000000000000000058380000000000FA
:105620000000000000000080402010000000102852
:1056300044820100000000000000000000000102A0
:10564000040810000000000000000000000000003E
:105650000084848484848484848484000000000022
:10566000000000000000000000001020408000004A
:10567000000000000000000000000182442810002B
:1056800000001008040201000000000000C02020FB
:105690001010101030E0C0000003030000F01008EC
:1056A0000C070300000000001C1C1C000000000090
:1056B000000000C0406020202040C00000FCFF012E
:1056C000F00E03C1FE03807F0001070E08111110C8
:1056D000110904020000000080E0E000000000006A
:1056E0000000807C4340477FF880000010181F10A6
:1056F00000000000131F1C1020E0E020202020608C
:10570000C080000000FFFF10101010182FE780006D
:10571000101F1F1010101010180F0700000080C07D
:10572000402020202060E00000FCFF01000000007D
:10573000000001000001070E1810101008040300FB
:1057400020E0E02020202040C080000000FFFF007B
:105750000000000001FFFE00101F1F1010101808AD
:105760000E07010020E0E0202020202020608000A3
:1057700000FFFF101010107C00000000101F1F1011
:10578000101010101018060020E0E020202020202B
:105790006060800000FFFF101010107C000001000E
:1057A000101F1F100000000000000000000080C05B
:1057B0006020202040E0000000FCFF01000040408D
:1057C000C0C140400001070E181010100F0F00005C
:1057D00020E0E0200000000020E0E02000FFFF10BB
:1057E0001010101010FFFF00101F1F10000000000D
:1057F000101F1F100000202020E0E02020200000CB
:105800000000000000FFFF0000000000000010107A
:10581000101F1F101010000000000000202020E0CA
:10582000E020202000000000000000FFFF0000003A
:105830000060E0808080C07F3F00000020E0E0202A
:10584000000020A06020200000FFFF30187CE3C093
:1058500000000000101F1F10000001131F1C181073
:1058600020E0E020000000000000000000FFFF003A
:105870000000000000000000101F1F10101010108A
:105880001018060020E0E0E000000000E0E0E0206A
:1058900000FF013FFEC0E01E01FFFF00101F1000CF
:1058A000031F0300101F1F1020E0E0C000000000D5
:1058B0000020E02000FF0003071C78E08000FF00CC
:1058C000101F100000000000030F1F00000080C028
:1058D00060202060C080000000FEFF01000000008A
:1058E00000FFFE000001070E181010180C07010041
:1058F00020E0E0202020202060C0800000FFFF206A
:1059000020202020301F0F00101F1F10000000005B
:1059100000000000000080C060202060C080000007
:1059200000FEFF010000000000FFFE000001070E66
:105930001111133C7C67210020E0E0202020202072
:1059400060C0800000FFFF101030F0D0080F07008B
:10595000101F1F10000000030F1C10100080C060FB
:10596000202020204040E00000070F0C18183030A5
:1059700060E08100001F0C0810101010180F0700C5
:105980008060202020E0E0202020608001000000D6
:1059900000FFFF000000000100000000101F1F10AA
:1059A0000000000020E0E020000000000020E020D7
:1059B00000FFFF00000000000000FF0000070F18BC
:1059C00010101010100807002060E0E02000000018
:1059D00020E060200000077FF88000807C0300004A
:1059E00000000000071F1C070000000020E0E0206E
:1059F00000E0E0200020E0200007FFF8E01FFFFCAF
:105A0000E01F00000000031F0300011F030000004F
:105A1000002060E0A0000020E06020000000000303
:105A20008F7CF8C6010000000010181E130001173B
:105A30001F1810002060E0E02000000020E060203F
:105A4000000001073EF8E018070000000000001009
:105A5000101F1F101000000000806020202020A0D8
:105A6000E0E0200000000000C0F03E0F0300000056
:105A700000101C1F17101010101806000000000066
:105A800000FC0404040404000000000000FF000007
:105A90000000000000000000007F40404040400047
:105AA000000010E000000000000000000000000006
:105AB000031C6080000000000000000000000003E4
:105AC0000C70800000000404040404FC00000000CA
:105AD00000000000000000FF000000000000404047
