:020000040800F2
:10000000B058002061020008532900089F2300080F
:1000100051290008210A0008E53500080000000009
:10002000000000000000000000000000A101000826
:10003000AD0A000800000000FD0100085130000872
:100040007B0200087B0200087B0200087B0200089C
:100050007B0200087B0200087B0200087B0200088C
:100060007B0200087B0200087B0200087B0200087C
:100070007B0200087B0200087B0200087B0200086C
:100080007B0200087B0200087B0200087B0200085C
:100090007B0200087B0200087B0200087B0200084C
:1000A0007B0200087B0200087B0200087B0200083C
:1000B0007B0200087B0200087B0200087B0200082C
:1000C0007B0200087B0200087B0200087B0200081C
:1000D0007B0200087B0200087B0200087B0200080C
:1000E0007B0200087B0200087B0200087B020008FC
:1000F0007B0200087B0200087B0200087B020008EC
:100100007B0200087B0200087B0200087B020008DB
:100110007B0200087B020008113100087B02000806
:10012000250A00087B0200087B0200087B02000809
:100130007B02000800000000000000007B020008B5
:100140007B0200087B0200087B0200087B0200089B
:100150007B0200087B0200087B0200087B0200088B
:100160007B0200087B0200087B0200087B0200087B
:100170007B0200087B020008000000000000000075
:100180007B0200087B020008DFF810D000F0A2FB21
:10019000004800477D420008AFF30080B0580020BF
:1001A0002C4B19680868B0E8F04F80F30988BFF35A
:1001B0006F8F4FF0000080F311887047000000003F
:1001C00008480068006880F308884FF0000080F35A
:1001D000148862B661B6BFF34F8FBFF36F8F00DF35
:1001E00000BF00BF08ED00E0DFF80C00016841F43B
:1001F00070010160704700BF88ED00E0EFF30980F7
:10020000BFF36F8F134B1A681EF0100F08BF20ED5D
:10021000108A20E9F04F106009B44FF0500080F3CD
:100220001188BFF34F8FBFF36F8F04F025FF4FF09E
:10023000000080F3118809BC19680868B0E8F04F25
:100240001EF0100F08BFB0EC108A80F30988BFF3CE
:100250006F8F704720000020EFF30580704700008B
:100260000648804706480047FEE7FEE7FEE7FEE750
:10027000FEE7FEE7FEE7FEE7FEE7FEE701310008E6
:10028000890100082DE9F05F0546002092469B4653
:1002900088460646814640241BE02846414647469C
:1002A000224600F031FA53465A46C01A914110D303
:1002B00011461846224600F018FA2D1A67EB01087D
:1002C0004F4622460120002100F00FFA17EB0009EB
:1002D0004E41201EA4F10104DFDC484631462A4687
:1002E0004346BDE8F09F40EA01039B0703D009E0C5
:1002F00008C9121F08C0042AFAD203E011F8013B12
:1003000000F8013B521EF9D27047D2B201E000F86A
:10031000012B491EFBD270470022F6E710B51346A9
:100320000A4604461946FFF7F0FF204610BD2DE9A6
:10033000FE4F804681EA0300C00F0C46009021F07A
:10034000004123F00045B8EB0200A94105D2404628
:10035000214690461C460B46024623F000401043BF
:1003600047D0270DC7F30A00C3F30A510290401A81
:10037000019040286BDAC3F3130040F4801B00980F
:10038000924620B10023D2EB030A63EB0B0B0198DA
:100390005946C0F14002504600F0A7F906460D4606
:1003A00050465946019A00F0BFF910EB0800614130
:1003B000002487EA115284EAE7731A4340D0009A76
:1003C00062B3019A012A4FEA075215DC001B61EB68
:1003D00002014FF0004202EA0752CDE90042001C40
:1003E00041F5801132462B4600F0F6F903B0BDE826
:1003F000F08F40462146F9E7001B61EB0201001C2B
:1004000041F5801300185B412018A2F5001747EB57
:10041000030140EAD570B6196D4111E06D084FEA4D
:10042000360645EAC0754FEA0752001B61EB020130
:10043000001C41F5801149084FEA30000019514174
:1004400032462B4603B0BDE8F04F00F0B6B9009835
:10045000012240000023D0EB020263EBE07300981E
:1004600021464FEAE074B8EB000061EB0401E9E7D4
:1004700083F000435BE781F0004158E72DE9FE4F30
:1004800081EA030404F0004421F0004100944FF09D
:10049000000B23F0004350EA01045ED052EA03044B
:1004A0005BD0C3F30A54C1F30A552C44A4F2F334CD
:1004B0000194A0FB0254C1F3130141F48011C3F372
:1004C000130343F4801301FB024400FB034E840A30
:1004D000970A44EA815447EA8357A4FB07680295C8
:1004E0008D0A05FB07854FEA932C04FB0C54270566
:1004F000029D4FEA065847EA1637B5EB08056EEB42
:10050000070C870E920E47EA811742EA8312A7FB77
:100510000201B6EB0B0164EB00042B0D43EA0C3334
:100520005E1844EB1C50DA465146E7FB0201C5F366
:1005300013044FEA0B3343EA14534FEA0432019C8D
:1005400043EA0603A4F10C040294009CCDE900B434
:1005500000F042F903B0BDE8F08F00200146F9E752
:100560002DE9F04D81EA030404F0004B21F0004531
:1005700014464FF0000A23F0004150EA050220D053
:1005800054EA01021DD0C5F30A570246C5F313030E
:10059000C1F31300C1F30A5640F4801543F48013ED
:1005A000A7EB0608101BD64608F2FD3873EB0500D2
:1005B00002D308F1010801E092185B41B8F1000F85
:1005C00003DA00200146BDE8F08D00204FF48011D1
:1005D000064684460EE0171B73EB050705D3121B76
:1005E00063EB050306434CEA010C49084FEA30006F
:1005F00092185B4150EA0107EDD152EA030012D094
:1006000082EA040083EA0501084305D0101BAB41D0
:1006100006D20122002306E000224FF0004302E050
:100620006FF0010253101AEB06004CEB085110EB6F
:100630000A0041EB0B01BDE8F04D00F0BEB80EB56D
:10064000C10F80EAE0700844CA07002140F233433A
:100650008DE80E000A460B4600F0BEF803B000BD60
:1006600000F0004230F000400AD0C10D01F5607189
:10067000C0F3160042EA0151C20840071143704717
:1006800000200146704701F0004330B421F00041E2
:1006900050EA010206D00A0DA2F56072C1F31301FF
:1006A000002A02DC30BC00207047440F44EAC10439
:1006B000C100E01830BC00EBC25000F047B830B5C4
:1006C0000B46014600202022012409E021FA02F510
:1006D0009D4205D303FA02F5491B04FA02F52844AA
:1006E000151EA2F10102F1DC30BD202A04DB203A04
:1006F00000FA02F1002070479140C2F1200320FA75
:1007000003F3194390407047202A04DB203A21FA72
:1007100002F00021704721FA02F3D040C2F120021A
:100720009140084319467047202A06DBCB17203A30
:1007300041FA02F043EAE07306E041FA02F3D040E6
:10074000C2F1200291400843194670470029A8BF12
:100750007047401C490008BF20F00100704710B4EA
:10076000B0FA80FC00FA0CF050EA010404BF10BC9F
:10077000704749B1CCF1200421FA04F411FA0CF1CC
:1007800018BF012121430843A3EB0C01CB1D4FEA05
:1007900000614FEA102042BF002010BC704700EB00
:1007A000C35010440029A4BF10BC7047401C49002E
:1007B00008BF20F0010010BC704710B5141E73F183
:1007C000000408DA401C41F1000192185B411A4311
:1007D00001D120F0010010BD2DE9F04D92469B465D
:1007E00011B1B1FA81F202E0B0FA80F22032904603
:1007F000FFF77BFF04460F4640EA0A0041EA0B017F
:1008000053465A46084313D0114653EA010019D003
:10081000C8F140025046FFF777FF05460E465046A6
:1008200059464246FFF761FF084305D0012004E026
:1008300020463946BDE8F08D0020054346EAE076C3
:100840002C4337430A986305E40AA0EB0800002212
:10085000FD0A44EA47540A3002D500200146E9E780
:10086000010510196941DDE9084500196941BDE834
:10087000F04DA2E7C1F30A52C1F3130140F2FF3376
:1008800041F480119A4202DA00200146704740F29A
:1008900033439A42A2F2334202DC5242FFF734BFA2
:1008A000FFF723BF30B5041E71F1000404DB4FF0E5
:1008B0000044404264EB0101141E73F1000405DBA7
:1008C0001C464FF00043524263EB0403994208BFB9
:1008D000904230BD064C074D06E0E06840F0010351
:1008E00094E8070098471034AC42F6D3FFF750FC69
:1008F000547B0008747B0008464910B54A6822F40E
:1009000040324A604A6843681A434A6001684A684C
:1009100022F480724A6001684A68036942EA03224D
:100920004A6001684A6822F040724A6001684A6879
:1009300083681A434A6001688A6822F400628A6008
:1009400001688A68C3681A438A60816A6FF07062BE
:10095000D14201688A6822F070628A6001688A6800
:100960000CD0836A1A438A6001688A6822F0405278
:100970008A6001688A68C36A1A4301E022F0405223
:100980008A6001688A6822F002028A6001688A68C7
:10099000037E42EA43028A6090F820100029016831
:1009A0004A680FD042F400624A6001684A6822F443
:1009B00060424A6001684A68174C436A04EB43335B
:1009C0001A4301E022F400624A600168CA6A22F414
:1009D0007002CA620168CA6A838B104C04EB03532D
:1009E0001A43CA6201688A6822F400728A60016848
:1009F0008A6890F8303042EA43228A6001688A6847
:100A000022F480628A6001688A68406942EA802034
:100A1000886010BD0023014000E0FFFF0000F0FFF0
:100A2000FEE70000014800F061B900003401002039
:100A300001681823CAB2103AB2FBF3F2054B6FF308
:100A40000901032A9B5CC36500D9091D816508461D
:100A500070470000F85C000810B5014600208B6963
:100A60008A6A4FF0C07453B1B3F5005F15D072B10C
:100A7000012A0CD0022A0AD0032A09D104E01AB1B3
:100A8000012A06D0022A03D1C96AC90100D5012072
:100A900010BDC96AA142FAD010BD002AF7D0012AC0
:100AA000F2D0022AF3D0032AF3D010BD704772B6F9
:100AB000FEE7000078B50024009490F83C20012A5D
:100AC00019D0012280F83C200A6807230568092A0A
:100AD00013D9EE680A3A02EB420293409E43EE605D
:100AE0000B788A680A3B03EB43039A400368DD688E
:100AF0002A43DA6010E0022078BD2E6902EB420240
:100B000093409E432E610B788A6803EB43039A401F
:100B100003681D692A431A614A681F23072A13D2F2
:100B200005686E6B521E02EB820293409E436E6319
:100B30000B790A885B1E92B203EB83039A40036829
:100B40005D6B2A435A6327E005680D2A12D22E6B8B
:100B5000D21F02EB820293409E432E630B790A88D8
:100B6000DB1F92B203EB83039A4003681D6B2A4399
:100B70001A6311E0EE6A0D3A02EB820293409E4343
:100B8000EE620B790A880D3B92B203EB83039A4025
:100B90000368DD6A2A43DA62164B0568144A9D42EF
:100BA00006D10D68122D03D1556845F480055560B6
:100BB00005689D4218D10B68102B01D0112B13D161
:100BC000536843F400035360096810290CD10A49A3
:100BD0000A4A0968B1FBF2F101EB8101490000E02A
:100BE000491E00910029FBD180F83C40002078BDCF
:100BF00000230140002001401C00002040420F0063
:100C000070B504004FF0000503D0206C002610B131
:100C100007E0012070BD204600F01CF8666484F8EF
:100C20003C60206CC00610D4206C20F4885040F04A
:100C3000020020642046FFF75FFE6664206C20F00F
:100C4000020040F00100206400E0012584F83C60CF
:100C5000284670BD70B586B0064614216846FFF779
:100C60005BFB1D493068884234D11C48002501686F
:100C700041F480710160006800F4807005901748AD
:100C80001438016841F0010101600068694600F014
:100C900001000590132000900320CDE901051048C4
:100CA00000F070F9104C0F48C4E900050015A5606C
:100CB000C4E90350400060618000A0614011C4E9B4
:100CC00007052046656200F0E1F808B1FFF7EFFE86
:100CD000B463A66306B070BD0020014044380240F2
:100CE0000000024010640240340100202DE9F84366
:100CF00004464FF00009CDF8009063484FF41651B8
:100D0000A56D0068B0FBF1F72E6894F85C10082020
:100D100000FA01F131420FD021680A6852070BD561
:100D20000A6822F004020A6094F85C108840A86007
:100D3000606D40F00100606594F85C104FF00108B0
:100D400008FA01F0304208D021684969090604D543
:100D5000A860606D40F00200606594F85C100420AB
:100D60008840304208D021680968890704D5A86006
:100D7000606D40F00400606594F85C1010208840BD
:100D8000304218D021680968090714D5A860206886
:100D90000168490304D50068000308D5A16C07E089
:100DA0000168C90503D4016821F008010160216CC4
:100DB00009B12046884794F85C10202088403042D2
:100DC00031D021680968C9062DD5A86094F835008E
:100DD00005282068016806D0490347D5006800034C
:100DE0001DD4616C1CE021F016010160206841698E
:100DF00021F080014161206C08B9A06C20B120680D
:100E0000016821F00801016094F85C103F208840DF
:100E1000A86084F8358084F83490216D1FE0E16B80
:100E200009B120468847606D00282BD0606DC0074F
:100E300014D0052084F835002068016821F00101F4
:100E400001600098401C0090B84203D820680068F8
:100E5000C007F6D184F8358084F83490E16C00291D
:100E600010D001B02046BDE8F04308470168C9052D
:100E7000D5D4016821F01001016084F8358084F830
:100E80003490CCE7BDE8F8831C0000202DE9F04148
:100E9000044600F081F906465CB1022084F8350072
:100EA000002584F834502068016821F001010160B8
:100EB0000DE00120BDE8F08100F06EF9801B0528EF
:100EC00005D920206065032084F83500F2E720680A
:100ED0000068C007F0D12268116820480140D4E9B9
:100EE00001031843D4E903363343184363691843B5
:100EF000A3691843E3691843236A18430843616AE6
:100F0000042903D1D4E90B13194308431060206866
:100F10004069666A20F0070130460E430127042825
:100F20000CD1A06A0643E06A40B12046FFF794FD69
:100F300020B14020606584F83570BAE720684661CA
:100F40002046FFF775FD94F85C203F2191408160B9
:100F5000656584F835700020ACE700003F8010F034
:100F600070B5044600F018F90546601C02D004482C
:100F70000078044400F010F9401BA042FAD370BD81
:100F8000100000202DE9F84FDFF8BCA10022012558
:100F90000AF1040B03264FF00F090BF1040E00BFFA
:100FA0000B6805FA02F42340A34270D10F7907F0D1
:100FB0000307012F01D0022F16D187684FEA42089C
:100FC00006FA08FC27EA0C07D1F80CC00CFA08FC5A
:100FD0004CEA070CC0F808C04768A7430C79C4F373
:100FE000001494403C4344600C79E443A4070AD0C5
:100FF000C4684FEA420C06FA0CF7BC438F6807FA44
:101000000CF72743C7600C7904F00304022C12D1BB
:10101000D40800EB840CDCF820405707FF0E09FAD7
:1010200007F824EA0804D1F8108008FA07F848EA1B
:101030000408CCF8208004684FEA420C06FA0CF74A
:10104000BC430F7907F0030707FA0CF72743076043
:101050004C6814F4403F70D03C4C276847F48047FC
:101060002760246822F0030704F480440094384C7D
:1010700007EB040CDCF8084897074FEA177809FAE1
:1010800008F7BC43334FB84202D1002724E054E0B4
:10109000314FB84201D101271EE0304FB84201D193
:1010A000022719E02E4FB84201D1032714E02D4F3B
:1010B000B84201D104270FE02B4FB84201D10527D8
:1010C0000AE02A4FB84201D1062705E0284FB8426E
:1010D00001D1072700E0082707FA08F72743CCF8D3
:1010E0000878DAF800405746D1F804C09C435FEA1C
:1010F000CC3C00D51C433C60DBF800405F46D1F897
:1011000004C09C435FEA8C3C00D51C433C60DEF885
:1011100000407746D1F804C09C435FEACC2C00D550
:101120001C433C60084F0C373C68D1F804C09C431A
:101130005FEA8C2C00D51C433C60521C102AFFF443
:101140002FAFBDE8F88F0000003C0140443802405A
:10115000003001400000024000040240000802404C
:10116000000C02400010024000140240001802402F
:10117000001C02400069084000D00120704742690D
:1011800021EA02030A4043EA0241816170470AB141
:10119000816170470904FBE70148806870470000DF
:1011A0001000002070B5040025D094F83D00002503
:1011B00020B984F83C50204600F0B8F8242084F888
:1011C0003D002068016821F001010160206801688C
:1011D00041F4004101602068016821F40041016090
:1011E00000F06CFA4D4A6168914201D84C4900E028
:1011F0004C49884201D2012070BD4B492368B0FBA5
:10120000F1F15E6826F03F060E435E60636893422C
:1012100006D94FF4967359434FF47A73B1FBF3F147
:101220002368491C1E6A26F03F0631431962616833
:10123000914210D84900401EB0FBF1F2521CC2F39B
:101240000B02042A01D2042022E0B0FBF1F0401C82
:10125000C0F30B001CE0A268F2B301EBC10303EB87
:101260000116431EB3FBF6F35B1C43F480431B05DE
:1012700049D092B301EBC10202EB0111401EB0FB59
:10128000F1F0401CC0F30B0040F4804040F40040FB
:101290002168CA694CF6FF739A431043C861D4E9C8
:1012A000071001432068026822F0C0021143016068
:1012B000D4E9030101432068826848F2FF339A436E
:1012C00011438160D4E9050108432168CA6822F00E
:1012D000FF021043C86001E00EE016E020680168DC
:1012E00041F0010101602564202084F83D00256360
:1012F00084F83E50002070BD01EB4106431EB3FB55
:10130000F6F35B1CB3E70120C2E701EB4101401E8D
:10131000B0FBF1F0401CC0F30B00B7E7A086010062
:1013200080841E0000093D0040420F00F0B587B0E8
:10133000044614216846FEF7EFFF2768234CDFF8C8
:1013400088C0002221491223032504262048103496
:10135000674518D10F6847F002070F60096802AFB0
:1013600001F002010591C021CDE9001387E8640076
:101370006946FFF707FE206840F4001020602068EF
:1013800000F400101CE0DFF84CC0674519D10F686D
:1013900047F002070F60096802AF01F002010591F2
:1013A0004FF44061CDE9001387E864006946FFF718
:1013B000E9FD206840F480002060206800F480008F
:1013C000059007B0F0BD00000054004030380240E6
:1013D000000402400058004002488168027811442D
:1013E00081607047100000200B4810B5016841F47F
:1013F00000710160016841F480610160016841F49D
:1014000080710160032000F08DF80F2000F006F8D5
:1014100000F03EF8002010BD003C024010B501462F
:1014200088B00022362000F05DF8362000F04CF83D
:1014300013480024016841F010010160006805A90B
:1014400000F010000690684600F018F900F036F938
:101450000C494000B0FBF1F10C480B4A491E0260F8
:1014600040F2E732C0E90324C0E9011400F0A0FB18
:1014700010B1012008B010BD044800F0C7FBF9E727
:101480004038024040420F0000100040540300204A
:101490000C4882B0016841F480410160006800F4AA
:1014A000804000900748001F016841F080510160B2
:1014B0000068002200F0805000900F21901E02B0C2
:1014C00000F010B844380240002809DB00F01F0289
:1014D000012191404009800000F1E020C0F8001196
:1014E00070470000F0B40E4B1B680C46C3F3022398
:1014F000C3F10705042D00D90425191D072901D2C0
:10150000002300E0DB1E012606FA05F1491E2140FA
:1015100099409E40761E16403143F0BC02F0D8B888
:101520000CED00E0064900F0070208684FF6FF03E3
:10153000184040EA0220034A104308607047000048
:101540000CED00E00000FA052DE9F0470E4605001D
:1015500065D0DFF81481D8F80000F7B200F007007A
:10156000B04207D288F80070D8F8000000F00700F9
:10157000B04254D128683D4C810712D5400703D5AD
:10158000206840F4E05020602878000703D52068E8
:1015900040F4604020602068A96820F0F000084313
:1015A00020602878C0072DD03049686808390128A4
:1015B00012D0022813D0032811D009688907002906
:1015C0002DDA216821F0030101432160FFF7E4FDDA
:1015D000814641F2883A0EE009688903EFE709681D
:1015E0008901ECE7FFF7D8FDA0EB0901514502D9CD
:1015F0000320BDE8F0872068696800F00C00B0EBBC
:10160000810FEFD1D8F80010404601F00701B14238
:1016100007D90770006800F00700B04201D0012030
:10162000E7E72878400705D52068E96820F4E0500E
:10163000084320602878000706D52068296920F42F
:10164000604040EAC100206000F058F82168084A74
:10165000C1F30311515CC8400649086006480068A0
:10166000FFF7DCFE0020C4E7003C024008380240DF
:10167000005D00081C000020140000200F22026002
:101680000C4A136803F003034360136803F0F0038C
:101690008360136803F4E053C36012684FF4E053AF
:1016A00003EAD20202610448006800F00700086003
:1016B0007047000008380240003C024004480549D9
:1016C00000680968044AC1F38221515CC840704730
:1016D0001C00002008380240105D0008044805493D
:1016E00000680968044AC1F34231515CC840704740
:1016F0001C00002008380240105D0008154810B595
:10170000006810F00C02144813D04110042A0FD0C6
:10171000082A0ED10F4C241F2268236802F03F02D2
:101720005B0207D52068C0F38810A0FB010106E02A
:10173000084610BD2168C1F38811A1FB00010023F8
:10174000FEF7A0FD2168C1F30141491C4900B0FB2F
:10175000F1F010BD083802400024F4002DE9F84FE4
:1017600004006ED02078DFF84C93C007A9F104057F
:101770004AD009F104000168C1F38101012908D0B0
:101780000068C0F3810002280AD1D9F800004002A5
:1017900006D52868800337D560680028E1D033E09B
:1017A0006068B0F5803F10D0B0F5A02F286810D049
:1017B00020F480302860286820F480202860606849
:1017C000A8B1FFF7E9FC06460DE0286840F4803038
:1017D000F4E740F480202860F7E700BFFFF7DCFC67
:1017E000801B642873D828688003F7D50CE0FFF7C6
:1017F000D3FC064605E000BFFFF7CEFC801B642843
:10180000F0D828688003F7D42078DFF8AC8280070E
:101810004FF0000A3ED5A748001D016811F00C0FDB
:1018200008D00068C0F3810002280BD1D9F800006D
:10183000400207D42868800716D5E068012800D147
:1018400012E033E1E068B8B10120C8F80000FFF70A
:10185000A3FC064605E000BFFFF79EFC801B0228A4
:10186000C0D828688007F7D52868216920F0F800DB
:1018700040EAC10028600DE0C8F800A0FFF78CFC2A
:10188000064604E0FFF788FC801B02281FD8286862
:101890008007F7D42078000722D5864F87486169F2
:1018A000703771B101210160FFF776FC064604E054
:1018B000FFF772FC801B022809D838688007F7D52B
:1018C0000EE0C0F800A0FFF767FC064605E082E0E6
:1018D000FFF762FC801B02287DD838688007F7D4A8
:1018E0002078400768D5DFF8CCB100270BF13C0B1E
:1018F000DBF80000C0000BD4DBF8001041F0805191
:10190000CBF80010DBF80000012700F080500090B9
:101910006B4E3068C00510D4306840F48070306081
:10192000FFF73AFC009005E0FFF736FC0099401AFB
:10193000022850D83068C005F6D55E4EA0686C36D7
:1019400001280FD00528306810D020F00100306049
:10195000306820F004003060A068B8B1FFF71CFCCC
:1019600000900FE0306840F00100F4E740F0040020
:101970003060F7E7FFF710FC0099411A41F2883018
:10198000814266D830688007F4D50EE0FFF704FC8A
:10199000009007E0FFF700FC0099411A41F28830FF
:1019A000814256D830688007F4D42FB1DBF800109C
:1019B00021F08051CBF80010A069C8B33D49091D42
:1019C0000968C1F3810102294AD00228504607D094
:1019D000C8F8600000E03CE0FFF7DEFB04463BE0B7
:1019E0004746C8F86000FFF7D7FB064605E000BF92
:1019F000FFF7D2FB801B02282BD828688001F7D480
:101A0000D4E907010843A16A2E4A490802EB0141C3
:101A1000626A41EA8211084394F82C1040EA01619D
:101A2000C9F8001001203866FFF7B6FB044606E04F
:101A30003EE000BFFFF7B0FB001B022809D8286872
:101A40008001F7D534E000BFFFF7A6FB001B02289A
:101A500002D90320BDE8F88F28688001F4D427E07C
:101A60000128F7D0D9F80000E26900F48001914222
:101A70001CD1226A00F03F01914217D147F6C07194
:101A8000626A0140B1EB821F10D1A26A4FF0FF33AE
:101A900000F4403103EB5202B1EB024F06D194F84F
:101AA0002C1000F07060B0EB016F01D00120D1E785
:101AB0000020CFE70438024000004742800E474232
:101AC000007000400000FFFF7047704710B590F8AD
:101AD0003C20012A22D0012280F83C20CA688C6870
:101AE00022F4407222434C6822F4806222430C6844
:101AF00022F4006222430C6922F4805222434C6992
:101B000022F400522243C969002322F480420A438E
:101B100001684A6480F83C30002010BD022010BDEE
:101B200070B590F83C20012A32D0012480F83C4066
:101B3000022280F83D2003685A689D6822F07006F2
:101B40000A6832435A60134B02689A4214D0B2F1C9
:101B5000804F11D0104B9A420ED0104B9A420BD0AE
:101B60000F4B9A4208D00F4B9A4205D00E4B9A4227
:101B700002D00E4B9A4204D1496825F080031943E4
:101B8000916080F83D40002180F83C10084670BD0F
:101B9000022070BD00000140000400400008004029
:101BA000000C0040000401400040014000180040CB
:101BB00010B5040003D094F83D0010B107E00120F7
:101BC00010BD002084F83C00204600F01EF80220E2
:101BD00084F83D00211D206801F0A0FA012084F85E
:101BE000460084F83E0084F83F0084F8400084F802
:101BF000410084F8420084F8430084F8440084F8EB
:101C0000450084F83D00002010BD704790F83D105D
:101C1000012901D001207047022180F83D100168A0
:101C2000CA6842F00102CA6000681149884214D0B3
:101C3000B0F1804F11D00F4988420ED00E49884232
:101C40000BD00E49884208D00D49884205D00D4975
:101C5000884202D00C49884204D1816801F0070112
:101C6000062903D0016841F001010160002070479E
:101C7000000001400004004000080040000C00404B
:101C80000004014000400140001800402DE9F041EF
:101C90000D46040003D094F83D0018B108E001207F
:101CA000BDE8F081002084F83C00204600F040F8B8
:101CB000022084F83D002068816844F207029143C5
:101CC0008160211D206801F029FA226890689169DD
:101CD000166A2B68AF69034340F20330814341EA3F
:101CE0000721A868EF6908434FF6FC418843E9687B
:101CF00040EA0720014328692F6A000140EA0730C3
:101D0000084369686D6926F0AA0646EA0515294365
:101D100093602268906154F8460B0162012004F838
:101D20001F09E0752076E0762077A0750020B7E7E0
:101D300070B586B0044614216846FEF7EDFA2068B7
:101D4000B0F1804F31D11A480024016841F00101FF
:101D50000160006800F00100059015481038016826
:101D600041F001010160016801F001010591016884
:101D700041F0020101600068022500F002000590B8
:101D800020200090CDE901540126CDE903466946A3
:101D90000848FFF7F7F808200090CDE90154CDE995
:101DA000034669460448FFF7EDF806B070BD000031
:101DB00040380240000002400004024070B590F834
:101DC0003E60044690F83F5090F8423090F843202F
:101DD000022021B104290ED0012E1BD114E0012EC6
:101DE00018D1012B16D184F83E0084F8420001225C
:101DF0000021206820E0012D0CD1012A0AD184F8AD
:101E00003F0084F8430014E0012D03D1012B01D1E0
:101E1000012A01D0012070BD84F83E0084F83F0003
:101E200084F8420084F8430001220021206801F078
:101E3000D9F901220421206801F0D4F92068016851
:101E400041F001010160002070BD704770B504468B
:101E5000006801694FF00005C943890715D4C168BE
:101E6000C943890711D4E91E016101202077206848
:101E700080698007204602D0FFF7E7FF04E000F00A
:101E8000ECF8204600F02CF9257720680169C94359
:101E9000490717D4C168C943490713D46FF0040137
:101EA0000161022020772068806910F4407F20467D
:101EB00002D0FFF7CAFF04E000F0CFF8204600F0A0
:101EC0000FF9257720680169C943090716D4C1684D
:101ED000C943090712D46FF008010161042020777B
:101EE0002068C0698007204602D0FFF7AEFF04E0FB
:101EF00000F0B3F8204600F0F3F825772068016978
:101F0000C943C90617D4C168C943C90613D46FF0C1
:101F100010010161082020772068C06910F4407F1B
:101F2000204602D0FFF791FF04E000F096F820462B
:101F300000F0D6F8257720680169C943C90708D1A0
:101F4000C168C943C90704D1891E0161204600F058
:101F50002DF920680169C943090609D4C168C9433C
:101F6000090605D46FF0800101612046FFF7ACFD42
:101F700020680169C943490609D4C168C9434906B3
:101F800005D46FF040010161204600F019F9206886
:101F90000169C94389060BD4C168C943890607D4BE
:101FA0006FF0200101612046BDE87040FFF78DBD54
:101FB00070BD000010B586B0044614216846FEF7D7
:101FC000ABF90E492068884216D10D4800210268FD
:101FD00042F001020260006800F0010005904FF439
:101FE000C07000900220CDE901010120CDE903106D
:101FF00069460448FEF7C6FF06B010BD0000014068
:10200000303802400000024070B5044690F83C00B1
:10201000002501280FD0012084F83C006AB1042A71
:102020000FD0082A11D00C2A13D00125002084F8E3
:102030003C00284670BD022070BD206801F0E0F829
:10204000F4E7206801F00CF9F0E7206801F03EF9B0
:10205000ECE7206801F06EF9E8E7704710B504007E
:1020600003D094F83D0010B107E0012010BD00201E
:1020700084F83C00204600F01FF8022084F83D0060
:10208000211D206801F04AF8012084F8460084F8F8
:102090003E0084F83F0084F8400084F8410084F852
:1020A000420084F8430084F8440084F8450084F832
:1020B0003D00002010BD000008B5006806498842B8
:1020C00008D10648016841F001010160006800F094
:1020D0000100009008BD00000000014044380240AB
:1020E0007047000010B50446022249B104290ED001
:1020F000082913D094F84100012816D0012010BD02
:1021000094F83E000128F9D184F83E200FE094F8BD
:102110003F000128F2D184F83F2008E094F8400005
:102120000128EBD184F8402001E084F8412001220D
:10213000206801F057F816492068164A884201D0F5
:10214000904203D1436C43F40043436420688842C7
:1021500013D0B0F1804F10D00F4988420DD00F49F5
:1021600088420AD00E49884207D0904205D00D49D6
:10217000884202D00C49884204D1816801F00701ED
:10218000062903D0016841F001010160002010BD63
:10219000000001400004014000040040000800402D
:1021A000000C004000400140001800400068034956
:1021B000884201D1FFF710B97047000000100040BD
:1021C000704770B5040004D094F83D00002510B1AC
:1021D00006E0012070BD84F83C50204600F022F853
:1021E000242084F83D002068C16821F40051C160BA
:1021F000204601F0EDF82068016921F49041016169
:102200002068416921F02A0141612068C16841F4D8
:102210000051C1602564202084F83D0084F83E0010
:10222000002070BDF0B587B0044614216846FEF763
:1022300073F81F4F236800221E4902240325072636
:102240001D48BB4213D11B4B14331F6847F01007C6
:102250001F601B6803F0100305930B6843F0010334
:102260000B60096801F001010591690215E0134F47
:10227000BB421AD10F4B10331F6847F400371F6061
:102280001B6803F4003305930B6843F001030B60F4
:10229000096801F0010105910C21CDE9001402ABA0
:1022A000694683E86400FEF76DFE07B0F0BD0000EC
:1022B000001001403038024000000240004400405D
:1022C00090F83E30202B0ED159B152B190F83C30ED
:1022D000012B08D0012380F83C300023036301F078
:1022E000FDB8012070470220704700002DE9F84337
:1022F000044690F83D001F4616460D4620284CD156
:10230000C5B1BEB194F83C00012846D0012084F844
:102310003C004FF00008C4F84080212084F83D00C4
:10232000FEF73AFFA6848146E684A068B0F5805F98
:1023300003D004E00120BDE8F883206928B12E46CF
:102340005FF0000584F83C800EE00026FAE780216B
:10235000204601F0DEF8A0B9AEB116F8010B2168F5
:102360004860E08C401EE084E08C4B464FF0000259
:1023700000970028EBD14FF04001204601F0C9F84A
:1023800030B10320D7E735F8020BC0F30800E6E7C9
:10239000202084F83D000020CDE70220CBE7FEE7B7
:1023A00010B50E4C012280212046FEF7F0FE0122DE
:1023B00040212046FEF7EBFE00F046F80022802187
:1023C0002046FEF7E4FE00F03FF8002240212046C0
:1023D000FEF7DDFEBDE8104000F036B80004024014
:1023E00010B50A4C002280212046FEF7D0FE0122C3
:1023F00040212046FEF7CBFE00F026F820460122C1
:10240000BDE810408021FEF7C2BE0000000402407B
:1024100010B50C4C012280212046FEF7B8FE00F0DA
:1024200013F8012240212046FEF7B1FE00F00CF81F
:10243000002240212046FEF7AAFEBDE8104000F031
:1024400003B80000000402400A20401EC0B2FCD2C3
:10245000704700002DE9F041104D0F46064600245C
:10246000012210212846FEF792FE01224021284633
:10247000FEF78DFE0DE016B1012E02D008E010210E
:1024800000E040212846FEF77AFE6420FEF768FD52
:10249000641CB4EB470FEEDBBDE8F081000802409E
:1024A0001CB50446062269463B2000F064F8BDF8DE
:1024B000000040BA2080BDF8020040BA6080BDF83C
:1024C000040040BAA0801CBD1CB504460622694623
:1024D000432000F050F8BDF8000040BA2080BDF85D
:1024E000020040BA6080BDF8040040BAA0801CBD64
:1024F00008B500208DF8000001226946752000F023
:102500003AF89DF80000682804A003D001F0D0F844
:10251000002008BD01F0CCF8012008BD496D7520F0
:102520005265616420494420537563636573730A7F
:102530000000000010B500204FF47A720221491CFF
:102540009142FCDB401C9042F8DB00216B2000F044
:1025500063F80721192000F05FF806211A2000F027
:102560005BF800211C2000F057F81821BDE810404E
:102570001B2000F051B870B516460D46044601F018
:10258000F9FDD02001F0C2FD01F030FE204601F03F
:10259000BDFD01F02BFE01F0EDFDD12001F0B6FDF7
:1025A00001F024FE0024761E06E0012001F07CFDEF
:1025B000641C05F8010BE4B2B442F6DB002001F024
:1025C00073FD2870BDE8704001F0F6BD38B50446D3
:1025D000022269464120FFF7CEFFBDF8000040BA55
:1025E00000B2FEF72CF89FED081B53EC112BFDF702
:1025F000B7FF9FED071B53EC112BFDF798FEFEF77D
:1026000042F8206038BD0000000000000040754026
:10261000A4703D0AD743424070B50D46044601F010
:10262000A9FDD02001F072FD01F0E0FD204601F08F
:102630006DFD01F0DBFD284601F068FD01F0D6FDDF
:10264000BDE8704001F0B8BD7FB50024204800947B
:10265000019402941D490394016001254FF48031D7
:102660000561C0E90114047680F820401949C0E9E9
:102670000A140326C661C46080F830404561FEF745
:10268000BFFA08B1FEF713FACDE9004569461048D4
:102690000294FEF70FFA08B1FEF709FA0224CDE919
:1026A000005469460A480295FEF704FA08B1FEF79D
:1026B000FEF90420CDE90006694602940448FEF7BD
:1026C000F9F9002801D0FEF7F2F97FBD00200140A2
:1026D000EC0000200100000F094808B5016841F432
:1026E000800101600068002200F480000090052154
:1026F0003820FEF7F7FEBDE808403820FEF7E4BEBC
:102700003038024010B5044A0021044801F022FE8E
:102710000349486010BD0000D45A0008592E000833
:102720000000002030B587B014216846FDF7F4FDA5
:1027300019480024016841F080010160016801F03E
:1027400080010591016841F004010160016801F018
:1027500004010591016841F001010160016801F087
:1027600001010591016841F00201016000680B4D13
:1027700000F00200059000225F212846FEF707FDC9
:102780005F2000900120CDE90104694628460394AA
:10279000FEF7F8FB07B030BD3038024000080240B9
:1027A0000D4810B50B4901600C49416000214FF400
:1027B00080428160C0E9031241618161C1610162AF
:1027C000FEF7F0FC002803D0BDE81040FEF76FB91B
:1027D00010BD00000054004094010020A0860100BC
:1027E00010B592B000240F941C2108A81094FDF796
:1027F00093FD20216846FDF78FFD1F481D49C0E964
:1028000000144FF6FF71C0E9024104614461846124
:10281000FFF724FC08B1FEF74AF90F940FA91648F8
:102820001094FFF77DF908B1FEF741F90894099477
:102830000A940B940C940D94002208A90E480E944F
:10284000FFF7E2FB08B1FEF732F900944FF40050B5
:10285000CDE9044002940194039469460648079424
:10286000FFF734F908B1FEF722F90348FFF7A2FB9E
:1028700012B010BD000001403C02002010B58CB029
:1028800024216846FDF748FD0024144809944FF0C0
:1028900080410A94C0E90014611EC0E9024104614C
:1028A00084610120CDE90004CDE902040494CDE95E
:1028B00005400794694609480894FFF7E7F908B10D
:1028C000FEF7F5F8099409A904480A94FFF728F9D6
:1028D000002801D0FEF7EBF80CB010BD84020020F8
:1028E0000C4810B50A4901604FF4E1314160002104
:1028F00081600C22C160C0E904128161C161FFF7EF
:1029000060FC002803D0BDE81040FEF7D0B810BD31
:1029100000100140CC0200200C4810B50A490160AB
:102920004FF4E1314160002181600C22C160C0E9B7
:1029300004128161C161FFF744FC002803D0BDE8A7
:102940001040FEF7B4B810BD004400401003002052
:10295000FEE7FEE730B40021084B0A465FF00000B6
:1029600003EB0014401CC0B262545028F8D3491C39
:10297000C9B21029F2D330BC00F010B9B04C00201D
:102980002DE9FE4F4FF000084646802801D37F20F6
:102990000AE0802A01D37F2206E0402901D33F21AB
:1029A00002E0402B00D33F23994205D9044610464C
:1029B00022460C4619462346CDE90010141A5D1A2A
:1029C0004FF0FF30002C02DD4FF0010102E003D197
:1029D0004FF000018B4602E08346C4F10004002D55
:1029E00002DD4FF0010002E003D14FF0000082460B
:1029F00002E08246C4F10005AC4201DD274600E05A
:102A00002F46781C4FF00009029019E000980C9AAC
:102A1000C1B20198C0B200F019F8A0442E44B845E4
:102A200004DD0198A8EB070858440190BE4203DD7D
:102A30000098F61B5044009009F101001FFA80F93C
:102A400002998945E2DBBDE8FE8F000030B5CC0875
:102A500001F0070301259D40EBB2064D05EB001583
:102A6000C808285C0AB1184302E063EA0000C043CA
:102A7000285530BDB04C0020F0B5464887B00168FD
:102A800041F0020101600068032500F0020005909A
:102A900080201124012603958DE851003E4F6946A0
:102AA0003846FEF76FFA402003958DE851006946DD
:102AB0003846FEF767FA3220FEF752FA0021AE20C0
:102AC00000F030F90021084600F02CF90021102018
:102AD00000F028F90021202000F024F900218120B5
:102AE00000F020F900216F2000F01CF90021A12046
:102AF00000F018F90021C02000F014F90021A420F2
:102B000000F010F90021A62000F00CF90021D520DA
:102B100000F008F90021912000F004F90021D920EB
:102B200000F000F90021222000F0FCF80021DB2059
:102B300000F0F8F800213F2000F0F4F80021A82070
:102B400000F0F0F800214F2000F0ECF80021D32035
:102B500000F0E8F80021682000F0E4F80021DC2013
:102B600000F0E0F80021084600F0DCF80021AD207C
:102B700000F0D8F800218A2000F0D4F8FFF7EAFE30
:102B80000021AF2000F0CEF81420FEF7E9F907B0DD
:102B9000F0BD0000303802400004024070B5184E0D
:102BA000002400BF04F1B000C0B2002100F0BAF868
:102BB0000021084600F0B6F80021102000F0B2F81D
:102BC000FFF7EEFB782000F023F9FFF721FC40200F
:102BD00000F01EF9FFF71CFC5FF0000506EB051086
:102BE000005D00F015F9FFF713FC6D1CEDB2502DE0
:102BF000F4D3FFF7F5FB641CE4B2102CD2D370BD04
:102C0000B04C00202DE9FC4F1C460D4682468B46F9
:102C10000190082B0ED0600700D0012000EBD400FB
:102C2000610810FB01F0C0B28146203AD0B200909A
:102C300000204AE00620F7E7082C12D00C2C17D011
:102C4000102C1AD0182C43D10098234900EBC00057
:102C500001EB8001002711F80860F00712D00B9AF1
:102C600013E000981D4900EB400001EB4001F1E743
:102C700000981B4900EB4000EAE71A49009801EB75
:102C80000011E7E70B9828B3002251462846FFF7CA
:102C9000DDFE6D1C7F1C7608FFB2EDB2102FDCD379
:102CA0000AF1010000F0FF0A082C0AD00199AAEBF2
:102CB0000100B0EB540F04D10BF108008A4600F07C
:102CC000FF0B08F101005D46C0B280464845B3D312
:102CD000BDE8FC8F0122D8E7A4690008185D000850
:102CE000405F0008B46300082DE9F8411E46154610
:102CF00088460446079F0BE033464146204600972E
:102D0000FFF780FF082E0AD004EB5600C4B26D1CFA
:102D10002A78A2F120005E28EED9BDE8F881A41D32
:102D2000E4B2F4E770B50C460546FFF739FB7820AE
:102D300000F06EF8FFF76CFB0CB1402000E00020C3
:102D400000F066F8FFF764FB284600F061F8FFF733
:102D50005FFBBDE87040FFF743BB000038B50124BE
:102D60000021182323A208460094FFF7BDFF40234B
:102D70001A22194600200094FFF702FE40231B226E
:102D8000194601200094FFF7FBFD0023502219464D
:102D90001A200094FFF7F4FD0123502219461A204F
:102DA0000094FFF7EDFD102314A21C2104200094D1
:102DB000FFF79AFF102312A21C2140200094FFF776
:102DC00093FF10230FA22E2104200094FFF78CFF05
:102DD00010230DA23E2104200094FFF785FF10234D
:102DE0000AA20A2176200094FFF77EFFBDE8384052
:102DF000FFF7D4BE4379626572000000503A0000CC
:102E000041503A00563A0000433A00005600000094
:102E100070B5104E05460024280601D5012200E0B9
:102E2000002280213046FEF7B2F9FFF70DFB0122A8
:102E300040213046FEF7ABF9FFF706FB00224021A8
:102E40003046FEF7A4F96806641C050EE4B2082CAF
:102E5000E2D370BD000402402DED088BDFF874B1A1
:102E60008CB0ABF1180404F10C000B9008309FED0E
:102E70005A8ADFED5A8A9FED5AAB0A9000F0DEFBCA
:102E80008BED020A10EE100AFDF7EAFB41EC100B85
:102E900055A053EC102B00F00BFCA01DFFF700FB1E
:102EA0000B98FFF711FB0A98FFF790FBB4F9067037
:102EB000B4F9086000EE107AB4F90A50B4F90C00C5
:102EC000B8EEC00A20EE080A20EE28BA00EE106A1A
:102ED000B8EEC00A20EE080A20EE289A00EE105A3A
:102EE000B8EEC00A20EE080A60EE289AFDF7A7FBAC
:102EF00053EC1A2BFDF734FBFDF7C5FB8246B4F902
:102F00000E00FDF79CFB53EC1A2BFDF729FBFDF798
:102F1000BAFB8146B4F91000FDF791FB53EC1A2B74
:102F2000FDF71EFBFDF7AFFB80462B4632463946C8
:102F300034A000F0BDFB4046FDF792FB07468846F3
:102F40004846FDF78DFB05460E465046FDF788FBCB
:102F5000CDE9020119EE900AFDF782FBCDE90001EF
:102F600019EE100AFDF77CFB81468A461BEE100A1B
:102F7000FDF776FB41EC100B06A853EC102B80E814
:102F8000E001DDE90201CDE90401DDE90001CDE95F
:102F9000009ACDE9020120A000F08AFB01F07EFE3C
:102FA000A08000F0EFF9234880ED000A10EE100A2F
:102FB000FDF756FB41EC100B1FA053EC102B00F05B
:102FC00077FB3220FDF7CCFF10212048FEF7D7F821
:102FD00054E70000DC0000202B871C4100008038F3
:102FE000000000000060604047726174696E6720F5
:102FF00053656E736F7220506F736974696F6E3AA8
:1030000025660A00416363446174613A25642C2596
:10301000642C25640A0000004779726F4461746172
:103020003A25662C25662C25662C25662C25662CD3
:1030300025660A0000000020544F463230304620FA
:10304000446174613A25660A0000000000080240ED
:1030500010B54FF0E020006902F086FB012803D094
:10306000BDE8104002F0B4B810BD000030B593B018
:1030700030216846FDF750F914210CA8FDF74CF9F2
:103080001D480025016841F080510160006800F092
:10309000805011901948016841F480410160006836
:1030A000022400F48040119001200090000401905F
:1030B0008001CDE9064008AA0420A82182E8130077
:1030C0000B906846FEF74AFB08B172B6FEE70CA902
:1030D0000F2081E831004FF4A0500F904FF4805042
:1030E000109005210CA8FEF72FFA002801D072B627
:1030F000FEE713B030BD00004038024000700040D1
:103100000248016841F470010160704788ED00E0F9
:103110000148FEF79BBE000054030020F0B5026892
:10312000254C264D264E274F274B4FF0804CA04272
:1031300009D0604507D0A84205D0B04203D0B842BC
:1031400001D0984204D122F0700E4A6842EA0E0281
:10315000A0421BD0604519D0A84217D0B04215D06C
:10316000B84213D0984211D0184DA8420ED0184D35
:10317000A8420BD0174DA84208D0174DA84205D041
:10318000164DA84202D0164DA84203D122F4407534
:10319000CA682A434D6922F080022A4302608A6885
:1031A000C2620A688262A04201D0984201D10969D4
:1031B000016301214161F0BD0000014000040040B5
:1031C00000080040000C00400004014000400140A5
:1031D000004401400048014000180040001C00402D
:1031E0000020004010B501F01F030121046A99403E
:1031F0008C430462016A9A401143016210BD0000D1
:10320000F0B5026A22F001020262036A4268846930
:10321000124E24F073050C682C4323F002058B68D2
:103220002B430D4DA84201D0B04205D123F0080731
:10323000CB683B4323F00403A84201D0B04205D140
:103240004D6922F4407215438A692A4342608461C1
:10325000496841630362F0BD000001400004014081
:10326000F0B5026A22F010020262026A43688469C1
:103270000D6824F4E64444EA05248D6822F0200217
:1032800042EA05120F4D104EA84201D0B04206D1BD
:10329000CF6822F0800242EA071222F04002A842E0
:1032A00001D0B04207D14D6923F4406343EA85035E
:1032B0008D6943EA850343608461496881630262E2
:1032C000F0BD00000000014000040140F0B5026ABA
:1032D00022F480720262026A4368C46922F40072B6
:1032E00024F073050C68124E2C438D6842EA0522C7
:1032F0000E4DA84201D0B04206D1CF6822F4006240
:1033000042EA072222F48062A84201D0B04207D1EB
:103310004D6923F4405343EA05138D6943EA0513CD
:103320004360C4614968C1630262F0BD00000140AE
:103330000004014030B5026A22F480520262046A3D
:103340004268C3690D6823F4E64343EA05238D68A8
:1033500024F4005444EA0534084DA84202D0084D34
:10336000A84204D14D6922F4804242EA85124260AB
:10337000C36149680164046230BD0000000001407F
:103380000004014010B500F00BF800EE100ADFED6C
:10339000030AB8EE400A20EE800A10BDFA00FA3C9B
:1033A000094810B5808800EE100A0848B8EE400AB7
:1033B00000F042FF054890ED020ABCEEC00A10EE94
:1033C000100A80B210BD0000C4000020A800002038
:1033D00070B5044600680169E26821F44051114368
:1033E00001612169A068E2690843616911430843EA
:1033F0002168CA6849F20C639A430243CA60206894
:103400004169A26921F44071114341613149206849
:10341000884202D03049884202D1FEF75FF901E0CC
:10342000FEF74CF9E2690023192164253226B2F532
:10343000004F626828D0A0FB0101930F9200FCF7B7
:1034400021FF0146B0FBF5F06FF01802504301EB8D
:10345000800006EB0010B0FBF5F000F0F002B1FBCD
:10346000F5F002EB0012B1FBF5F06FF018035843D2
:1034700001EB800006EB0010B0FBF5F000F00F0050
:1034800021681044886070BDA0FB010192185B4167
:10349000FCF7F8FE0146B0FBF5F00201B1FBF5F0D8
:1034A0006FF01803584301EB800006EBC000B0FB3F
:1034B000F5F000F0F80002EB4002B1FBF5F05843E4
:1034C00001EB800006EBC000B0FBF5F000F0070058
:1034D000D6E700000010014000140140816282859F
:1034E000C28500210164222280F83E2080F83C1031
:1034F0000168CA6842F48072CA6001684A6942F091
:1035000001024A610068C16841F02001C1600020E9
:1035100070472DE9F041984617460E460446069D31
:1035200027E0681C25D02DB1FDF736FEA0EB080082
:10353000A8421ED920680C3050E8001F21F4D07139
:1035400040E80012002AF5D12068143050E8001F2E
:1035500021F0010140E80012002AF5D1202084F872
:103560003D0084F83E00002084F83C000320BDE8C4
:10357000F0812068006836EA000004D00020B842DC
:10358000CFD00020F3E70120F9E7000010B505A037
:1035900000F08EF80AA000F08BF8BDE810400DA0F6
:1035A00000F086B853797374656D20496E6974694B
:1035B000616C697A6174696F6E2E2E2E0A000000AC
:1035C000555341525420446973706C61792E2E2EEC
:1035D0000A00000048656C6C6F20576F726C6421A4
:1035E0000A000000FEE7000010B511480F4C01680A
:1035F0002268486A1044A0F5E260B0F5005042F23B
:10360000107220604A6201D4206802E000F5FA508E
:1036100020604FF4FA5190FBF1F201FB120105A07A
:10362000216000F045F8206810BD0000A0000020D7
:1036300084020020434E543A25640A0010B5FFF777
:10364000D3FF00EE100AF2EE040A9FED0A1AB8EE5C
:10365000C00A094860EE200A80EE810A80ED010A66
:10366000B5EEC00AF1EE10FA03D29FED040A80ED28
:10367000010A10BD0000FA45A00000200000000073
:1036800010B53C210748FEF799FB064942F210703D
:1036900009684862044800219FED040A016080ED3A
:1036A000010A10BD84020020A000002000000000DC
:1036B0000FB4054B10B503A9044A029800F0EAF8CC
:1036C00010BC5DF814FB0000C93F0008C0000020DA
:1036D0000907090E002804DB00F1E02080F800143F
:1036E000704700F00F0000F1E02080F8141D7047D3
:1036F00002E008C8121F08C1002AFAD170477047BB
:10370000002001E001C1121F002AFBD17047000018
:103710002DE9FF5F82B00021DDE90430020DDDF804
:1037200040B0034318D044F61050A2F2FF32424397
:103730001514119801281FD0A5EB0B00401C5FEA5F
:10374000000A4FF000064E4FDFF83891B046504661
:1037500015D5CAF1000413E0119801244AA30128E9
:1037600001D16FEA0B010298119AC0E90031C0E95A
:10377000024206B0BDE8F09FCBF10000DFE704464F
:103780000021404A491842EB0450CDE9001012E0F4
:10379000E00707D032463B4640464946FCF76EFEFE
:1037A0008046894632463B4610461946FCF766FE7F
:1037B00006460F466410002CEAD1DDE90401DDE97C
:1037C0000023BAF1000F06DAFCF758FE42464B46DA
:1037D000FCF754FE05E0FCF7C3FE42464B46FCF7FF
:1037E000BFFE04460E460022284BFDF75BF803D8C7
:1037F0004FF0FF30014607E00022254B20463146BE
:10380000FCF795FDFDF736F8102409E0002C0ADBE3
:103810000A220023FCF736FD039B30321A55641E42
:1038200050EA0102F2D1641C039AC4F1110314445A
:10383000119A012A03D0012208430DD10AE008435E
:1038400004D000204FF0110B119072E7A3EB0B0591
:103850006D1E0DE05B4504DD4FF0000205F1010532
:1038600004E003DA4FF00002A5F10105002AECD0D4
:1038700002981199C0E90231C0E9004579E70000DA
:10388000000014400000F03F300000000000F04352
:103890000000E03F2DE9FF4F95B09A468846064666
:1038A0000025EEE1252877D100242746F94A012199
:1038B000039400E0044316F8013F203B01FA03F0B3
:1038C0001042F7D130782A2811D06FF02F033078CA
:1038D000A0F13002092A16D8039A44F0020402EB40
:1038E000820203EB42021044761C0390EFE758F883
:1038F000042B0392002A03DA504244F4005403904C
:1039000044F00204761C30782E2816D116F8010FE8
:1039100044F004042A280DD06FF02F023078A0F173
:103920003003092B09D807EB870302EB4303C718C1
:10393000761CF3E758F8047B761C30786C280FD09F
:1039400006DC4C2817D068280DD06A2814D104E072
:10395000742810D07A280FD10DE044F400140AE046
:1039600044F4801401E044F440147278824202D19D
:1039700004F58014761C761C307866280BD013DC96
:10398000582877D009DC002875D04528F6D046287D
:10399000F4D047281AD193E118E0632835D0642881
:1039A00079D0652812D18BE1702873D008DC6728A4
:1039B000F1D069286FD06E280DD06F2806D1ACE009
:1039C00073282CD0752874D0782853D05246179974
:1039D00090476D1C54E1C4F30250022809D003281B
:1039E0000DD0D8F8001004280DD00D6008F104089F
:1039F00046E1D8F80010EA17C1E90052F6E7D8F816
:103A000000100D80F2E70D70F0E718F8041B8DF838
:103A1000001000208DF80100EB46012003E058F86B
:103A200004BB4FF0FF3061074FF0000102D40DE0FE
:103A300009F101018946B9420FDA8145F8DB1BF82B
:103A400009100029F4D108E009F1010189468142F9
:103A5000FADB1BF809100029F6D103985346A0EBB6
:103A6000090721463846179A00F080FA284400EBEF
:103A7000090507E044E008E10DE01BF8010B5246A0
:103A800017999047B9F10109F7D2534621463846B4
:103A9000179AF2E039E00A21C4F302524FF0000B0A
:103AA0000091022A06D058F8040BC117032A09D046
:103AB0000AE023E008F1070020F00702F2E8020123
:103AC000904605E000B2C117042A01D140B2C117E7
:103AD000002906DA0A460021404261EB02012D224C
:103AE00002E0220504D52B228DF80420012203E0F8
:103AF000E20701D02022F7E7914657E00A2100E0D3
:103B000010214FF0000B00910BE010214FF0000B43
:103B100044F004040827009103E008204FF0000B54
:103B20000090C4F30252022A05D058F8040B002179
:103B3000032A08D008E008F1070020F00702F2E8A5
:103B40000201904603E080B2042A00D1C0B24FF0D7
:103B5000000922072AD53278702A07D0DDF800C084
:103B60008CF0100C5CEA0B0C05D00EE040228DF8B6
:103B70000420012208E050EA010306D030238DF82A
:103B800004308DF8052002229146009B83F0080343
:103B900053EA0B030AD150EA010201D1620705D5AD
:103BA00030228DF804204FF001097F1E3278582A08
:103BB00004D039A20C920CAA02920BE03BA2F9E7C6
:103BC0005B46009AFCF75EFB0C9B9B5C029A521EC4
:103BD0000292137050EA0102F2D1029804A9081A65
:103BE00000F1200B600702D524F4803400E00127A7
:103BF0005F4502DDA7EB0B0000E0002000EB0B01AE
:103C0000009003984944401A0390E00306D45346B9
:103C10002146179A039800F0A9F90544002706E009
:103C200001A85246C05D179990476D1C7F1C4F45F7
:103C3000F6DBE0030CD553462146179A039800F0B3
:103C400095F9054404E030205246179990476D1CC1
:103C50000099481E00900029F5DC08E002980299BE
:103C600052460078491C0291179990476D1CBBF190
:103C70000001ABF1010BF1DC5BE100F065F90544FB
:103C8000761C307800287FF40DAE19B02846BDE8C8
:103C9000F08F0000092801003031323334353637D7
:103CA0003839616263646566000000003031323388
:103CB0003435363738394142434445460000000028
:103CC000600700D4062708F1070020F00700F0E89D
:103CD0000223804603F0004C5FEA0C0001D097A05D
:103CE00009E0200501D596A005E0E00701D095A0E8
:103CF00001E0AFF24C001390307823F000436528C8
:103D00000CD006DC452809D046281DD047287FD195
:103D10003BE0662818D067287AD136E00021112FC1
:103D200001DB112000E0781CCDE9000104A90CA8FA
:103D3000FFF7EEFCDDE90D010C9A4FF0000B07F1E7
:103D40000109109200914EE04FF000400097CDE93C
:103D5000011004A90CA8FFF7DBFCDDE90D020C9BA8
:103D60000F994FF0000B91461093009211B9791CF6
:103D700000EB0109B7EB090003D4C0F1FF3B07F1E9
:103D80000109A9EB0700019042E0012F00DA0127A9
:103D90000021112F01DD112000E03846CDE900019E
:103DA00004A90CA8FFF7B4FCDDE90D010C9A009101
:103DB0004FF0000BB946109221070FD4009A4A45E4
:103DC00003DA914601E0A9F10109B9F1010F05DD1E
:103DD000109AA9F10101515C3029F4D0B84202DAFD
:103DE00010F1040F03DA0121CDE9011010E00028E1
:103DF00003DC8344A9EB000102E0411C494500DDDE
:103E00008946A0EB0B00401C01904FF0004002904F
:103E1000200705D40198484502DB4FF0FF300190A0
:103E200000208DF84B0002980DF14B07B0F1004FC8
:103E300025D002200C902B200D90029800280CDA3F
:103E4000404202902D200D9007E00A210298FCF7D5
:103E500036FC3031029007F8011D0C99481E0C9079
:103E60000029F2DC02980028EFD1791E0D98087025
:103E7000307800F0200040F0450007F8020D11A84E
:103E8000C01BC01D02901398007800B1012000EB08
:103E90000901019801EBE071029801440398401A6E
:103EA000401E0390E00306D453462146179A039818
:103EB00000F05CF805441398007818B15246179941
:103EC00090476D1CE00323D553462146179A03986B
:103ED00000F04CF805441BE0BBF1000F07DB009835
:103EE000584504DD1098179910F80B0001E0179958
:103EF00030205246904701980BF1010B401E05F10E
:103F00000105019004D12E205246179990476D1C4F
:103F1000B9F10001A9F10109DEDC05E017F8010B98
:103F20005246179990476D1C0299481E029000292D
:103F3000F4DC53462146179A03989EE62D000000B4
:103F40002B000000200000002DE9F0410446002570
:103F50001E461746880404D405E039462020B047A1
:103F60006D1C641EF9D52846BDE8F0812DE9F041AD
:103F7000044600251E469046C80301D5302700E0C0
:103F80002027880404D505E041463846B0476D1C1B
:103F9000641EF9D52846BDE8F081000070B5094DD2
:103FA000FF22134605F5807606E000BF10F8014BAE
:103FB00054402A5D5A40335D491E89B2F6D243EA25
:103FC000022070BDF85A000813B54FF6FF730122A6
:103FD00069460248FEF78AF900981CBD10030020CC
:103FE00070B5104D4FF40064002221462846FDF7BD
:103FF000CEF800F019F80122960231462846FDF766
:10400000C6F800F011F8002231462846FDF7BFF847
:1040100000F00AF821462846BDE870400122FDF76D
:10402000B6B80000000402400020401CC0B21428B2
:10403000FBD370470C4800B5016887B041F002011E
:1040400001600068694600F0020005904FF440608E
:10405000009001200390112001900448FCF792FF8A
:1040600000F0AAF807B000BD30380240000402405A
:1040700070B50C4C0122D1022046FDF788F8FFF7FD
:10408000D3FF0122950229462046FDF780F8FFF76D
:10409000CBFF002229462046FDF779F8BDE87040A5
:1040A000FFF7C2BF000402402DE9F0470024164E7E
:1040B000804625464FF400694FF480676006040E81
:1040C000012239463046FDF762F8FFF7ADFF494659
:1040D0003046FDF74FF808B1641CE4B200223946BF
:1040E0003046FDF754F8FFF79FFF6D1CEDB2082D29
:1040F000E4D3B8F1000F04D0FFF772FF2046BDE80B
:10410000F087FFF7B5FFF9E7000402402DE9F04121
:10411000174E054600244FF480674FF400682806C8
:1041200001D5012200E0002241463046FDF72FF87C
:10413000FFF77AFF012239463046FDF728F8FFF7EE
:1041400073FF002239463046FDF721F8072C04D1D1
:10415000012241463046FDF71AF86806050EFFF7C2
:1041600063FF641CE4B2082CD9D3BDE8F0810000E1
:104170000004024070B501220E4DD40221462846AB
:10418000FDF705F80122960231462846FCF7FFFFAD
:10419000FFF74AFF002221462846FCF7F8FFFFF709
:1041A00043FF002231462846FCF7F1FFBDE870408E
:1041B000FFF73ABF0004024070B50B4D4FF40064A6
:1041C000002221462846FCF7E2FF01229102284600
:1041D000FCF7DDFFFFF728FF21462846BDE87040C9
:1041E0000122FCF7D4BF00000004024070B5012298
:1041F000104DD40221462846FCF7C9FFFFF714FFF3
:104200000122960231462846FCF7C1FFFFF70CFF5A
:1042100021462846FCF7AEFF08B1012400E0002447
:10422000002231462846FCF7B2FFFFF7FDFE20468C
:1042300070BD000000040240D0ED000A90ED041AA9
:1042400070EE810AC0ED010A90ED051A30EE811A78
:10425000C0EE811AC0ED031A90ED021A30EE410A49
:1042600001EE801AB7EE000A30EE610A80ED021A04
:1042700020EE200A80ED000A70470000FDF7B4F838
:10428000FEF7F4FEFEF74EFAFEF726FAFEF7DCF92B
:10429000FEF786FAFEF7A4FAFEF7F0FAFEF720FB27
:1042A000FEF73AFBFFF7ECF900211248FDF71AFF81
:1042B000FEF7E2FBFEF752FD02210020FEF7CAF8EE
:1042C00002210120FEF7C6F8FFF760F9FFF7B2FE02
:1042D000FEF730F94FF47A70FCF742FEFEF708F96A
:1042E00000F0CCFC00F008F8FEF70CFA00F016F82D
:1042F000FEE700003C020020EFF3058010B16FF0F4
:10430000050070470448016811B14FF0FF30704755
:1043100001210160002070477000002010B5EFF30C
:10432000058010B16FF0050010BD08480168012933
:1043300002D04FF0FF3010BD054A002182F8141D55
:104340000221016000F04CFE002010BD7000002032
:104350000BE000E02DE9FF414FEA01034FF00005BB
:10436000EFF30581039549BB40B380271821002452
:104370004AB3166806B1344696691EB13146761EB8
:10438000382E02D21679F60703D0002004B0BDE81B
:10439000F081566906B1B708D2F808C0BCF1000F29
:1043A0000DD0D5685C2D18D312693AB136B18DE8BD
:1043B00006103A46214601F0ACF903900DE0D668AC
:1043C0005EB912694AB903AACDE90012BAB2214610
:1043D00001F072F9012800D003950398D6E7000098
:1043E0002DE9F041134C0F460546E6682068001D94
:1043F00000F080FC681C07D137B12168BDE8F041AE
:104400000D48091D00F0C6BC20683544B542456022
:10441000216805D2A06BBDE8F041091D00F0A2BCE7
:10442000606B091D00F09EFCA06A854200D2A56267
:10443000BDE8F08120000020CC0800202DE9F041EB
:10444000054600F0B3FC2D4CA068401CA06020681D
:104450002B4F10B1606930B32BE02560A0680128B4
:1044600027D1002606EB860007EB800000F06CFCED
:10447000761C382EF6D3234800F066FC2148143011
:1044800000F062FC1F48283000F05EFC1D483C3004
:1044900000F05AFC1B48503000F056FC194860638D
:1044A0001430A06305E02068E96AC06A884200D839
:1044B0002560606A401C60626864E86A216988421D
:1044C00000D9206100EB800007EB8000291D00F07F
:1044D00061FC00F08BFC606900280CD02068E96A60
:1044E000C06A884207D208494FF080500860BFF385
:1044F0004F8FBFF36F8FBDE8F081000020000020D8
:104500001C0400207C08002004ED00E038B500F019
:104510004DFC104C2068C8B90F4800F015FC0E483F
:10452000143000F011FC0C48E060143020610A4B9C
:104530000020F03B009003F1500210210A2000F00F
:104540005DFE206010B105A100F0D2FCBDE838404E
:1045500000F04CBC5C000020D0090020546D72516A
:104560000000000030B4026C0B46002A0BD0C1687A
:104570001144C1608468A14201D30168C16030BCAC
:104580001846FBF7B0BE30BC70472DE9F041856B93
:10459000174604460026026C82B1C7B1E068FBF7FB
:1045A000A2FEE168206C091AE1602268914202D201
:1045B000A168081AE060022F16D017E02068A8B999
:1045C000A06801F049F906460020A0600EE060688E
:1045D000FBF789FE216C606808446060A16888422E
:1045E00004D32068606001E005B16D1E6D1CA563F9
:1045F0003046BDE8F08110B5044690F8590058B136
:1046000001280CD002280FD0502080F31188BFF36E
:104610004F8FBFF36F8FFEE7206B00F0FBFB204650
:10462000BDE8104000F0F6BB10BD000010484FF48C
:104630007051420706D0C01D0D4920F00700411AF5
:10464000C1F570510B4A00230144C2E90003083947
:10465000183A21F0070111604B600B600B1AC0E99A
:10466000001393604FF000405360506170470000AA
:10467000B01000208C000020144E154CA6F29C4770
:104680004FF08058DFF84C9012E000BF00F08EFB36
:10469000F068C568281D00F02DFBA068401EA060D2
:1046A0006068401E606000F0A1FB2846FFF7A3FF92
:1046B00060680028EAD138680128F9D9C9F8008073
:1046C000BFF34F8FBFF36F8FF2E70000B8080020F1
:1046D0002000002004ED00E070B51D46049C51B19F
:1046E000C4F80020C4E90F010121204600F0BAFD02
:1046F00084F84C5070BD2460F4E700002DE9F05FB1
:104700008846DDE90B941546834691009A460A9E39
:10471000A522206BFBF7F9FD6FF00301206B01EB85
:104720008501084420F00707780707D0502080F360
:104730001188BFF34F8FBFF36F8FFEE70025B8F1ED
:10474000000F0FD05FF00000221818F8001082F858
:10475000341018F8001011B1401C1028F4D384F85C
:10476000435001E084F83450382E00D33726E662F7
:10477000C4E91365201D00F0F2FA04F1180000F0FE
:10478000EEFA2461C6F138006462A061656584F8C0
:10479000585052465946384600F05AFA2060B9F14E
:1047A000000F01D0C9F80040BDE8F09F30B51149B5
:1047B00000E011460A688242FBD34B685C188442D1
:1047C00003D1406818444860084643681C18944266
:1047D00009D1084C183C2468A24209D052681A44F6
:1047E00042600A6812680260814200D0086030BDF1
:1047F0000460F9E78C00002070B5002441600B4D87
:104800000061914206D8D11A8269914206D2011DF7
:10481000286907E09A4203D2994201D3012403E0B8
:10482000011DE86800F09EFA204670BD5C00002083
:1048300010B5044600F0BAFAA06B28B15FF000048E
:1048400000F0D4FA204610BD0124F9E730B589B054
:104850003C4D6EE00498002806DADDE90601059A71
:1048600090470498002864DB069C606910B1201D05
:1048700000F040FA03A800F0D7F8024604980A288E
:1048800057D2DFE800F00505052D334A05052D3325
:1048900094F8280040F0010084F828000599A069E8
:1048A000059B01442046FFF7A7FF68B3216A204615
:1048B000884794F8280040073BD5002000900598D1
:1048C000A169002342181946204601F0CFF8D8B953
:1048D000502080F31188BFF34F8FBFF36F8FFEE737
:1048E00014F8280F20F00100207022E094F828002E
:1048F00040F0010084F828000598A06128B18118D3
:1049000013462046FFF778FF13E0502080F311880C
:10491000BFF34F8FBFF36F8FFEE794F82800810736
:1049200003D4204600F076FA03E020F0010084F87A
:104930002800002204A9286800F0E8FD002889D199
:1049400009B030BD5C0000202DE9FC410F46054652
:1049500000F08AFB01A800F067F80446019818B13E
:1049600000F0F2FFBDE8FC81254EAFB13069006870
:10497000D0B30027291B3A46306800F0CDFA00F08A
:10498000E3FF0028EED11F494FF080500860BFF3CD
:104990004F8FBFF36F8FE5E7A542EBD800F0D4FF50
:1049A000F0682746C068C468201D00F0A3F994F899
:1049B0002800410719D5A0692B4641193A462046DF
:1049C000FFF71AFFA8B100200346014600902A46CF
:1049D000204601F04BF860B9502080F31188BFF3F6
:1049E0004F8FBFF36F8FFEE707E020F0010084F8E0
:1049F0002800216A20468847B4E70127BAE700006B
:104A00005C00002004ED00E00648416B096829B114
:104A1000416BC968C9684968816270474FF0FF31CE
:104A2000FAE700002000002070B5054600F0AAFE5D
:104A3000064E0446B068844203D200F009F8012013
:104A400000E0002028602046B46070BD5C000020BB
:104A5000F8B5194D20E0C068C4680668201D00F054
:104A600049F9216A2046884794F82800400713D561
:104A7000A0693044B04206D924616060211DE86815
:104A800000F070F908E0002003460146009032462D
:104A9000204600F0EBFF38B1E86801680029DAD160
:104AA0002969C5E90310F8BD502080F31188BFF3D0
:104AB0004F8FBFF36F8FFEE75C000020084840680F
:104AC000401C4FF0500080F3118804D0BFF34F8F8B
:104AD000BFF36F8FFEE7BFF34F8FBFF36F8FFEE71C
:104AE00094000020074CE068016841B1C0680021D3
:104AF000D0F80000FFF728FFFFF7A8FEF3E7012139
:104B00000020F7E75C0000202DE9F041044600F0AA
:104B10004DF994F9455004F1240609E0606A48B162
:104B2000304600F0D9FE08B100F020FA6D1E6DB2DB
:104B3000002DF3DC4FF0FF3684F8456000F056F9A5
:104B400000F034F994F9445004F1100709E02069A9
:104B500048B1384600F0C0FE08B100F007FA6D1EFB
:104B60006DB2002DF3DC84F84460BDE8F04100F044
:104B70003DB900002DE9F0410546002700F074FA28
:104B8000324E306808B9FFF751FD706905424ED1C9
:104B9000C5B3083568070ED005F00700C0F108005E
:104BA0000544680707D0502080F31188BFF34F8F6A
:104BB000BFF36F8FFEE72DB37068854237D8234867
:104BC000183001460C6801E020460C466168A94295
:104BD00002D221680029F7D131688C4227D00768BA
:104BE0002168016060680837411B10290FD96019DE
:104BF000420708D0502080F31188BFF34F8FBFF3D6
:104C00006F8FFEE713E041606560FFF7CFFD6168DD
:104C10007068401A7060B268904200D2B0607069EB
:104C200001430020C4E90001F068401CF06000F07E
:104C30008BFE780707D0502080F31188BFF34F8F89
:104C4000BFF36F8FFEE73846BDE8F08174000020A7
:104C500010B5031F4FF080741C601B1F21F0010171
:104C60001960191F044B0B6014390A60091F6FF09B
:104C7000020244380A6010BDBD4A00080448002101
:104C800001220170416003490348FDF719BB000090
:104C9000080000209C030020CC02002010B50B4C23
:104CA000207880B1FCF778FA616888420BD32178CC
:104CB000074800F011F860800020207001220449AC
:104CC0000448FDF7FDFA608810BD000008000020D0
:104CD0009C030020CC02002010B50446062902D314
:104CE000FFF75CF908B1002010BDE07801022079DF
:104CF000084310BDD0E9013201699A60D0E901236F
:104D00005A604A68824201D182684A600022026188
:104D10000868401E0860086870470000034B036085
:104D200003F15C000860802010607047F8090020E3
:104D3000044B036003F15C0008604FF48070106066
:104D400070470000540C002000F108014FF0FF32C2
:104D5000C0E90112C16001610021016070470021BA
:104D60000161704730B50B685A1C02D000F108028F
:104D700002E0026904E02246546825689D42FAD99F
:104D800053684B6099608A60516008610168491CF2
:104D9000016030BD42684A6093688B6093685960D7
:104DA000916008610168491C01607047502080F3E0
:104DB0001188BFF34F8FBFF36F8F0A494868401CBB
:104DC000486001280CD10848006810F0FF0F07D098
:104DD000502080F31188BFF34F8FBFF36F8FFEE732
:104DE000704700009400002004ED00E00849486886
:104DF00028B1401E486001D180F3118870475020CF
:104E000080F31188BFF34F8FBFF36F8FFEE7000071
:104E10009400002070B500282AD0164DA0F1080497
:104E200060686969084207D1502080F31188BFF398
:104E30004F8FBFF36F8FFEE722683AB1502080F3A7
:104E40001188BFF34F8FBFF36F8FFEE78843606019
:104E500000F00AF960686968084468602046FFF756
:104E6000A5FC2869401C2861BDE8704000F06CBDBD
:104E700070BD0000740000204FF0E02000210161AF
:104E8000816105494FF47A720968B1FBF2F1491E5C
:104E900041610721016170471C00002010B5FBF73C
:104EA000DBF9114910280ED300F1E02090F8F0034F
:104EB0000A78904207D2502080F31188BFF34F8FB9
:104EC000BFF36F8FFEE709480068896800F4E0606F
:104ED000884207D9502080F31188BFF34F8FBFF36A
:104EE0006F8FFEE710BD0000940000200CED00E085
:104EF00010B5084B002200BF53F832401CB1521CC1
:104F0000082AF9D310BD43F8321003EBC201486000
:104F100010BD0000DC03002070B515460E460446A7
:104F2000FFF744FF94F944100020491C01D184F894
:104F3000440094F94510491C01D184F84500FFF75D
:104F400055FFA06B28B92A46314604F1240000F031
:104F50002BF82046BDE87040FFF7D6BD02490A6A2B
:104F60000260C968416070472000002001490120AB
:104F7000C86170472000002010B50C4650B10949A7
:104F800009681831FFF7EEFE2046BDE81040012108
:104F9000FFF726BA502080F31188BFF34F8FBFF37D
:104FA0006F8FFEE72000002070B514460D4668B1F3
:104FB0000A4909681831FFF7EDFE0CB14FF0FF35D3
:104FC00021462846BDE87040FFF70ABA502080F31A
:104FD0001188BFF34F8FBFF36F8FFEE720000020D3
:104FE00030B587B00024039405AA04A903A804944B
:104FF000FFF794FEDDE903010094CDE901100023E1
:1050000015A11748059A00F084FB164D0028E862A8
:105010001FD000F0FBFC012809D0401C19D1502002
:1050200080F31188BFF34F8FBFF36F8FFEE75020DF
:1050300080F31188BFF34F8FBFF36F8F4FF0FF30B6
:10504000A86201206861EC6007B0BDE8304000F064
:1050500045B807B030BD000049444C450000000091
:1050600079460008200000200248016B491C0163BA
:105070007047000020000020164810B5016B11B1E8
:105080000121C16110BD0021C1610169124A01E025
:10509000B9B1491E01EB810352F82330002BF7D040
:1050A00001EB810302EB830202F1080453685B68A1
:1050B0005360A34201D15B685360DA68026001610A
:1050C00010BD502080F31188BFF34F8FBFF36F8F57
:1050D000FEE70000200000201C0400201CB537481B
:1050E0000168374A914207D1502080F31188BFF3FD
:1050F0004F8FBFF36F8FFEE700683149491E88422A
:1051000007D1502080F31188BFF34F8FBFF36F8F0B
:10511000FEE72C4908780190FF20087008788DF888
:1051200000009DF800009DF8002000F0F000904283
:1051300007D0502080F31188BFF34F8FBFF36F8FDC
:10514000FEE79DF80000204C00F050002070072082
:10515000A06005E09DF8002052008DF80020401E60
:105160009DF800201206F5D4A060032807D0502037
:1051700080F31188BFF34F8FBFF36F8FFEE74FF4BB
:105180004070A060019808700C482030016841F41C
:1051900070010160016841F070410160FFF76CFE31
:1051A00000206060FBF720F80848016841F04041AA
:1051B0000160FBF705F800201CBD000000ED00E0D9
:1051C00071C20F4100E400E09400002034EF00E0E1
:1051D00010B5502080F31188BFF34F8FBFF36F8F4E
:1051E00000F0D6FA18B104494FF080500860002052
:1051F00080F3118810BD000004ED00E038B5049D77
:1052000018B153B1CAB181B120E0502080F31188A8
:10521000BFF34F8FBFF36F8FFEE7502080F31188ED
:10522000BFF34F8FBFF36F8FFEE7502080F31188DD
:10523000BFF34F8FBFF36F8FFEE739B1502080F37C
:105240001188BFF34F8FBFF36F8FFEE750241C46CA
:10525000012384F846302B460094FFF73DFA2046A0
:1052600038BD000070B50D46040025D0FFF79EFD47
:10527000D4E90F20216802FB0011A1600021A16385
:10528000216861600A46D4E90F01401E00FB01213C
:10529000E16021464FF0FF3001F8440F487004F1FF
:1052A00010008DB1FFF750FD04F12400FFF74CFD15
:1052B000FFF79CFD012070BD502080F31188BFF3E3
:1052C0004F8FBFF36F8FFEE721690029F0D000F008
:1052D00003FB0028ECD004494FF080500860BFF376
:1052E0004F8FBFF36F8FE3E704ED00E02DE9FF4739
:1052F00082B01D468A464FF00008040003D0BAF180
:10530000000F08D011E0502080F31188BFF34F8FB9
:10531000BFF36F8FFEE7206C38B1502080F3118807
:10532000BFF34F8FBFF36F8FFEE7022D0AD1E06B03
:10533000012807D0502080F31188BFF34F8FBFF3AF
:105340006F8FFEE700F010FA3F4F4FF000094FF06B
:10535000805648B9049838B1502080F31188BFF3C3
:105360004F8FBFF36F8FFEE7FFF720FDA06BE16B60
:10537000884207D3022D05D00498D0B1B8F1000FB0
:105380001AD01EE02A4651462046FFF7FEF8616A11
:1053900019B104F1240000F09FFA20B13E60BFF380
:1053A0004F8FBFF36F8FFFF721FD012006B0BDE8DF
:1053B000F087FFF71BFD22E06846FFF7CFFD4FF0B7
:1053C0000108FFF713FDFFF74FFEFFF7EFFC94F91D
:1053D0004400401C01D184F8449094F94500401CDD
:1053E00001D184F84590FFF701FD04A9684600F05B
:1053F00029F930B12046FFF787FB00F0A5FA00201D
:10540000D4E7FFF7D3FCA06BE16B884213D1FFF721
:10541000EDFC04F110000499FFF7AEFD2046FFF704
:1054200073FB00F091FA00289ED13E60BFF34F8FCE
:10543000BFF36F8F98E7FFF7D9FC2046FFF764FBB7
:1054400000F082FA90E7000004ED00E02DE9F0475B
:105450001F4690468946040003D0B9F1000F08D0DA
:1054600011E0502080F31188BFF34F8FBFF36F8F8F
:10547000FEE7206C38B1502080F31188BFF34F8FC6
:10548000BFF36F8FFEE7022F0AD1E06B012807D030
:10549000502080F31188BFF34F8FBFF36F8FFEE76B
:1054A000FFF7FCFC5020EFF3118680F31188BFF367
:1054B0004F8FBFF36F8FA06BE16B884206D3022F33
:1054C00004D0002086F31188BDE8F08794F9455098
:1054D000A06B3A4649462046FFF757F8681C04D0AF
:1054E0006D1C84F845500120ECE7606A0028FAD072
:1054F00004F1240000F0F0F90028F4D0B8F1000F16
:10550000F1D00121C8F80010EDE700002DE9F747C0
:10551000002683B08A46040003D0BAF1000F08D0F9
:1055200011E0502080F31188BFF34F8FBFF36F8FCE
:10553000FEE7206C38B1502080F31188BFF34F8F05
:10554000BFF36F8FFEE700F00FF9DFF8F4804FF044
:1055500000094FF0805748B9059838B1502080F3C2
:105560001188BFF34F8FBFF36F8FFEE7FFF71EFC6D
:10557000A56BC5B151462046FEF7F4FF6D1EA5632D
:10558000206950B104F1100000F0A6F928B1C8F864
:105590000070BFF34F8FBFF36F8FFFF727FC012021
:1055A00006B0BDE8F087059808B11EB106E0FFF728
:1055B0001DFC27E06846FFF7D1FC0126FFF716FC2B
:1055C000FFF752FDFFF7F2FB94F94400401C01D1B4
:1055D00084F8449094F94500401C01D184F845902A
:1055E000FFF704FC05A9684600F02CF800282046C7
:1055F0000AD0FFF789FA00F0A7F92046FFF718F95B
:105600000028B3D00020CBE7FFF712F990B104F1E6
:1056100024000599FFF7B0FC2046FFF775FA00F06B
:1056200093F90028A2D1C8F80070BFF34F8FBFF3E1
:105630006F8F9BE72046FFF767FA00F085F995E743
:1056400004ED00E02DE9F0410C46050011D0C4B195
:10565000FFF7ACFB174BDA686E682068911B471C9C
:1056600017D02F681B6A9F4219D0964217D8012481
:1056700010E0502080F31188BFF34F8FBFF36F8F7E
:10568000FEE7502080F31188BFF34F8FBFF36F8F79
:10569000FEE70024FFF7AAFB2046BDE8F081884220
:1056A00005D9401A20602846FFF758FCF1E7002092
:1056B0002060DCE7200000202DE9FF5F8346DDE964
:1056C0000E87994616468A469000FFF753FA050062
:1056D0001CD05C20FFF74EFA040014D00020256394
:1056E00084F85900CDE90240CDE900874B463246A7
:1056F00051465846FFF702F82046FEF79FFE01206C
:1057000004B0BDE8F09F2846FFF784FB4FF0FF3060
:10571000F6E7F0B585B0DDE90B640A9DA6B1DCB112
:105720005C2700972663022684F85960002604AFA0
:10573000CDE90246CDE90057FEF7E0FF2046FEF72F
:105740007DFE049805B0F0BD502080F31188BFF3B2
:105750004F8FBFF36F8FFEE7502080F31188BFF3A8
:105760004F8FBFF36F8FFEE70548416919B1006B9A
:1057700018B10020704701207047022070470000D8
:10578000200000200148C068704700002000002071
:105790002DE9F0412E4C0027206B28B1A069401C58
:1057A000A0613846BDE8F081E668761CE66013D15A
:1057B000606B006838B1502080F31188BFF34F8FC1
:1057C000BFF36F8FFEE7606BA16B6163A063206A1C
:1057D000401C2062FFF718F9A06ADFF87880864243
:1057E00009D3606B0068A0B1606BC068C568686869
:1057F000864211D2A0622068C06A00EB800158F88E
:105800002100012800D90127E0690028C9D001271B
:10581000C7E74FF0FF30EDE7281DFFF76BFAA86AE6
:1058200018B105F11800FFF765FAE86A21698842A6
:1058300000D9206100EB800108EB8100291DFFF7F2
:10584000A9FAE86A2168C96A8842CAD30127C8E769
:10585000200000201C04002070B504004FF000015F
:1058600033D01B4D2868844207D0502080F3118824
:10587000BFF34F8FBFF36F8FFEE7206D38B1401E2F
:105880002065E36CE26A9A421FD040B11DE05020CF
:1058900080F31188BFF34F8FBFF36F8FFEE7201D9A
:1058A000FFF728FAE06CE062C0F13800A061E06A1E
:1058B0002969884200D92861064900EB800001EB84
:1058C0008000211DFFF766FA0121084670BD000027
:1058D000200000201C04002070B5C068C46854B1CA
:1058E00004F118000646FFF705FA144D286B50B175
:1058F0003146134815E0502080F31188BFF34F8FD5
:10590000BFF36F8FFEE7201DFFF7F4F9E06A296906
:10591000884200D928610B4900EB800001EB800030
:10592000211DFFF737FAE06A2968C96A884202D95F
:105930000120E86170BD002070BD00002000002043
:10594000A40800201C0400202DE9F0472C4D002461
:105950002746286B38B1FFF729FA286B401E2863C9
:10596000286B40B146E0502080F31188BFF34F8F81
:10597000BFF36F8FFEE7A968224E0120D1B3A6F5D1
:10598000916980463068E0B1F068C46804F118009D
:10599000FFF7B0F9201DFFF7ADF9E06A29698842E9
:1059A00000D9286100EB800109EB8100211DFFF780
:1059B000F1F9E06A2968C96A8842E3D3C5F81C8016
:1059C000E0E70CB1FFF720F8AC694CB14FEA0806EC
:1059D000FFF7DEFE00B1EE61641EF9D10020A86180
:1059E000E86938B10849012738070860BFF34F8FCD
:1059F000BFF36F8FFFF7FAF93846BDE8F087000074
:105A000020000020A408002004ED00E010B586B0BE
:105A1000FEF77CFD114C2068B8B100200390049083
:105A200005AA04A903A8FFF783F9DDE903210220F1
:105A30008DE8070000230AA10B48059AFFF769FECD
:105A4000606010B106B0012010BD502080F31188B5
:105A5000BFF34F8FBFF36F8FFEE700005C000020A5
:105A6000546D722053766300E54A00082DE9FF412A
:105A70001E46134602000A9D4FF0000016D0144C3B
:105A80002768002F0FD0CDE900130292062917DAFC
:105A9000FFF76AFE02284FF000030FD0002269468C
:105AA0002068FFF723FC04B0BDE8F081502080F3AC
:105AB0001188BFF34F8FBFF36F8FFEE72A46EEE7E3
:105AC0000023324669463846FFF7C0FCEBE700008A
:105AD0005C000020487B000800000000000000007F
