:020000040800F2
:1000000000000220115B0008F11C0008F31C00082E
:10001000F51C0008F71C0008F91C0008000000008F
:1000200000000000000000000000000091400008F7
:10003000FB1C00080000000031410008FB3D0008E7
:10004000615B0008615B0008615B0008615B0008A0
:10005000615B0008615B0008615B0008615B000890
:10006000615B0008615B0008615B0008615B000880
:10007000615B0008615B0008615B0008615B000870
:10008000615B0008615B0008615B0008615B000860
:10009000615B0008615B0008615B0008615B000850
:1000A000615B0008615B0008615B0008615B000840
:1000B000615B0008615B0008615B0008615B000830
:1000C000615B0008615B0008615B0008615B000820
:1000D000615B0008615B0008615B0008615B000810
:1000E000615B0008615B0008615B0008615B000800
:1000F000615B0008615B0008615B0008615B0008F0
:10010000615B0008615B0008615B0008615B0008DF
:10011000615B0008615B0008FD1C0008615B000872
:100120000D1D0008615B0008615B0008615B000851
:10013000615B00080000000000000000615B000837
:10014000615B0008615B0008615B0008615B00089F
:10015000615B0008615B0008615B0008615B00088F
:10016000615B0008615B0008615B0008615B00087F
:10017000615B0008615B00080000000000000000F7
:08018000615B0008615B0008EF
:1001C00010B5054C237833B9044B13B10448AFF391
:1001D00000800123237010BD54080020000000009F
:1001E000BC77000808B5034B1BB103490348AFF3C4
:1001F000008008BD0000000058080020BC770008FF
:1002000053B94AB9002908BF00281CBF4FF0FF317D
:100210004FF0FF3001F0DEB8ADF1080C6DE904CE0F
:1002200000F006F8DDF804E0DDE9022304B07047D1
:100230002DE9F047089D04468E46002B4DD18A4299
:10024000944669D9B2FA82F252B101FA02F3C2F1CC
:10025000200120FA01F10CFA02FC41EA030E94405D
:100260004FEA1C48210CBEFBF8F61FFA8CF708FB7E
:1002700016E341EA034306FB07F199420AD91CEB56
:10028000030306F1FF3080F01F81994240F21C8188
:10029000023E63445B1AA4B2B3FBF8F008FB1033D0
:1002A00044EA034400FB07F7A7420AD91CEB040405
:1002B00000F1FF3380F00A81A74240F207816444D5
:1002C000023840EA0640E41B00261DB1D44000235A
:1002D000C5E900433146BDE8F0878B4209D9002DBE
:1002E00000F0EF800026C5E9000130463146BDE848
:1002F000F087B3FA83F6002E4AD18B4202D38242B2
:1003000000F2F980841A61EB030301209E46002D60
:10031000E0D0C5E9004EDDE702B9FFDEB2FA82F2B5
:10032000002A40F09280A1EB0C014FEA1C471FFA13
:100330008CFE0126200CB1FBF7F307FB131140EAFA
:1003400001410EFB03F0884208D91CEB010103F1C7
:10035000FF3802D2884200F2CB804346091AA4B289
:10036000B1FBF7F007FB101144EA01440EFB00FE5D
:10037000A64508D91CEB040400F1FF3102D2A645C2
:1003800000F2BB800846A4EB0E0440EA03409CE761
:10039000C6F12007B34022FA07FC4CEA030C20FA0E
:1003A00007F401FA06F31C43F9404FEA1C4900FA2E
:1003B00006F3B1FBF9F8200C1FFA8CFE09FB1811AB
:1003C00040EA014108FB0EF0884202FA06F20BD91E
:1003D0001CEB010108F1FF3A80F08880884240F26E
:1003E0008580A8F102086144091AA4B2B1FBF9F0B2
:1003F00009FB101144EA014100FB0EFE8E4508D9AD
:100400001CEB010100F1FF346CD28E456AD9023831
:10041000614440EA0840A0FB0294A1EB0E01A14216
:10042000C846A64656D353D05DB1B3EB080261EB84
:100430000E0101FA07F722FA06F3F1401F43C5E95E
:10044000007100263146BDE8F087C2F12003D84094
:100450000CFA02FC21FA03F3914001434FEA1C47D6
:100460001FFA8CFEB3FBF7F007FB10360B0C43EAC8
:10047000064300FB0EF69E4204FA02F408D91CEB78
:10048000030300F1FF382FD29E422DD90238634476
:100490009B1B89B2B3FBF7F607FB163341EA034116
:1004A00006FB0EF38B4208D91CEB010106F1FF3865
:1004B00016D28B4214D9023E6144C91A46EA00465C
:1004C00038E72E46284605E70646E3E61846F8E6EE
:1004D0004B45A9D2B9EB020864EB0C0E0138A3E737
:1004E0004646EAE7204694E74046D1E7D0467BE718
:1004F000023B614432E7304609E76444023842E790
:1005000003685A004CBF43F0004323F000431844F3
:10051000704700BF2DE9F84329B34F1E0446154626
:100520003E464FF0000808EB060101EBD17149107F
:1005300004EBC1094846FFF7E3FF0346C800083053
:100540008F42204409D0AB4209D8FFF7D9FF0138C8
:10055000A8420AD201F10108E5E7AB4205D9884576
:1005600001D04E1EDFE74FF000094846BDE8F88392
:10057000012807D0022807D0044B00280CBF1846DA
:10058000002070470248704702487047490C000835
:100590004D0C0008510C000830B5234B83B00446C5
:1005A0008D1E3BB301A92846AFF30080E8B1019945
:1005B0002A46FFF7AFFF0146B8B1FFF7A1FF4B682E
:1005C000A064012B2CD0002B01F1040024DBFFF7E9
:1005D00097FF0023C4E913030368002B11DBFFF727
:1005E0008FFF2061002003B030BD0023092023616C
:1005F00003B030BD0D4B0E49C91AC9101846019100
:10060000D6E7C3F30360FFF7B3FF0028206114BFF0
:100610000020092003B030BD0123C4E91303DBE748
:10062000002323610520DEE7000000007478000845
:100630003C7900080368DA0710B5044606D49B0726
:1006400000F1480009D500F05BFC2368590709D583
:100650001A070ED5DB0613D510BD00F049FC236840
:100660005907F5D404F1D00000F052FC23681A07B2
:10067000F0D404F5A87000F053FC2368DB06EBD43B
:1006800004F5E870BDE8104000F08EBC092070470A
:100690000346006800B11844704700BF704700BFB0
:1006A00070B504460E46316C2046FFF775FF0546CF
:1006B00088B9326C6261236932462146012098472D
:1006C0000828F0D0072806D12846316CFFF7E6FF4E
:1006D000301D00F001FC05F045FA00BF2DE9F047A0
:1006E0000D1DD0F80C80D0F81890074614460FCD99
:1006F000ADF5727D0DF10C0CACE80F000FCDACE840
:100700000F000FCDACE80F0095E80F0002AE4FF0E0
:10071000000E8CE80F00C6F800E020E0336C7B612F
:100720004FF4F07231467AA800F056FE3B697AAA7F
:10073000394650469847889B73642146CDE9006945
:1007400005463B463A460120C0470446E0B94FF40F
:10075000F0727AA9304600F03FFE082D1AD1316CB4
:100760003846FFF719FF09345FFA84FA0546002876
:10077000D4D0B36B73643A46CDE900693B464AF086
:1007800010010120C04700B1092528460DF5727DF2
:10079000BDE8F087072DF7D12046316CFFF77EFFCB
:1007A00003A800F099FB00BF406C7047F0B5CB6B1D
:1007B0000B6401F1040C0E460546BCE80F00F9B0CD
:1007C00001AC0FC4BCE80F000FC4BCE80F000FC49D
:1007D0009CE80F004FF0FF3784E80F00009706E019
:1007E0002B696A46294698470828044608D110997B
:1007F0002846FFF7D1FE0028F2D0092079B0F0BDDD
:100800006846FFF717FF062CF7D131462846FFF759
:1008100047FF00BFC160D96B82611964002219468D
:100820005CE700BF70B5C66843690B64AEB9036985
:100830000A4604460D46014602209847072805D07F
:1008400008280FD129462046FFF72AFF3046296C99
:10085000FFF724FF281D00F03FFB0122FFF73EFFBA
:1008600005F080F905F07EF9C2681AB1CA6B0A6416
:10087000002233E79AE700BF704700BF8368014654
:100880000BB1012018477047012912D009D873B95C
:100890000F2A0CD800EB820218465368009A1360A6
:1008A00070470339012994BF0120022070470220BC
:1008B00070470846704700BF00B585B00A46002360
:1008C00003A900911946FFF7DFFF039805B05DF813
:1008D00004FB00BF012912D009D873B90F2A0CD824
:1008E00000EB8200009A1268426018467047033994
:1008F000012994BF0120022070470220704708465A
:10090000704700BF10B584B0002303AC039200947D
:100910000A461946FFF7DEFF04B010BD70B5D36B71
:10092000136402F1040C05460C46BCE80F00ADF55B
:100930000E7D0DF15C0EAEE80F00BCE80F00AEE8D6
:100940000F00BCE80F00AEE80F009CE80F004FF06E
:10095000FF368EE80F00169610E0FFF7D3FF214612
:1009600016A8A847034616AA6946082083B9049B1F
:100970009847052806460CD0092809D026996846CC
:10098000FFF70AFE03466A460C2116A8002BE4D0A6
:10099000092616A8FFF74EFE30460DF50E7D70BDF8
:1009A0002DE9F04FCC6C89B01E4654F8043B0694F8
:1009B0000D46174600F00308002E79D01A0C1B04D0
:1009C00005938DF81D200223D2B204EB82048DF82A
:1009D0001C302B6DB8F1020F08BFAC6B13F0010394
:1009E0000CD005A9384600F079FB18B9082009B0E9
:1009F000BDE8F08F092009B0BDE8F08FD4F800A061
:100A0000BAF1000FEDD0019300F008030293022E1B
:100A10004AD0B4F800A0B4F802900434AB6C29F0CA
:100A2000010B0F2138469B44FFF746FF834539D819
:100A30002AF001039B44834594BF002001204FEA24
:100A4000490303F002030AF0010A43EA0A03012BF7
:100A500049D0022B32D0002BCCD1B8F1000F02D0FC
:100A6000002840F0CD800434D4F800A0BAF1000F83
:100A7000CDD105A9384600F031FB0028BAD1019B41
:100A8000002BB3D00F213846FFF716FF0E21024688
:100A90003846FFF737FF38466A4A0F21FFF732FF23
:100AA0000720A8E70020CAE7D4F804900834B5E787
:100AB0001B0205930323ADF81C308AE7236823F05B
:100AC000004BB8F1000F45D128B1029A002A5CD042
:100AD000BBF1000F74D0002B00DA04340BF1010BD2
:100AE00004EB8B04C0E7B8F1000F19D1B0B1636813
:100AF0002268991C4FEAD2723FF47CAF05F158018D
:100B00000133049100F09080201DFFF7C1FD04AB7C
:100B100001462846AFF3008000285BD10834A3E7E4
:100B20000D213846D5F82090FFF7C6FE8145F5D156
:100B3000AB6A9C42F2D12046FFF7E2FC0F2102464D
:100B40003846FFF7DFFE38462A460021FFF7DAFE77
:100B5000072050E70D213846D5F82090FFF7ACFE6E
:100B6000814501D02368B6E7AB6A9C42FAD10423E1
:100B70000022C5E90B23E318C5F828B06B6323688E
:100B8000002B59DB01230193A8E705F15803CDF8A9
:100B90000C8004F1040AB04691461E460EE0504611
:100BA0000496FFF775FD0022014604AB284609F1C3
:100BB00001090AF1040AAFF30080E0B9D945EED18A
:100BC0000D213846FFF778FE049BAC62C5E90803A7
:100BD000062010E781460D213846FFF76DFEB9F17A
:100BE000020F286225D12B46049A43F82C2F6B6202
:100BF000AC620620FFE646462368DDF80C806AE713
:100C00002046FFF77DFC04340246AC6328461446B8
:100C1000AFF3008000283FF4EDAE384622460F21A6
:100C2000FFF770FE0720E6E60D213846FFF744FE89
:100C30002862049B6B62DBE70BF1010004EB800090
:100C40007AE700BF000000000023A9E60123A7E621
:100C50000223A5E62DE9F0430646C3B015461C461F
:100C6000042900F2BF80DFE801F09E57BD2D03008C
:100C7000002C40F0B780102A00F2B4800368D80638
:100C800000F1F98020AF384600F098F9B46B39468E
:100C900000234FF0010C0CFA03F22A42204603F124
:100CA000010303D050F8042B0A600446042B01F121
:100CB0000401F0D13846B46300F076F9002043B067
:100CC000BDE8F083032C40F08D8094B204EB124316
:100CD000102B4FEA124500F2858003681F0700F1D0
:100CE000D28020AF384600F03DF9B26B07EBC5016A
:100CF00054B10B46D01A01EBC401E4001D5843F86F
:100D0000045B8B42FAD122443846B26300F008F902
:100D1000002043B0BDE8F083012C4FEA124895B2A1
:100D20005CD0052C5ED108EB0509B9F1200F59D82C
:100D3000B8F10F0F79D9A946002D40F08A80B36B26
:100D40006DB320AF4FF0000907EBC807043F03EB7A
:100D5000C50553F8041B47F8041FAB42F9D1B9F19C
:100D6000000F0FD06F464146102938BF102107EB06
:100D7000C101843903EBC90553F8040B41F8040F92
:100D8000AB42F9D1012C00F08680B8F10F0FB563AA
:100D900047D9B9F1000F02D0684600F0B9F8002039
:100DA00043B0BDE8F083ECB9806B23461FFA82FCA8
:100DB0000124371D04FA03F212EA0C0F014604D095
:100DC00051F8042B47F8232008460133102BF1D1AA
:100DD00015F40055E3D1B063284604E008EB0503A1
:100DE000102B03D9022043B0BDE8F083B8F10F0FF8
:100DF000F8D83368DA0706D5304623F0030340F805
:100E0000483B00F079F820AF384600F075F8B36B36
:100E1000002D97D11D460435B563384600F068F8BB
:100E2000BDE720A800F06CF8B3E7B9F1100F40D986
:100E3000A9F110093368D90708D523F0010330461A
:100E400043F0020340F8483B00F05EF8B9F1000FB0
:100E500032D033685A0720D4B8F10F0F25D96F4626
:100E60003846C8F1100500F057F8002DB36B7FF736
:100E70007AAF20AF68E723F01003336006F5E8701F
:100E800000F09CF8FEE623F00803036000F5A8706C
:100E900000F068F825E720AFBDE7304623F00403F3
:100EA00040F8D03B00F038F8D6E720A800F02CF846
:100EB000D5E74FF00009BDE7B8F10F0F3FF63FAFA0
:100EC00020AF384600F020F8B36B002D7FF43AAF26
:100ED000384600F015F862E700F1340191E8380077
:100EE0009C46A6464CF8045D90E8FF0FE54600BD21
:100EF00090EC210B704700BF80EC210B704700BFC6
:100F000090EC200B704700BF80EC200B704700BFB7
:100F1000D0EC200B704700BFC0EC200B704700BF27
:100F2000F0EC0201F0EC0211F0EC0221F0EC0231E5
:100F3000F0EC0241F0EC0251F0EC0261F0EC0271D5
:100F4000F0EC0281F0EC0291F0EC02A1F0EC02B1C5
:100F5000F0EC02C1F0EC02D1F0EC02E1F0EC02F1B5
:100F6000704700BFE0EC0201E0EC0211E0EC02216E
:100F7000E0EC0231E0EC0241E0EC0251E0EC026115
:100F8000E0EC0271E0EC0281E0EC0291E0EC02A105
:100F9000E0EC02B1E0EC02C1E0EC02D1E0EC02E1F5
:100FA000E0EC02F1704700BFB0FC0181B0FC0191A0
:100FB000B0FC01A1B0FC01B1704700BFA0FC0181F1
:100FC000A0FC0191A0FC01A1A0FC01B1704700BFF1
:100FD000EC4600B52DE900502DE9FF1F4FF000034E
:100FE0002DE90C0001A9FFF7E1FBDDF840E012B0AC
:100FF000704700BFEC4600B52DE900502DE9FF1FFA
:101000004FF000032DE90C0001A9FFF70BFCDDF800
:1010100040E012B0704700BFEC4600B52DE900502B
:101020002DE9FF1F4FF000032DE90C0001A9FFF788
:101030001BFCDDF840E012B0704700BFEC4600B585
:101040002DE900502DE9FF1F4FF000032DE90C00A2
:1010500001ABFFF7DFFBDDF840E012B0704700BFE7
:10106000EC4600B52DE900502DE9FF1F4FF00003BD
:101070002DE90C0001AAFFF751FCDDF840E012B0A9
:10108000704700BF027A03467AB9427AA2B141683A
:10109000013A10B44272086803220C1D1A7202024F
:1010A0005C60000E10BC1A6070470068013A1A724A
:1010B00002021A60000E7047B020704700B585B07C
:1010C000002303AA009219460C22FFF7DDFB0398C8
:1010D00005B05DF804FB00BFF0E700BF2DE9F04369
:1010E000054685B00E464FF000083046FFF7CAFFB0
:1010F000B028044600F0BA80070620D500F0F003BF
:10110000802B4DD0902B36D0A02B60D0B02B74D03C
:10111000C02B00F08B8000F0F803D02B0BD100F037
:1011200007020132052342F4002201212846FFF77D
:1011300091FD0028D9D0092005B0BDE8F0838300D7
:10114000DBB21F1D0DF10C0900231946CDF80090EC
:101150000D222846FFF798FB039BCDF80090600610
:101160004CBFDF1BFF1800230D22194628460397AA
:10117000FFF7B0FBB9E700F00D030D2BDBD003AF99
:10118000002300F00F02194600972846FFF77CFB6A
:10119000002300970D2219462846FFF79BFBA4E782
:1011A0003046FFF76FFF24022043B0F5004FC2D056
:1011B00004010023A2B219462846FFF74BFD002880
:1011C000B9D114F4004F18BF4FF001088DE7C243A6
:1011D00002F007034FF47F621A41010702F47F62B5
:1011E0004FF0000348BF42F4804219462846FFF7FB
:1011F00031FD00283FF479AF9DE7B1283BD0B228FC
:1012000000F09380B32841D000F0FC03B42B92D0BF
:1012100000F007020132012342F400221946284659
:10122000FFF718FD00283FF460AF84E7C6284AD0D6
:10123000C72854D000F0F803C02B63D0C82868D06A
:10124000C9287FF478AF3046FFF71CFF020300F097
:101250000F0002F4702201300243012105232846C9
:10126000FFF7F8FC00283FF440AF64E7B8F1000F47
:1012700018D0002060E73046FFF704FF0246002840
:101280003FF459AF10F0F003C8D054E73046FFF7F1
:10129000F9FE020300F00F03013302F470221A4337
:1012A0000123BBE703AC43460E2241460094284687
:1012B000FFF7EAFA009443460F2241462846FFF71B
:1012C00009FB404638E73046FFF7DCFE020300F03A
:1012D0000F03013302F470221A4303239EE73046C2
:1012E000FFF7D0FE024600283FF425AF10F0F003D0
:1012F0007FF421AF04212846FFF7ACFC00283FF41F
:10130000F4AE18E700F00F020132032342F420226A
:1013100084E73046FFF7B6FE00F0F00200F00F035E
:101320001032013343EA023297E700230DF10C0932
:101330000D221946CDF800902846FFF7A5FA304651
:10134000FFF7A0FE02064FF002040CD5039B00F04D
:101350007F00A040184403903046FFF793FE030639
:1013600004F10704F2D4039BCDF8009000F07F0253
:10137000A24003F501731A440023039219460D227B
:101380002846FFF7A7FAB0E610B5C26C536884B0E0
:101390004FF0030C08321C0208461B0E01A90194F1
:1013A00002928DF80CC08DF80D30FFF797FE04B057
:1013B00010BD00BF08B5FFF78FFE806C08BD00BFF1
:1013C00008B5FFF789FEC06CC379023300EB8300D8
:1013D00008BD00BF704700BF844641EA000313F018
:1013E00003036DD1403A41D351F8043B40F8043B2C
:1013F00051F8043B40F8043B51F8043B40F8043BEF
:1014000051F8043B40F8043B51F8043B40F8043BDE
:1014100051F8043B40F8043B51F8043B40F8043BCE
:1014200051F8043B40F8043B51F8043B40F8043BBE
:1014300051F8043B40F8043B51F8043B40F8043BAE
:1014400051F8043B40F8043B51F8043B40F8043B9E
:1014500051F8043B40F8043B51F8043B40F8043B8E
:1014600051F8043B40F8043B403ABDD2303211D32E
:1014700051F8043B40F8043B51F8043B40F8043B6E
:1014800051F8043B40F8043B51F8043B40F8043B5E
:10149000103AEDD20C3205D351F8043B40F8043B2E
:1014A000043AF9D2043208D0D2071CBF11F8013B2C
:1014B00000F8013B01D30B8803806046704700BFF2
:1014C000082A13D38B078DD010F003038AD0C3F101
:1014D0000403D21ADB071CBF11F8013B00F8013BE3
:1014E00080D331F8023B20F8023B7BE7043AD9D3A2
:1014F000013A11F8013B00F8013BF9D20B78037077
:101500004B7843708B788370604670470000000012
:1015100000000000000000000000000000000000CB
:1015200000000000000000000000000000000000BB
:1015300000000000000000000000000000000000AB
:1015400090F800F06DE9024520F007016FF0000C03
:1015500010F0070491F820F040F049804FF00004AB
:101560006FF00700D1E9002391F840F000F1080086
:1015700082FA4CF2A4FA8CF283FA4CF3A2FA8CF3BE
:101580004BBBD1E9022382FA4CF200F10800A4FA25
:101590008CF283FA4CF3A2FA8CF3E3B9D1E9042379
:1015A00082FA4CF200F10800A4FA8CF283FA4CF3B0
:1015B000A2FA8CF37BB9D1E9062301F1200182FA6A
:1015C0004CF200F10800A4FA8CF283FA4CF3A2FA70
:1015D0008CF3002BC6D0002A04BF04301A4612BA7E
:1015E000B2FA82F2FDE8024500EBD2007047D1E981
:1015F000002304F00305C4F100004FEAC50514F010
:10160000040F91F840F00CFA05F562EA05021CBFE0
:1016100063EA050362464FF00004A9E700000000FA
:1016200001F0FF01102A2BDB10F0070F08D010F893
:10163000013B013A8B422DD010F0070F42B3F6D197
:10164000F0B441EA012141EA014122F007047FF0B0
:1016500000070023F0E80256083C85EA010586EA07
:10166000010685FA47F5A3FA87F586FA47F6A5FA43
:1016700087F68EB9EED1F0BC01F0FF0102F007024F
:1016800032B110F8013B013A83EA010313B1F8D1FA
:101690000020704701387047002D06BF35460338DB
:1016A000073815F0010F07D1013015F4807F02BF14
:1016B000013015F4C03F0130F0BC0138704700BF65
:1016C00000B585B000230093019302930393234850
:1016D000234A02604FF4803242608360012202613B
:1016E000037680F82030C3621E498162C360032103
:1016F000C16180F83030426100F0D0FD08BB0023AA
:1017000000930122019202936946144800F0F2FD11
:10171000D0B90123009302220192029369460F4837
:1017200000F0E8FD98B904230093032301930223FA
:1017300002936946094800F0DDFD58B905B05DF82F
:1017400004FB00F08BF9DAE700F088F9E1E700F03C
:1017500085F9E8E700F082F9F0E700BF70080020A3
:10176000002001400100000F30B589B00023039331
:101770000493059306930793026803F1804303F5EE
:1017800090339A4201D009B030BD0446002501953E
:1017900003F58C335A6C42F480725A645A6C02F42A
:1017A00080720192019A02951A6B42F001021A634B
:1017B0001B6B03F001030293029B13230393032388
:1017C000049303A9104801F077F81048104B036008
:1017D00045608560C5604FF4806303614FF400632A
:1017E00043614FF4005383614FF48073C36105621A
:1017F000456200F00DFF18B9044BA3639C63C2E778
:1018000000F02CF9F8E700BF00000240B808002003
:101810001064024000B583B000220192094B196B9D
:1018200041F4800119631B6B03F480030193019B56
:101830000521382000F03CFE382000F071FE03B096
:101840005DF804FB0038024008B504F04FF9024B84
:10185000186803F0F1FBF8E71809002008B5044AFE
:101860000021044802F004FB034B186008BD00BFD0
:10187000E0770008491800081809002030B58BB03F
:1018800000240594069407940894099401941D4B30
:101890001A6B42F080021A631A6B02F08002019206
:1018A000019A02941A6B42F004021A631A6B02F056
:1018B00004020292029A03941A6B42F001021A6324
:1018C0001A6B02F001020392039A04941A6B42F01D
:1018D00002021A631B6B03F002030493049B0A4D7C
:1018E00022465F21284601F0D9F85F2305930123A2
:1018F00006930794089405A9284600F0DDFF0BB075
:1019000030BD00BF003802400008024008B50B4857
:101910000B4B03600B4B436000238360C3604FF4A9
:101920008042026143618361C361036201F0C6F8D2
:1019300000B908BD00F092F8FBE700BF1C090020C9
:1019400000540040A086010008B50B480B4B036013
:101950000B4B436000238360C3604FF480420261FD
:1019600043618361C361036201F0A8F800B908BD57
:1019700000F074F8FBE700BF700900200058004039
:10198000A086010030B58BB0002305930693079322
:10199000089309930368274A934204D0264A934246
:1019A00024D00BB030BD00250195244C236B43F0AF
:1019B00002032363236B03F002030193019BC02303
:1019C000059312230693032308930423099305A97F
:1019D0001B4800F071FF0295236C43F4001323644D
:1019E000236C03F400130293029BDAE700250395AE
:1019F000124C236B43F002032363236B03F00203B7
:101A00000393039B4FF44063059312230693032330
:101A100008930423099305A9094800F04DFF049594
:101A2000236C43F480032364236C03F48003049346
:101A3000049BB6E7005400400058004000380240C4
:101A40000004024008B50268034B9A4200D008BD6A
:101A500000F064FBFBE700BF0010004072B6FEE739
:101A600000B595B03022002108A804F0ADF800239D
:101A7000039304930593069307930193204A116CF3
:101A800041F080511164126C02F080520192019A6F
:101A900002931C4B1A6842F480421A601B6803F4DC
:101AA00080430293029B012308934FF480330993F0
:101AB00002220E924FF480030F9304231093A82167
:101AC00011911292139308A801F0D6F898B90F2338
:101AD000039302230493002305934FF4A05306932A
:101AE0004FF480530793052103A801F02BFB20B985
:101AF00015B05DF804FBFFF7B1FFFFF7AFFF00BFC4
:101B0000003802400070004008B500F0EDFAFFF721
:101B1000A7FFFFF7B3FEFFF77DFEFFF7D1FDFFF74D
:101B2000F5FEFFF711FF00F0EFF900F02FF900F0DC
:101B300045FA00F05DFA054800F00AF802F06AF98B
:101B4000FFF78CFE02F078F9FEE700BFE80A0020FC
:101B500008B5054B1860054B18680023022219468A
:101B6000806804F0D9F808BDC409002010000020E6
:101B7000022801D80120704708B503F0FBFF0923B4
:101B80000360002008BD000010B5013801280AD804
:101B900014464FF0FF3392B20748006802F04FF846
:101BA00040B9204610BD03F0E5FF092303604FF064
:101BB000FF30F7E70520F5E7C4090020022801D827
:101BC0000020704708B503F0D5FF092303604FF0EC
:101BD000FF3008BD08B503F0CDFF092303604FF0C7
:101BE000FF3008BD08B548B94FF0FF33012208485F
:101BF000006802F090F840B9012008BD03F0BAFF78
:101C0000092303604FF0FF30F7E70520F5E700BF39
:101C1000C409002008B5022804D84FF400534B60D3
:101C2000002008BD03F0A6FF09230360F8E70000C9
:101C300000B583B0002200920D4B596C41F48041F5
:101C40005964596C01F48041009100990192196C1A
:101C500041F0805119641B6C03F080530193019B88
:101C60000F216FF0010000F023FC03B05DF804FBCE
:101C70000038024010B588B001460022362000F03E
:101C800017FC362000F04CFC00240194144B1A6C15
:101C900042F010021A641B6C03F010030193019BC5
:101CA00002A903A801F024FB01F002FB43000D4848
:101CB000A0FB03239B0C013B0B480C4A026040F243
:101CC000E732C26043600461846001F02FFD10B10F
:101CD000012008B010BD044801F0BEFBF9E700BFC9
:101CE0000038024083DE1B43C8090020001000407A
:101CF000FEE7FEE7FEE7FEE7FEE7704708B50248AD
:101D000001F0F2FB08BD00BFC809002008B5024879
:101D100000F0E4FC08BD00BFB808002001207047B7
:101D200008B503F027FF162303604FF0FF3008BD0E
:101D300008B54FF0FF31FFF7F3FFFEE708B50346A4
:101D40000B4A126842B10A4A106803446A46934239
:101D500006D8074A136008BD054A06491160F2E734
:101D600003F008FF0C2303604FF0FF30F3E700BFE0
:101D7000100A0020C8540020034AD2F8883043F4E7
:101D80007003C2F88830704700ED00E000B58DB0F8
:101D90002422002103A803F017FF002301930293DC
:101DA00011484FF080420260436083604FF0FF3281
:101DB000C26003618361012303930593099303A91F
:101DC00001F00CFD50B900230193029301A90648CC
:101DD00001F0C8FD28B90DB05DF804FBFFF73EFE29
:101DE000F1E7FFF73BFEF6E75C0A00200268094BCB
:101DF0009A4200D0704782B000230193064B5A6C80
:101E000042F001025A645B6C03F001030193019BF1
:101E100002B07047000001400038024070B588B041
:101E20000023039304930593069307930368B3F188
:101E3000804F01D008B070BD0024009403F50E332C
:101E40001A6C42F001021A641A6C02F0010200924C
:101E5000009A01941A6B42F001021A631A6B02F0A5
:101E600001020192019A02941A6B42F002021A6373
:101E70001B6B03F002030293029B202303930226B1
:101E800004960125079503A9064800F015FD0823CF
:101E90000393049605940694079503A9024800F05D
:101EA0000BFDC7E7000002400004024000B587B008
:101EB00000230193029303930493059302680F4B4D
:101EC0009A4202D007B05DF804FB002300930C4B4C
:101ED0001A6B42F001021A631B6B03F001030093BB
:101EE000009B4FF4C07301930223029301230593D7
:101EF00001A9044800F0E0FCE4E700BF0000014055
:101F0000003802400000024010B592B00024109446
:101F1000119409940A940B940C940D940E940F94BC
:101F20002022214601A803F04FFE2248224B0360E5
:101F3000446084604FF6FF73C36004614461846150
:101F400001F020FC002828D100231093119310A940
:101F5000184801F007FD18BB002209920A920B9263
:101F60000C920D920E920F9209A9124801F0CAFC30
:101F7000C8B90023019302930393049305934FF48C
:101F800000520692089301A90A4801F031FD68B990
:101F90000848FFF78BFF12B010BDFFF75FFDD3E7D6
:101FA000FFF75CFDD8E7FFF759FDE2E7FFF756FDC5
:101FB000EEE700BF140A00200000014008B50A48FF
:101FC0000A4B03604FF4E133436000238360C36036
:101FD00003610C2242618361C36101F001FE00B91B
:101FE00008BDFFF73BFDFBE7A40A002000100140FD
:101FF00008B50A480A4B03604FF4E13343600023FD
:102000008360C36003610C2242618361C36101F09C
:10201000E7FD00B908BDFFF721FDFBE7E80A002056
:102020000044004000B58BB000230593069307934E
:10203000089309930368284A934205D0274A93429C
:1020400026D00BB05DF804FB00210191244B5A6CA3
:1020500042F010025A645A6C02F010020192019A86
:1020600002911A6B42F001021A631B6B03F0010329
:102070000293029B4FF4C06305930223069303234C
:1020800008930723099305A9164800F015FCD8E723
:1020900000210391124B1A6C42F400321A641A6C3C
:1020A00002F400320392039A04911A6B42F0010287
:1020B0001A631B6B03F001030493049B0C23059329
:1020C00002230693032308930723099305A90548D0
:1020D00000F0F2FBB5E700BF0010014000440040F3
:1020E000003802400000024008B50B4B1A6842F469
:1020F00000721A601A6842F480621A601A6842F428
:1021000080721A60032000F0C1F90F20FFF7B2FDC2
:10211000FFF78EFD002008BD003C0240034A116815
:10212000034B1B780B441360704700BF2C0B00203F
:1021300004000020014B1868704700BF2C0B0020E2
:1021400038B50446FFF7F6FF0546B4F1FF3F02D06D
:10215000044B1B781C44FFF7EDFF401BA042FAD351
:1021600038BD00BF040000204A4B5A6822F44032B8
:102170005A605A6841680A435A600268536823F4F7
:102180008073536002685368016943EA0123536016
:102190000268536823F04073536002685368816893
:1021A0000B4353600268936823F4006393600268F2
:1021B0009368C1680B439360826A374B9A4257D049
:1021C0000268936823F07063936002689368816A81
:1021D0000B4393600268936823F040539360026856
:1021E0009368C16A0B4393600268936823F002030B
:1021F000936002689368017E43EA4103936090F81C
:102200002030002B3FD00268536843F400635360D2
:102210000268536823F46043536001684B68426A64
:10222000013A43EA42334B600268D36A23F47003F5
:10223000D3620168CB6AC269013A43EA0253CB62B6
:102240000268936823F4007393600268936890F8BF
:10225000301043EA412393600268936823F480635B
:10226000936002689368416943EA812393607047F1
:102270000268936823F0706393600268936823F0A8
:1022800040539360B0E70268536823F400635360DF
:10229000CAE700BF002301400100000F38B310B5AA
:1022A0000446036C43B1236C13F0100F0BD00120D4
:1022B000002384F83C3010BDFFF756FA0023636416
:1022C00084F83C30EFE7236C23F4885323F00203B7
:1022D00043F0020323642046FFF746FF00206064BA
:1022E000236C23F0030343F001032364E0E70120A0
:1022F0007047000030B482B00023019390F83C3066
:10230000012B00F0BB80012380F83C300B68092BC7
:1023100041D90468E2689BB203EB43031E3B4FF0D4
:10232000070C0CFA03F322EA0303E3600468E26893
:102330000B8803EB43031E3B8D6805FA03F313433D
:10234000E3604B68062B3DD80468626B03EB8303A4
:10235000053B4FF01F0C0CFA03F322EA03036363FF
:102360000468626B4B6803EB8303053BB1F800C064
:102370000CFA03F3134363630268414B9A4251D052
:1023800002683F4B9A4256D0002380F83C301846F2
:1023900002B030BC7047046822699BB203EB430370
:1023A0004FF0070C0CFA03F322EA030323610468DD
:1023B00022690B8803EB43038D6805FA03F313438B
:1023C0002361BEE70C2B16D805682A6B03EB830349
:1023D000233B1F2404FA03F322EA03032B6305685B
:1023E0002A6B4B6803EB8303233B0C8804FA03F34B
:1023F00013432B63C0E70568EA6A03EB8303413BA1
:102400001F2404FA03F322EA0303EB620568EA6A75
:102410004B6803EB8303413B0C8804FA03F313433B
:10242000EB62A9E70B68122BAAD1164A536843F452
:1024300080035360A4E70B68103B012BA4D8114A1A
:10244000536843F4000353600B68102B9CD10E4B70
:102450001B6802F1467202F52E3202F28332A2FBB1
:1024600003239B0C03EB83035B00019302E0019BBE
:10247000013B0193019B002BF9D185E7022087E7FF
:10248000002001400023014000000020074AD368DB
:1024900023F4E0631B041B0C000200F4E060034320
:1024A00043F0BF6343F40033D360704700ED00E0B6
:1024B00000B5194BDB68C3F30223C3F1070CBCF171
:1024C000040F28BF4FF0040C03F1040EBEF1060FF9
:1024D00018D9033B4FF0FF3E0EFA0CFC21EA0C0129
:1024E00099400EFA03F322EA0303194300280BDB99
:1024F0000901C9B200F1604000F5614080F80013A5
:102500005DF804FB0023E5E700F00F000901C9B204
:10251000024B1954F4E700BF00ED00E014ED00E0B9
:10252000002807DB00F01F02400901239340024A04
:1025300042F82030704700BF00E100E010B40368AB
:10254000D9B210390C4AA2FB014212090B4CA25C11
:10255000C2655F2909D923F47F7323F00303043391
:102560008365806D5DF8044B704723F47F7323F01F
:1025700003038365F5E700BFABAAAAAA1C7800088D
:10258000836A826992B9012B0AD0022B02D00BB167
:1025900000207047C36A13F0807F28D10020704765
:1025A000C36AB3F1C07F24D000207047B2F5005F4A
:1025B00009D0022B25D9032B25D1C36A13F0807FC4
:1025C00023D100207047032B03D8DFE803F0140465
:1025D000140A00207047C36A13F0807F0DD10020D9
:1025E0007047C36AB3F1C07F09D000207047012053
:1025F000704701207047012070470120704701207B
:10260000704701207047002070470120704700008C
:1026100070B50446FFF78EFD002C5BD00546022303
:1026200084F83530002384F834302268136823F0AE
:102630000103136023681A6812F0010F0AD0FFF734
:1026400079FD431B052BF5D920236365032084F80E
:10265000350070BD1A68204810406168A2680A43BE
:10266000E1680A4321690A4361690A43A1690A438F
:10267000E1690A43216A0A430243616A04291ED0C0
:102680001A602668756925F00705636A1D43042BE7
:1026900007D1A36A1D43E36A1BB12046FFF770FF11
:1026A00090B975612046FFF749FFE26D3F239340E3
:1026B000836000206065012384F83530C9E7E16A52
:1026C000206B01430A43DBE740236365012084F864
:1026D0003500BEE70120BCE73F8010F0F0B583B0C5
:1026E000044600230193724B1D68724BA3FB053512
:1026F000AD0A876D3E68C26D08239340334210D007
:1027000003681A6812F0040F0BD01A6822F0040252
:102710001A60C26D08239340BB60436D43F0010310
:102720004365E26D01239340334209D02268526928
:1027300012F0800F04D0BB60636D43F00203636549
:10274000E26D04239340334209D02268126812F0EC
:10275000020F04D0BB60636D43F004036365E26D58
:1027600010239340334224D02268126812F0080FDD
:102770001FD0BB6023681A6812F4802F0DD01B682D
:1027800013F4002F04D1236C9BB12046984710E02E
:10279000A36C73B1204698470BE01A6812F4807F4F
:1027A00003D11A6822F008021A60236C0BB120468C
:1027B0009847E26D20239340334255D02268126837
:1027C00012F0100F50D0BB6094F83530DBB2052BFF
:1027D0000ED023681A6812F4802F33D01B6813F4CC
:1027E000002F2AD1636C002B3ED0204698473BE057
:1027F0002268136823F0160313602268536923F0DC
:1028000080035361236CA3B12268136823F008038B
:102810001360E26D3F239340BB60012384F83530A1
:10282000002384F83430236D002B3FD02046984796
:102830003CE0A36C002BE7D1EBE7E36BA3B12046B0
:10284000984711E01A6812F4807F09D11A6822F0C3
:1028500010021A60012384F83530002384F83430E4
:10286000E36B0BB120469847636DFBB1636D13F0CA
:10287000010F17D0052384F835302268136823F040
:1028800001031360019B01330193AB4204D8236819
:102890001B6813F0010FF5D1012384F835300023B4
:1028A00084F83430E36C0BB12046984703B0F0BD98
:1028B00000000020B5814E1B00230F2B00F2E480A6
:1028C00070B582B060E085685E000324B44025EAFC
:1028D0000405CC68B4402C438460456825EA0205B1
:1028E0004C68C4F300129A402A4342605AE0DC0864
:1028F000083450F8246003F0070295000F22AA4024
:1029000026EA020E0A69AA4042EA0E0240F8242092
:102910005CE0072200E0002202FA0EF22A430234B1
:102920005A4D45F824205A4A14686FEA0C0224EAEA
:102930000C054E6816F4803F01D04CEA0405544C57
:102940002560646802EA04054E6816F4003F01D071
:102950004CEA04054E4C6560A46802EA04054E6822
:1029600016F4801F01D04CEA0405494CA560E468C8
:1029700022404D6815F4001F01D04CEA0402444C7B
:10298000E26001330F2B7DD801229A400C6804EAE3
:10299000020C32EA0404F4D14C6804F00304013C54
:1029A000012C90D94A6802F00302032A09D0C468B6
:1029B0005D000322AA4024EA02048A68AA40224356
:1029C000C2604A6802F00302022A90D004684FEA0B
:1029D000430E032202FA0EF224EA02044A6802F0CD
:1029E000030202FA0EF2224302604A6812F4403FE8
:1029F000C7D000220192274A546C44F480445464A6
:102A0000526C02F480420192019A9C08A51C1F4A54
:102A100052F8255003F003024FEA820E0F2202FA09
:102A20000EF225EA02051C4A90423FF474AF02F50B
:102A3000806290421AD002F58062904218D002F56E
:102A40008062904216D002F58062904214D002F566
:102A50008062904212D002F58062904210D002F55E
:102A6000806290423FF455AF082255E7012253E7B8
:102A7000022251E703224FE704224DE705224BE7EC
:102A8000062249E702B070BD704700BF0038014020
:102A9000003C014000380240000002400AB1816160
:102AA0007047090481617047436901EA030221EA22
:102AB000030141EA0241816170470000002800F0F3
:102AC000CC8070B5044690F83D30002B77D024239D
:102AD00084F83D302268136823F0010313602268F4
:102AE000136843F4004313602268136823F400431F
:102AF000136000F0DDFB62685A4B9A4264D85A4B6F
:102B000098428CBF00230123002B40F0A880574936
:102B1000A1FB00318B0C25686A6822F03F0242EA73
:102B200091426A6021680A6A22F03F0266684D4D50
:102B3000AE424FD8013313430B622168CA6922F4B5
:102B40004F4222F0FF026668464B9E424CD8431E1D
:102B50007600B3FBF6F3013340F6FC70034278D005
:102B6000C3F30B031343CB6121680B6823F0C0034D
:102B7000E269206A024313430B6021688B6823F4E7
:102B8000034323F0FF032269E068024313438B6091
:102B90002168CB6823F0FF036269A06902431343F5
:102BA000CB602268136843F00103136000202064A7
:102BB000202384F83D30206384F83E0070BD80F807
:102BC0003C30FEF7DFFE82E7294B98428CBF0023A2
:102BD000012399E74FF4967505FB03F3254DA5FBFB
:102BE00003539B090133A6E7A368BBB9451E06EB57
:102BF000460CB5FBFCF50135C5F30B05B5FA85F5BB
:102C00006D0945BBC3B9013806EB4603B0FBF3F3CE
:102C10000133C3F30B0343F40043A3E7451E06EB64
:102C2000860C0CEB8C0CB5FBFCF50135C5F30B05E4
:102C3000B5FA85F56D09E4E7013806EB860303EB89
:102C40008303B0FBF3F30133C3F30B0343F44043BB
:102C500088E7042386E7012384E7012070470120E9
:102C6000ACE700BFA08601007F841E0083DE1B430B
:102C7000FF083D00D34D6210002800F0E08170B5E0
:102C800082B00446036813F0010F3BD09F4B9B6852
:102C900003F00C03042B2CD09C4B9B6803F00C031B
:102CA000082B21D06368B3F5803F4FD0B3F5A02F38
:102CB00052D0964B1A6822F480321A601A6822F4B5
:102CC00080221A606368002B50D0FFF733FA054664
:102CD0008E4B1B6813F4003F14D1FFF72BFA401BF7
:102CE0006428F5D90320B1E1884B5B6813F4800FA9
:102CF000D8D0864B1B6813F4003F03D06368002BC9
:102D000000F09F81236813F0020F54D07F4B9B6823
:102D100013F00C0F3ED07D4B9B6803F00C03082B87
:102D200033D0E368002B68D0794B01221A60FFF79B
:102D300001FA0546754B1B6813F0020F54D1FFF7DB
:102D4000F9F9401B0228F5D903207FE16F4A136887
:102D500043F480331360B5E76C4B1A6842F4802269
:102D60001A601A6842F480321A60ABE7FFF7E2F9A2
:102D70000546664B1B6813F4003FC3D0FFF7DAF932
:102D8000401B6428F5D9032060E1604B5B6813F4B5
:102D9000800FC6D15D4B1B6813F0020F03D0E368B0
:102DA000012B40F05081594A136823F0F803216940
:102DB00043EAC1031360236813F0080F42D063692C
:102DC0006BB3534B0122C3F8802EFFF7B3F90546CE
:102DD0004E4B5B6F13F0020F34D1FFF7ABF9401B82
:102DE0000228F5D9032031E1484A136823F0F8039B
:102DF000216943EAC1031360DDE7454B00221A60F5
:102E0000FFF798F90546414B1B6813F0020FD2D02B
:102E1000FFF790F9401B0228F5D9032016E13C4B3F
:102E20000022C3F8802EFFF785F90546374B5B6F0C
:102E300013F0020F06D0FFF77DF9401B0228F5D9E9
:102E4000032003E1236813F0040F77D02F4B1B6C92
:102E500013F0805F33D1002301932C4B1A6C42F0A6
:102E600080521A641B6C03F080530193019B01256F
:102E7000284B1B6813F4807F23D0A368012B34D028
:102E8000052B38D0214B1A6F22F001021A671A6FF6
:102E900022F004021A67A368002B3DD0FFF74AF91D
:102EA00006461A4B1B6F13F0020F46D1FFF742F98B
:102EB000801B41F288339842F3D90320C6E00025F5
:102EC000D6E7144A136843F480731360FFF732F9AE
:102ED0000646104B1B6813F4807FCED1FFF72AF90A
:102EE000801B0228F5D90320B0E0084A136F43F095
:102EF00001031367CFE7054B1A6F42F004021A670C
:102F00001A6F42F001021A67C5E700BF003802409D
:102F10000000474200700040FFF70CF90646524B94
:102F20001B6F13F0020F08D0FFF704F9801B41F26A
:102F300088339842F3D9032088E0EDB9A369002BC8
:102F400000F08380484A926802F00C02082A51D0AF
:102F5000022B17D0454B00221A66FFF7EBF8044608
:102F6000414B1B6813F0007F42D0FFF7E3F8001BD2
:102F70000228F5D9032069E03B4A136C23F0805303
:102F80001364DBE7394B00221A66FFF7D3F80546D6
:102F9000354B1B6813F0007F06D0FFF7CBF8401BC2
:102FA0000228F5D9032051E0E369226A1343626ADB
:102FB00043EA8213A26A5208013A43EA0243E26AF0
:102FC00043EA0263284A5360284B01221A66FFF73E
:102FD000B1F80446244B1B6813F0007F06D1FFF7BD
:102FE000A9F8001B0228F5D903202FE000202DE0CE
:102FF00000202BE0012B2BD01B4B5B6803F48001DE
:10300000E269914226D103F03F02216A8A4223D12C
:10301000616A47F6C0721A40B2EB811F1ED103F4F9
:103020004031A26A5208013AB1EB024F18D103F0C5
:103030007063E26AB3EB026F14D1002006E0012056
:103040007047012002E0012000E0002002B070BDC6
:103050000120FBE70120F9E70120F7E70120F5E770
:103060000120F3E70120F1E7003802400000474269
:1030700008B5314B9B6803F00C03042B57D0082B89
:1030800057D12D4B5A6802F03F025B6813F4800F52
:103090002AD0294B5968C1F3881C4FEA4C11B1EB77
:1030A0000C006EEB0E0E4FEA8E1343EA9063810123
:1030B000091A63EB0E03DB0043EA5173C90011EBFD
:1030C0000C0C43F10003590200234FEA4C2041EA63
:1030D000DC51FDF795F8184B5B68C3F301430133EE
:1030E0005B00B0FBF3F025E0134B5968C1F3881C7B
:1030F0004FEA4C11B1EB0C006EEB0E0E4FEA8E1343
:1031000043EA90638101091A63EB0E03DB0043EA93
:103110005173C90011EB0C0C43F100039902002319
:103120004FEA8C2041EA9C51FDF76AF8D3E7034847
:1031300000E0034808BD00BF0038024000127A00DA
:103140000024F400002800F09B8070B50D46044672
:103150004F4B1B6803F007038B4208D2CBB24C4A9B
:103160001370136803F007038B4240F08B802368D1
:1031700013F0020F17D013F0040F04D0454A9368E0
:1031800043F4E0539360236813F0080F04D0414ADE
:10319000936843F4604393603E4A936823F0F003DE
:1031A000A1680B439360236813F0010F32D063686A
:1031B000012B21D09A1E012A25D9364A126812F015
:1031C000020F61D033498A6822F0030213438B60F7
:1031D000FEF7B0FF06462F4B9B6803F00C036268B6
:1031E000B3EB820F16D0FEF7A5FF801B41F28833A8
:1031F0009842F0D9032042E0264A126812F4003FB8
:10320000E0D101203BE0234A126812F0007FD9D1BF
:10321000012034E01E4B1B6803F00703AB4207D9C3
:10322000EAB21B4B1A701B6803F00703AB422DD1A7
:10323000236813F0040F06D0164A936823F4E05372
:10324000E1680B439360236813F0080F07D0114A1D
:10325000936823F46043216943EAC1039360FFF755
:1032600007FF0C4B9B68C3F303130B4AD35CD84096
:103270000A4B18600A4B1868FEF7FCFC002070BD72
:10328000012070470120FAE70120F8E70120F6E766
:10329000003C024000380240047800080000002092
:1032A00008000020014B1868704700BF0000002094
:1032B00008B5FFF7F7FF044B9B68C3F38223034A6B
:1032C000D35CD84008BD00BF003802401478000825
:1032D00008B5FFF7E7FF044B9B68C3F34233034A8B
:1032E000D35CD84008BD00BF003802401478000805
:1032F0000F2303600B4B9A6802F0030242609A6846
:1033000002F0F00282609A6802F4E052C2609B68A8
:10331000DB0803F4E0530361034B1B6803F007036E
:103320000B60704700380240003C024030B4036A32
:1033300023F001030362036A4268846924F0730482
:103340000D682C4323F0020C8B6843EA0C03104DEC
:10335000A84203D005F58065A84205D123F00803F3
:10336000CD682B4323F00403094DA84203D005F593
:103370008065A84205D122F440724D692A438D69C7
:103380002A43426084614A684263036230BC7047EA
:103390000000014030B4036A23F480730362036ABF
:1033A0004268C46924F0730C0C6844EA0C0523F4E9
:1033B00000738C6843EA0423114CA04203D004F547
:1033C0008064A04206D123F40063CC6843EA04235E
:1033D00023F480630A4CA04203D004F58064A04229
:1033E00007D122F440524C6942EA04128C6942EA45
:1033F00004124260C5614A68C263036230BC704710
:103400000000014030B4036A23F480530362036A6E
:103410004468C26922F4E6420D6842EA052223F4B8
:1034200000538D6843EA0533094DA84203D005F5E2
:103430008065A84204D124F480444D6944EA85148F
:103440004460C2614A680264036230BC704700BFD6
:10345000000001407047000090F83D30DBB2012BC6
:1034600037D1022380F83D300268D36843F001036E
:10347000D3600368194A934220D0B3F1804F1DD026
:10348000A2F57C42934219D002F58062934215D096
:1034900002F58062934211D002F5784293420DD03A
:1034A00002F57052934209D0A2F59432934205D0AE
:1034B0001A6842F001021A60002070479A6802F010
:1034C0000702062A07D01A6842F001021A6000209B
:1034D0007047012070470020704700BF0000014086
:1034E000704770477047704710B5044603681A6903
:1034F00012F0020F11D0DA6812F0020F0DD06FF047
:1035000002021A610123037703689B6913F0030F1A
:1035100070D0FFF7E6FF0023237723681A6912F0C3
:10352000040F12D0DA6812F0040F0ED06FF004020C
:103530001A610223237723689B6913F4407F5FD0CD
:103540002046FFF7CEFF0023237723681A6912F085
:10355000080F12D0DA6812F0080F0ED06FF00802D0
:103560001A61042323772368DB6913F0030F4ED01D
:103570002046FFF7B6FF0023237723681A6912F06D
:10358000100F12D0DA6812F0100F0ED06FF0100288
:103590001A61082323772368DB6913F4407F3DD049
:1035A0002046FFF79EFF0023237723681A6912F055
:1035B000010F03D0DA6812F0010F36D123681A69BF
:1035C00012F0800F03D0DA6812F0800F34D1236834
:1035D0001A6912F0400F03D0DA6812F0400F32D1AE
:1035E00023681A6912F0200F03D0DA6812F0200F56
:1035F00030D110BDFFF774FF2046FFF773FF8AE755
:103600002046FFF76DFF2046FFF76CFF9BE7204643
:10361000FFF766FF2046FFF765FFACE72046FFF7A0
:103620005FFF2046FFF75EFFBDE76FF001021A6102
:103630002046FEF707FAC1E76FF080021A612046C4
:1036400000F000FAC3E76FF040021A612046FFF76E
:103650004AFFC5E76FF020021A61204600F0F1F939
:10366000C7E700000368304A904212D0B0F1804FA3
:103670000FD0A2F57C4290420BD002F580629042BE
:1036800007D002F58062904203D002F57842904262
:1036900003D123F070034A681343234A90422AD08F
:1036A000B0F1804F27D0A2F57C42904223D002F5A2
:1036B000806290421FD002F5806290421BD002F5DA
:1036C0007842904217D002F57052904213D002F522
:1036D000806290420FD002F5806290420BD0A2F53A
:1036E0009832904207D002F58062904203D002F5F2
:1036F0008062904203D123F44073CA68134323F0DD
:1037000080034A69134303608B68C3620B6883625A
:10371000054B984203D003F58063984201D10B69B1
:1037200003630123436170470000014040B310B5BB
:10373000044690F83D30F3B1022384F83D30214631
:1037400051F8040BFFF78EFF012384F8463084F80C
:103750003E3084F83F3084F8403084F8413084F8BB
:10376000423084F8433084F8443084F8453084F89B
:103770003D30002010BD80F83C30FFF76BFEDBE7EA
:103780000120704740B310B5044690F83D30F3B1C6
:10379000022384F83D30214651F8040BFFF762FF05
:1037A000012384F8463084F83E3084F83F3084F8B2
:1037B000403084F8413084F8423084F8433084F853
:1037C000443084F8453084F83D30002010BD80F846
:1037D0003C30FEF70BFBDBE701207047002856D09A
:1037E000F8B50D46044690F83D30002B4AD0022330
:1037F00084F83D302268936823F4804323F0070364
:103800009360214651F8040BFFF72CFF21688A686A
:103810008B690E6A2868104323F4407C2CF0030C5B
:10382000AA68AB6942EA032343EA0C0323F47C430E
:1038300023F0FC03EA69EF6847EA022C4CEA030C28
:103840002A6A13032A6943EA021343EA0C0326F0A7
:10385000AA066A686D6942EA0512324388602168E7
:103860008B6123681A62012384F8463084F83E3065
:1038700084F83F3084F8423084F8433084F83D3097
:103880000020F8BD80F83C30FEF7C8FAAFE7012011
:103890007047000030B4036A23F010030362036A28
:1038A0004468826922F4E6420D6842EA052223F068
:1038B00020038D6843EA0513114DA84203D005F596
:1038C0008065A84206D123F08003CD6843EA051342
:1038D00023F040030A4DA84203D005F58065A842B5
:1038E00007D124F440644D6944EA85048D6944EAB3
:1038F0008504446082614A688263036230BC704719
:103900000000014090F83C30012B28D010B504464F
:10391000012380F83C300C2A1CD8DFE802F0071B9A
:103920001B1B0C1B1B1B111B1B1B16000068FFF72E
:10393000FDFC00200FE00068FFF7ACFF00200AE06C
:103940000068FFF727FD002005E00068FFF75AFD3B
:10395000002000E00120002384F83C3010BD02204C
:103960007047000090F83C30012B3DD010B401238B
:1039700080F83C30022380F83D3003685A689C6828
:1039800022F0700C0A6842EA0C025A600368174A77
:1039900093421AD0B3F1804F17D0A2F57C429342E4
:1039A00013D002F5806293420FD002F580629342F9
:1039B0000BD002F57842934207D002F57052934241
:1039C00003D0A2F59432934204D124F080044A68D3
:1039D00014439C60012380F83D30002380F83C3084
:1039E00018465DF8044B7047022070470000014004
:1039F00090F83C30012B22D0012380F83C30CB687A
:103A000023F440738A68134323F480634A681343A2
:103A100023F400630A68134323F480530A691343B1
:103A200023F400534A69134323F48043CA691343C0
:103A300002685364002380F83C3018467047022027
:103A4000704770477047000038B504460268136934
:103A500023F44053C1680B43136183680269134325
:103A600042691343C2691A430168CB6823F41643C1
:103A700023F00C031343CB600268536923F44073B3
:103A800081690B4353610368314A934206D002F5C2
:103A90008062934202D0FFF70BFC01E0FFF718FCB5
:103AA000E369B3F5004F29D00021031849411B18E1
:103AB00041F10001C90041EA5371DB001818636845
:103AC0004FEA83024FEA937341F10001FCF798FB40
:103AD000204DA5FB00325109642303FB11031B0198
:103AE0003233A5FB03235B0903F0F00202EB011262
:103AF00003F00F03216813448B6038BD00230218C4
:103B000043EB0301121841F10001C90041EA52716F
:103B1000D200101841F10001626892185B41FCF775
:103B20006FFB0C4DA5FB00325109642303FB11030D
:103B3000DB003233A5FB03235B095A0002F4F87261
:103B400002EB011203F00703216813448B60D4E7F2
:103B5000001001401F85EB512DE9F84305460F4643
:103B600016469946DDF820802C68246837EA04035D
:103B70000CBF4FF0010C4FF0000CB4452DD1B8F143
:103B8000FF3FF1D0B8F1000F05D0FEF7D3FAA0EB5C
:103B900009004045E8D92A6802F10C0353E8003FC8
:103BA00023F4D0730C3242E800310029F3D12A68A3
:103BB00002F1140353E8003F23F00103143242E8FA
:103BC00000310029F3D1202385F83D3085F83E30BF
:103BD000002385F83C30032000E00020BDE8F88396
:103BE00058B310B5044690F83D300BB3242384F845
:103BF0003D302268D36823F40053D3602046FFF79A
:103C000023FF2268136923F49043136122685369E8
:103C100023F02A0353612268D36843F40053D3602E
:103C200000202064202384F83D3084F83E3010BD0D
:103C300080F83C30FEF7F6F9D8E7012070472DE90F
:103C4000F04182B01E4690F83D30DBB2202B54D1BB
:103C500004460D469046002953D0002A53D090F8D0
:103C60003C30012B51D0012380F83C300023036409
:103C7000212380F83D30FEF75DFA0746A4F8248042
:103C8000A4F82680A368B3F5805F05D04FF0000844
:103C9000002384F83C3012E0236913B14FF0000890
:103CA000F6E7A8460025F3E738F8023B2268C3F39D
:103CB00008035360E28C92B2013A92B2E284E38C40
:103CC0009BB273B100963B46002280212046FFF74D
:103CD00043FFE0B9002DE7D015F8012B23685A60A7
:103CE000E8E700963B46002240212046FFF734FFDC
:103CF00078B9202384F83D3000E0022002B0BDE80E
:103D0000F0810120FAE70120F8E70220F6E703201E
:103D1000F4E70320F2E72DE9F04182B01E4690F867
:103D20003E30DBB2202B5CD104460D469046002984
:103D30005BD0002A5BD090F83C30012B59D0012396
:103D400080F83C3000230364222280F83E20036385
:103D5000FEF7F0F90746A4F82C80A4F82E80A3689B
:103D6000B3F5805F05D04FF00008002384F83C30A5
:103D700017E0236913B14FF00008F6E7A8460025C5
:103D8000F3E723685B68C3F3080328F8023B03E00A
:103D900023685B682B700135E28D92B2013A92B2D2
:103DA000E285E38D9BB2BBB100963B460022202109
:103DB0002046FFF7D1FEF0B9002DE2D0A368B3F59D
:103DC000805FE5D013B92369002BE1D023685B68DD
:103DD00003F07F032B70DEE7202384F83E300020C1
:103DE00000E0022002B0BDE8F0810120FAE70120E6
:103DF000F8E70220F6E70320F4E708B54FF0E023E8
:103E00001B6901F0F1FB012800D108BD00F0C2F9E7
:103E1000FBE70000EFF305832BB9064B186828B9C0
:103E200001221A6070476FF0050070474FF0FF30B5
:103E3000704700BF8C0D0020EFF3058373B90A4B68
:103E40001B68012B0DD110B50024084BDC77064B05
:103E500002221A6001F04CF9204610BD6FF00500F7
:103E600070474FF0FF3070478C0D002000ED00E0F0
:103E7000F0B587B000240594EFF3058474BB68B3F4
:103E800022B31568936903B918235C1E372C49D8EF
:103E9000546814F0010F47D156696EB14FEA960C81
:103EA00094682CB1D7685B2F02D9176907B1C6B9DE
:103EB0002CB14FF0FF340EE04FF0800CF0E7D468E7
:103EC0008CB9146994B14FF0FF3404E01546002416
:103ED00018234FF0800C012C0AD0ACB1059807B024
:103EE000F0BD0124F7E74FF0FF34F4E70024F2E7D8
:103EF000146992680292019400930B466246294627
:103F000001F02AF80590E9E705AA019200930B4613
:103F10001FFA8CF2294601F05AF80128DED000235E
:103F20000593DBE70020DAE70020D8E7034B0360C6
:103F3000034B0B6080231360704700BF300D0020DF
:103F4000300B0020034B0360034B0B604FF4807376
:103F50001360704790110020900D002000F10803BD
:103F600043604FF0FF328260C3600361002303604F
:103F7000704700230361704743684B609A688A600A
:103F8000516099600861036801330360704730B481
:103F90000D68B5F1FF3F11D000F108031C465B68C6
:103FA0001A68AA42FAD963684B6099608C606160B4
:103FB000086103680133036030BC70470469F2E7AD
:103FC0000369416882688A60416851605A68824228
:103FD00006D0002202611A68013A1A601868704718
:103FE00082685A60F5E7000082B0002301930D4B10
:103FF0001B68B3F1FF3F08D04FF0500383F31188E3
:10400000BFF36F8FBFF34F8FFEE74FF0500383F383
:104010001188BFF36F8FBFF34F8F019B002BFCD034
:1040200002B070470C00002008480068006880F368
:1040300008884FF0000080F3148862B661B6BFF3C1
:104040004F8FBFF36F8F00DF00BF000008ED00E06F
:10405000DFF80C00016841F4700101607047000056
:1040600088ED00E04FF0807340F8043C21F001013E
:1040700040F8081C054B40F80C3C40F8202C6FF031
:10408000020340F8243C4438704700BFE93F000871
:10409000074B19680868B0E8F04F80F30988BFF350
:1040A0006F8F4FF0000080F311887047AFF30080EE
:1040B000544E00204FF0500383F31188BFF36F8FED
:1040C000BFF34F8F0B4A136801331360012B00D0ED
:1040D00070474FF0E023D3F8043D13F0FF0FF7D003
:1040E0004FF0500383F31188BFF36F8FBFF34F8FEF
:1040F000FEE700BF0C000020094B1B6843B94FF0DE
:10410000500383F31188BFF36F8FBFF34F8FFEE728
:10411000013B034A13600BB983F31188704700BF5A
:104120000C00002000000000000000000000000063
:10413000EFF30980BFF36F8F154B1A681EF0100F55
:1041400008BF20ED108A20E9F04F10602DE909002A
:104150004FF0500080F31188BFF34F8FBFF36F8F84
:1041600001F02AF94FF0000080F3118809BC1968AA
:104170000868B0E8F04F1EF0100F08BFB0EC108ACE
:1041800080F30988BFF36F8F704700BFAFF30080E3
:10419000544E002008B54FF0500383F31188BFF34D
:1041A0006F8FBFF34F8F00F0FFFF28B14FF0E02378
:1041B0004FF08052C3F8042D002383F3118808BD0B
:1041C0004FF0E022002313619361054B1B68054902
:1041D000A1FB03139B09013B536107231361704744
:1041E00000000020D34D62104FF0E023D3F8002DE3
:1041F0003D4B9A421CD04FF0E023D3F8002D3B4BAF
:104200009A421ED030B583B0394B1A78D2B201929F
:10421000FF221A701B78DBB28DF803309DF8033053
:1042200003F05003334A1370334B07221A601BE02C
:104230004FF0500383F31188BFF36F8FBFF34F8F9D
:10424000FEE74FF0500383F31188BFF36F8FBFF386
:104250004F8FFEE7284A1368013B13609DF8033037
:104260005B00DBB28DF803309DF8033013F0800F54
:10427000F0D1214B1B68032B08D04FF0500383F380
:104280001188BFF36F8FBFF34F8FFEE71B021A4AEF
:10429000136003F4E0631360019BDBB2144A1370F4
:1042A0004FF0E024D4F8203D43F47003C4F8203DDF
:1042B000D4F8203D43F07043C4F8203DFFF780FF61
:1042C00000250E4B1D60FFF7C3FED4F8343F43F0CA
:1042D0004043C4F8343FFFF7A7FE01F06DF8FFF745
:1042E00083FE284603B030BD71C20F4170C20F413A
:1042F00000E400E0EC110020F01100200C00002090
:10430000EFF305830F2B0FD9114A9B5CDBB2114AE7
:1043100012789A4208D94FF0500383F31188BFF303
:104320006F8FBFF34F8FFEE74FF0E023D3F80C3DC4
:1043300003F4E063084A1268934208D94FF050032F
:1043400083F31188BFF36F8FBFF34F8FFEE7704782
:10435000F0E300E0EC110020F0110020124A12F00E
:10436000070F1ED0D11D21F00701C1F57053134472
:104370000A460E480260002141601344083B23F0C6
:1043800007030B48036059601960991A5160136064
:10439000084B1960084B1960084B4FF000421A6037
:1043A00070474FF47053E4E7F81100200C4E0020E2
:1043B000F4110020004E0020FC4D0020F84D00209C
:1043C000164B1A461B688342FBD3516802EB010C63
:1043D000844509D0416800EB010C634509D00360B6
:1043E000904219D0106070474068014451601046F7
:1043F000F0E710B40A4C2468A3420BD05B68194460
:10440000416013681B680360904200D010605DF843
:10441000044B70470460F7E7704700BF0C4E002064
:10442000F411002070B5054600F0B0FE364B1B6855
:10443000A3B1364B1B681D424ED135B1083515F07E
:10444000070F02D025F007050835002D46D0304B68
:104450001B68AB4251D32F4A146804E0FFF77EFF7C
:10446000E7E722461C466368AB4202D22368002B72
:10447000F7D1254B1B68A34241D016680836236844
:10448000136063685B1B102B10D9601910F0070FC5
:1044900008D04FF0500383F31188BFF36F8FBFF341
:1044A0004F8FFEE743606560FFF78AFF6268184937
:1044B0000B689B1A0B60184909688B4201D2164998
:1044C0000B60124B1B681343636000232360134A85
:1044D00013680133136002E0002600E0002600F0BC
:1044E000EFFE16F0070F0CD04FF0500383F3118846
:1044F000BFF36F8FBFF34F8FFEE70026EFE7002675
:10450000EDE7304670BD00BFF4110020F84D0020EB
:10451000FC4D00200C4E0020004E0020044E0020D8
:10452000002834D038B50446A0F1080550F8043C02
:10453000174A1268134208D14FF0500383F31188D1
:10454000BFF36F8FBFF34F8FFEE750F8081C41B1E8
:104550004FF0500383F31188BFF36F8FBFF34F8F7A
:10456000FEE723EA020340F8043C00F00FFE54F893
:10457000041C084A13680B4413602846FFF720FF09
:10458000054A13680133136000F09AFE38BD704786
:10459000F84D0020FC4D0020084E002010B50446C8
:1045A000FFF788FDA26BE36B9A4204D00024FFF76B
:1045B000A3FD204610BD0124F9E710B50446FFF71E
:1045C00079FDA36B23B90124FFF796FD204610BDAA
:1045D0000024F9E770B504461546866B026C5AB99B
:1045E00003681BB100200136A66370BD806801F02E
:1045F0000BF80023A360F6E76DB94068FCF7ECFE0A
:10460000226C636813446360A268934219D32368E1
:1046100063602846E7E7C068FCF7DEFE226C514283
:10462000E3689B1AE3602268934202D2A3680B44BA
:10463000E360022D01D00020D5E726B1013E002025
:10464000D1E72846CFE70020CDE70346026C6AB1E8
:1046500010B50846D9681144D9609C68A14201D3BD
:104660001968D960D968FCF7B7FE10BD704738B536
:104670000546FFF71FFD95F8454064B201E0013C97
:1046800064B2002C0ADD6B6A43B105F1240000F02E
:1046900011FF0028F3D000F0A1FFF0E7FF2385F819
:1046A0004530FFF729FDFFF705FD95F8444064B25A
:1046B00001E0013C64B2002C0ADD2B6943B105F135
:1046C000100000F0F7FE0028F3D000F087FFF0E7BD
:1046D000FF2385F84430FFF70FFD38BD38B5E0B152
:1046E0000D460446FFF7E6FC2368E26B216C01FBF4
:1046F0000230A0600020A0636360013A02FB013336
:10470000E360FF2384F8443084F84530FDB9236921
:1047100063B9FFF7F1FC012038BD4FF0500383F37C
:104720001188BFF36F8FBFF34F8FFEE704F11000C6
:1047300000F0C0FE0028ECD04FF0E0234FF0805294
:10474000C3F8042DBFF34F8FBFF36F8FE1E704F180
:104750001000FFF703FC04F12400FFF7FFFBD8E78C
:1047600038B51D46049C0B4649B92460E0632364B8
:1047700001212046FFF7B2FF84F84C5038BD22607B
:10478000F4E740B94FF0500383F31188BFF36F8F04
:10479000BFF34F8FFEE710B584B01C46844653B17B
:1047A00092B189B94FF0500383F31188BFF36F8F33
:1047B000BFF34F8FFEE74FF0500383F31188BFF331
:1047C0006F8FBFF34F8FFEE76AB150230393039BB4
:1047D000502B13D04FF0500383F31188BFF36F8F2A
:1047E000BFF34F8FFEE70029EFD04FF0500383F364
:1047F0001188BFF36F8FBFF34F8FFEE7039B012339
:1048000084F8463000949DF818306046FFF7A8FF02
:10481000204604B010BDF0B585B0019288B10F46B6
:104820001D460446B1B1022D20D1E36B012B1DD0F2
:104830004FF0500383F31188BFF36F8FBFF34F8F97
:10484000FEE74FF0500383F31188BFF36F8FBFF380
:104850004F8FFEE7036C002BE5D04FF0500383F33E
:104860001188BFF36F8FBFF34F8FFEE700F0BCFEE0
:10487000064658B9019B002B48D04FF0500383F3F4
:104880001188BFF36F8FBFF34F8FFEE700263DE027
:104890002A4639462046FFF79DFE636A7BB948B138
:1048A0004FF0E0234FF08052C3F8042DBFF34F8F39
:1048B000BFF36F8FFFF720FC012005B0F0BD04F1BE
:1048C000240000F0F7FD0028F4D04FF0E0234FF073
:1048D0008052C3F8042DBFF34F8FBFF36F8FE9E70A
:1048E000FFF70AFC0020E8E702A800F029FE0126F5
:1048F00019E0002384F8443021E0002384F8453097
:1049000023E02046FFF7B3FE00F0DAFCFFF7D2FB0E
:10491000A26BE36B9A42BBD3022DB9D0019B002B53
:10492000DED0002EE0D0FFF7E7FB00F02FFCFFF712
:10493000C1FB94F8442052B2B2F1FF3FD9D094F8B1
:10494000452052B2B2F1FF3FD7D0FFF7D5FB01A906
:1049500002A800F001FED8B92046FFF71FFE00288C
:10496000CFD0019904F1100000F070FD2046FFF750
:104970007EFE00F0A5FC0028C8D14FF0E0234FF0E8
:104980008052C3F8042DBFF34F8FBFF36F8FBDE785
:104990002046FFF76CFE00F093FC00208DE72DE928
:1049A000F84390B10F4616461C460546B1B1022C9D
:1049B00020D1EB6B012B1DD04FF0500383F31188F6
:1049C000BFF36F8FBFF34F8FFEE74FF0500383F3BA
:1049D0001188BFF36F8FBFF34F8FFEE7036C002B7F
:1049E000E5D04FF0500383F31188BFF36F8FBFF30F
:1049F0004F8FFEE7FFF784FCEFF311894FF0500370
:104A000083F31188BFF36F8FBFF34F8FAA6BEB6BEC
:104A10009A4206D3022C04D0002089F31188BDE805
:104A2000F88395F845804FFA88F8AB6B22463946F3
:104A30002846FFF7CFFDB8F1FF3F06D008F101038C
:104A40005BB285F845300120E7E76B6A0BB90120BE
:104A5000E3E705F1240000F02DFD18B126B1012097
:104A60003060DAE70120D8E70120D6E7F0B585B05D
:104A7000019290B10F460446C1B100F0B5FD064663
:104A800000BB019B002B5ED04FF0500383F31188D5
:104A9000BFF36F8FBFF34F8FFEE74FF0500383F3E9
:104AA0001188BFF36F8FBFF34F8FFEE7036C002BAE
:104AB000E3D04FF0500383F31188BFF36F8FBFF340
:104AC0004F8FFEE700263EE039462046FFF7BDFD4A
:104AD000013DA563236923B9FFF70EFB012005B053
:104AE000F0BD04F1100000F0E5FC0028F4D04FF018
:104AF000E0234FF08052C3F8042DBFF34F8FBFF374
:104B00006F8FE9E7FFF7F8FA0020E8E702A800F066
:104B100017FD012621E0002384F8443029E000231A
:104B200084F845302BE02046FFF7A1FD00F0C8FBDC
:104B300009E02046FFF79BFD00F0C2FB2046FFF78F
:104B40003CFD00283FD1FFF7B5FAA56B002DBBD186
:104B5000019B002BD6D0002ED8D0FFF7CDFA00F065
:104B600015FBFFF7A7FA94F844305BB2B3F1FF3FAF
:104B7000D1D094F845305BB2B3F1FF3FCFD0FFF70F
:104B8000BBFA01A902A800F0E7FC0028D1D1204619
:104B9000FFF713FD0028C6D0019904F1240000F0AE
:104BA00055FC2046FFF763FD00F08AFB0028CAD1C0
:104BB0004FF0E0234FF08052C3F8042DBFF34F8F26
:104BC000BFF36F8FBFE7002089E700000023072BAA
:104BD0000CD8074A52F833200AB10133F7E7044AE8
:104BE00042F8331002EBC30358607047704700BFB0
:104BF000144E002070B504460D461646FFF75AFACB
:104C000094F844305BB2B3F1FF3F0DD094F84530D7
:104C10005BB2B3F1FF3F0BD0FFF76EFAA36B5BB152
:104C20002046FFF724FD70BD002384F84430EDE7F3
:104C3000002384F84530EFE73246294604F124008A
:104C400000F01CFCECE70000084B1B681B6823B954
:104C5000074B4FF0FF321A607047044B1B68DB684C
:104C6000DB685A68024B1A60704700BF584E00203C
:104C7000005300202DE9F04780460D46174699461F
:104C8000089EDDF824A00A9C9200A521206B00F06C
:104C90009BFF236B07F18042013A03EB820727F069
:104CA0000707B5B34FF0000CBCF10F0F0BD815F888
:104CB0000C2004EB0C0383F8342015F80C3013B1EE
:104CC0000CF1010CF0E7002384F84330372E00D9B3
:104CD0003726E662E66400252565201DFFF749F9C1
:104CE00004F11800FFF745F92461C6F13806A66102
:104CF0006462656584F858504A4641463846FFF775
:104D0000B1F92060BAF1000F01D0CAF80040BDE847
:104D1000F087002384F83430D8E7000038B5002449
:104D200007E004EB840293000E481844FFF716F9DD
:104D30000134372CF5D90C4D2846FFF70FF90B4CF1
:104D40002046FFF70BF90A48FFF708F90948FFF773
:104D500005F90948FFF702F9084B1D60084B1C6074
:104D600038BD00BF604E0020D4520020E852002021
:104D70000C5300203853002024530020584E0020AC
:104D80005C4E002010B50446FFF794F9224A1368E0
:104D900001331360214B1B685BB1214B1B686BB95E
:104DA0001E4B1B68DA6AE36A9A4207D81B4B1C60E9
:104DB00004E01A4B1C601368012B29D0194A1368B0
:104DC000013313606364E06A174B1B68984201D992
:104DD000154B186000EB8000211D144B03EB800085
:104DE000FFF7CAF8FFF788F90D4B1B687BB10B4B37
:104DF0001B68DA6AE36A9A4209D24FF0E0234FF067
:104E00008052C3F8042DBFF34F8FBFF36F8F10BDD7
:104E1000FFF784FFD2E700BFC0520020544E0020AD
:104E200020530020CC520020D0520020604E0020A1
:104E300010B5044690F8593063B1012B11D0022B04
:104E40000ED04FF0500383F31188BFF36F8FBFF381
:104E50004F8FFEE7006BFFF763FB2046FFF760FB19
:104E600010BDFFF75DFBFBE70F4B1B68D3B110B51F
:104E7000FFF720F90D4BDB68DC68201DFFF7A0F879
:104E80000B4A1368013B1360074A1368013B136028
:104E9000FFF732F92046FFF7CBFF034B1B68002BCF
:104EA000E6D110BD704700BFC45200203853002027
:104EB000C052002008B5FFF7D7FF074B1B68012B36
:104EC000F9D94FF0E0234FF08052C3F8042DBFF31F
:104ED0004F8FBFF36F8FEEE7604E002070B5044632
:104EE0000D46174B1E68174B18680430FFF768F81B
:104EF000B4F1FF3F0DD03444124B1B685C60A642F6
:104F000010D9114B18680F4B19680431FFF73FF89F
:104F100070BD002DEFD00B4B196804310B48FFF723
:104F20002BF8F5E70A4B1868064B19680431FFF7B0
:104F30002EF8084B1B68A342EAD9064B1C60E7E732
:104F40004C530020544E00205C4E0020245300207F
:104F5000584E00200053002030B587B00B9C7CB128
:104F60000C9DB5B15C250495049D5C2D1AD04FF0C5
:104F7000500383F31188BFF36F8FBFF34F8FFEE7AA
:104F80004FF0500383F31188BFF36F8FBFF34F8F40
:104F9000FEE74FF0500383F31188BFF36F8FBFF329
:104FA0004F8FFEE7049D0C9D2C63022485F8594029
:104FB00000240394029505AC01940A9C0094FFF729
:104FC00059FE0C98FFF7DEFE059807B030BD2DE9BD
:104FD000F04385B00746884614461E469000FFF70A
:104FE00021FA00B381465C20FFF71CFA0546B0B1F8
:104FF000C0F83090E5B1002385F85930039302954D
:105000000D9B01930C9B0093334622464146384644
:10501000FFF730FE2846FFF7B5FE012005E04846C1
:10502000FFF77EFAE6E74FF0FF3005B0BDE8F0830A
:105030004FF0FF30F9E7000038B50446FFF73AF8C3
:1050400024B3251D2846FEF7BBFFA36A1BB104F15C
:105050001800FEF7B5FF1F4A1368013313601E4B9B
:105060001B68A34215D01D4A1368013B13602046FC
:10507000FFF7DEFEFFF7E8FDFFF73EF8184B1B6871
:105080001BB1154B1B68A3420CD038BD124B1C68DA
:10509000D7E729461348FEF76FFF134A1368013319
:1050A0001360E9E7114B1B6843B14FF0500383F3E2
:1050B0001188BFF36F8FBFF34F8FFEE74FF0E023F0
:1050C0004FF08052C3F8042DBFF34F8FBFF36F8FA3
:1050D000DBE700BFCC520020544E0020C05200201D
:1050E0002053002038530020C4520020C852002012
:1050F00010B588B000240594069407AA06A905A84F
:10510000FEF714FF059B0293069B01930094234630
:10511000079A18491848FFF71FFF184B186040B14D
:1051200000F026FB012806D0B0F1FF3F18D008B0F0
:1051300010BD0020F6E74FF0500383F31188BFF352
:105140006F8FBFF34F8F0E4B4FF0FF321A600D4B36
:1051500001221A600C4B00221A60FFF745F8E6E7BF
:105160004FF0500383F31188BFF36F8FBFF34F8F5E
:10517000FEE700BF24780008B54E0008FC5200206E
:1051800000530020205300204C530020024A136893
:1051900001331360704700BFC8520020014B1868EC
:1051A000704700BF4C530020F8B53A4B1B68002BEA
:1051B00069D1394B1D6801351D60C5B9374B1B6876
:1051C0001B6843B14FF0500383F31188BFF36F8F17
:1051D000BFF34F8FFEE7314A1168314B18681060FA
:1051E0001960304A136801331360FFF72DFD2E4B11
:1051F0001B68AB423DD900272C4B1B68DB6A03EBD5
:1052000083039A002A4B9B58012B00D90127294B75
:105210001B68002B3CD001273AE001271F4B1B687D
:105220001B6843B31D4B1B68DB68DC6863689D42E9
:1052300026D3261D3046FEF7C3FEA36A1BB104F138
:105240001800FEF7BDFEE36A1B4A1268934201D9BB
:10525000194A136003EB83039A0031461448104443
:10526000FEF78AFEE26A114B1B68DB6A9A42D4D2CF
:10527000D4E70027D2E70C4B4FF0FF321A60BBE7B0
:10528000094A1360B8E70D4A136801331360002719
:105290003846F8BDC85200204C530020584E00201C
:1052A0005C4E00200453002000530020544E002088
:1052B000604E002050530020D052002008530020A0
:1052C00038B5354B1B6843B94FF0500383F3118851
:1052D000BFF36F8FBFF34F8FFEE7FEF7EBFE2E4B52
:1052E0001A68013A1A601B68002B4FD12B4B1B68C0
:1052F0000BB900244BE00024294B1B681BB3284B3F
:10530000DB68DC6804F11800FEF75AFE251D28460C
:10531000FEF756FEE06A234B1B68984201D9214BE9
:10532000186000EB800029461F4B03EB8000FEF75E
:1053300023FEE26A1D4B1B68DB6A9A42DCD31C4BDE
:1053400001221A60D8E70CB1FFF77EFC194B1C68EC
:1053500084B9174B1C68D4B14FF0E0234FF0805252
:10536000C3F8042DBFF34F8FBFF36F8F01240EE0FE
:10537000013C07D0FFF718FF0028F9D00C4B0122A1
:105380001A60F5E70B4B00221A60E2E70024FEF7F3
:10539000B3FE204638BD00BFC8520020C0520020D6
:1053A0000C530020D0520020604E0020544E0020AC
:1053B00050530020085300201F4B1B681BB11F4B8C
:1053C00001221A6070471D4B00221A601C4B1B689B
:1053D00003EB83018A001B498A585AB90BB1013B80
:1053E000F6E74FF0500383F31188BFF36F8FBFF3DD
:1053F0004F8FFEE703EB830082000A445068406849
:10540000506003EB830C4FEA8C020832114488424F
:105410000BD003EB830291000A4A0A445268D16818
:10542000094A1160064A136070474068624691005D
:10543000044A0A445060ECE7C85200205053002050
:10544000D0520020604E0020544E002058B110B5BC
:105450000C46094A11681831FEF799FD01212046D2
:10546000FFF73CFD10BD4FF0500383F31188BFF3ED
:105470006F8FBFF34F8FFEE7544E002038B570B1E9
:105480000D4614460A4A11681831FEF775FD0CB135
:105490004FF0FF3521462846FFF720FD38BD4FF07D
:1054A000500383F31188BFF36F8FBFF34F8FFEE775
:1054B000544E002038B5C368DC6824B304F11805E5
:1054C0002846FEF77DFD184B1B682BBB251D284683
:1054D000FEF776FDE06A154B1B68984201D9134B25
:1054E000186000EB80002946114B03EB8000FEF7AB
:1054F00043FDE26A0F4B1B68DB6A9A4211D9012017
:105500000D4B186038BD4FF0500383F31188BFF383
:105510006F8FBFF34F8FFEE729460848FEF72CFD3B
:10552000E7E70020EEE700BFC8520020D05200207D
:10553000604E0020544E0020505300200C53002099
:10554000034B1B680360034B1B684360704700BF3D
:10555000045300204C530020F8B5C8B10C46054652
:10556000F9B1FEF7A7FD1B4B19686B68C81A2268D2
:10557000B2F1FF3F26D0184E36682F68B74201D0EF
:105580008B4224D9824215D80023236001241AE0DB
:105590004FF0500383F31188BFF36F8FBFF34F8F2A
:1055A000FEE74FF0500383F31188BFF36F8FBFF313
:1055B0004F8FFEE75B1A134423602846FFF7C0FFB6
:1055C000002400E00024FEF797FD2046F8BD0124EA
:1055D000F9E700BF4C53002004530020014B012287
:1055E0001A60704750530020054B1B6833B1054BC0
:1055F0001B680BB1002070470220704701207047E4
:1056000020530020C852002000283BD038B5044663
:105610001E4B1B68834208D04FF0500383F3118860
:10562000BFF36F8FBFF34F8FFEE7036D43B94FF0AA
:10563000500383F31188BFF36F8FBFF34F8FFEE7E3
:10564000013B0365C16AC26C91421DD00BB10020C1
:1056500038BD051D2846FEF7B3FCE06CE062C0F1E2
:105660003803A3610A4B1B68984201D9084B1860A4
:1056700000EB80002946074B03EB8000FEF77CFC23
:105680000120E5E7002070470020E1E7544E0020AC
:10569000D0520020604E0020064B1A6813682BB9C8
:1056A0000123036023B9D368186870470023F8E723
:1056B000002070475453002008B5416000619142BA
:1056C0000CD8D21A83699A4201D3012008BD011D6A
:1056D000094B1868FEF75BFC0020F7E79A4201D2FD
:1056E000994206D2011D054B1868FEF750FC0020B8
:1056F000ECE70120EAE700BF585300205453002094
:1057000030B583B0FEF7D6FC114B1B681BB1FEF71A
:10571000F3FC03B030BD0F4D2846FEF71FFC0E4CC6
:105720002046FEF71BFC0D4B1D600D4B1C6000233B
:1057300000930C4B0C4A10210A20FFF722F8044B6F
:1057400018600028E3D00949FFF740FADFE700BFFF
:1057500078540020FC5300201054002054530020A3
:1057600058530020285400205C5300202C78000857
:1057700010B588B0FFF7C4FF124B1B68CBB10024F3
:105780000594069407AA06A905A8FEF7DBFB059B6E
:105790000293069B0193022300932346079A0A492A
:1057A0000A48FFF7D9FB0A4B186010B1012008B076
:1057B00010BD4FF0500383F31188BFF36F8FBFF319
:1057C0004F8FFEE77854002034780008D55A00083F
:1057D0007C540020B8B19C4603461848006858B372
:1057E00000B585B000910192029305291CDCFFF7FA
:1057F000FBFE022810D000231A4669460F480068B5
:10580000FFF709F815E04FF0500383F31188BFF359
:105810006F8FBFF34F8FFEE70023069A6946074854
:105820000068FEF7F8FF04E0002362466946FFF7D0
:10583000B6F805B05DF804FB0020704778540020EE
:1058400070B582B01B4B1B681A6862B3DB681E68B8
:10585000DC68251D2846FEF7B3FB236A20469847DF
:1058600094F8283013F0040FECD0A36933449E421F
:1058700007D26360246129460E4B1868FEF787FB48
:10588000E0E7002100910B4632462046FFF7A2FFD9
:105890000028D7D14FF0500383F31188BFF36F8FE7
:1058A000BFF34F8FFEE7044A106802490860136097
:1058B00002B070BD545300205853002038B505463F
:1058C000FFF76CFC0446074B1B68834205D8002396
:1058D0002B60044B1C60204638BDFFF7B1FF01234D
:1058E0002B60F6E72454002070B582B006460D46C2
:1058F00017490968C968CC68201DFEF761FB94F858
:1059000028C01CF0040F08D12CF0010C84F828C02A
:10591000236A2046984702B070BDA16933462A46E3
:1059200031442046FFF7C8FE0028F1D00021009145
:105930000B4632462046FFF74DFF0028E8D14FF0D6
:10594000500383F31188BFF36F8FBFF34F8FFEE7D0
:105950005453002070B582B006460C46FFF716FC83
:1059600001A8FFF7ABFF019B33BB05460CB9B04262
:1059700019D224B1124A12681268DAB901242246F7
:10598000711B104B1868FFF735F9FFF799FCA8B9A0
:105990004FF0E0234FF08052C3F8042DBFF34F8F38
:1059A000BFF36F8F0AE0FFF78BFC29463046FFF705
:1059B0009BFF03E01C46E2E7FFF782FC02B070BDEC
:1059C000585300207854002010B588B002E0049BA2
:1059D000002B0FDA002204A93D4B1868FFF746F8A8
:1059E000002873D0049B002BF1DA07990698059BD9
:1059F0009847ECE7069C636913B1201DFEF7E0FAB7
:105A000003A8FFF75BFF049B092BE3D8DFE803F053
:105A10000505053037500505303794F8283043F038
:105A2000010384F82830059BA169024619442046E9
:105A3000FFF742FE0028CDD0236A2046984794F80D
:105A4000283013F0040FC5D0A269002100910B4645
:105A5000059802442046FFF7BDFE0028BAD14FF05A
:105A6000500383F31188BFF36F8FBFF34F8FFEE7AF
:105A700094F8283023F0010384F82830AAE794F83A
:105A8000283043F0010384F828300599A16131B131
:105A90000346024601442046FFF70EFE9AE74FF008
:105AA000500383F31188BFF36F8FBFF34F8FFEE76F
:105AB00094F8283013F0020F04D023F0010384F887
:105AC000283087E72046FEF72BFD83E708B010BD9E
:105AD0007854002000B583B001A8FFF7DDFD0199DF
:105AE000FFF738FFFFF770FFF6E7000008B5102159
:105AF0000548FCF7D9FF054800F006F94FF4FA70A5
:105B0000FCF71EFBF3E700BF000802403C780008EA
